{
  "contractName": "Lottery",
  "abi": [
    {
      "inputs": [
        {
          "internalType": "contract ILotteryNFT",
          "name": "_lotteryNFT",
          "type": "address"
        },
        {
          "internalType": "address",
          "name": "_token",
          "type": "address"
        }
      ],
      "stateMutability": "nonpayable",
      "type": "constructor"
    },
    {
      "anonymous": false,
      "inputs": [
        {
          "indexed": true,
          "internalType": "address",
          "name": "user",
          "type": "address"
        },
        {
          "indexed": false,
          "internalType": "uint256",
          "name": "tokenId",
          "type": "uint256"
        }
      ],
      "name": "Buy",
      "type": "event"
    },
    {
      "anonymous": false,
      "inputs": [
        {
          "indexed": true,
          "internalType": "address",
          "name": "user",
          "type": "address"
        },
        {
          "indexed": false,
          "internalType": "uint256",
          "name": "tokenid",
          "type": "uint256"
        },
        {
          "indexed": false,
          "internalType": "uint256",
          "name": "amount",
          "type": "uint256"
        }
      ],
      "name": "Claim",
      "type": "event"
    },
    {
      "anonymous": false,
      "inputs": [
        {
          "indexed": true,
          "internalType": "address",
          "name": "user",
          "type": "address"
        },
        {
          "indexed": false,
          "internalType": "uint256",
          "name": "amount",
          "type": "uint256"
        }
      ],
      "name": "DevWithdraw",
      "type": "event"
    },
    {
      "anonymous": false,
      "inputs": [
        {
          "indexed": true,
          "internalType": "uint256",
          "name": "issueIndex",
          "type": "uint256"
        },
        {
          "indexed": false,
          "internalType": "uint8[4]",
          "name": "winningNumbers",
          "type": "uint8[4]"
        }
      ],
      "name": "Drawing",
      "type": "event"
    },
    {
      "anonymous": false,
      "inputs": [
        {
          "indexed": true,
          "internalType": "address",
          "name": "user",
          "type": "address"
        },
        {
          "indexed": false,
          "internalType": "uint256",
          "name": "amount",
          "type": "uint256"
        }
      ],
      "name": "MultiBuy",
      "type": "event"
    },
    {
      "anonymous": false,
      "inputs": [
        {
          "indexed": true,
          "internalType": "address",
          "name": "user",
          "type": "address"
        },
        {
          "indexed": false,
          "internalType": "uint256",
          "name": "amount",
          "type": "uint256"
        }
      ],
      "name": "MultiClaim",
      "type": "event"
    },
    {
      "anonymous": false,
      "inputs": [
        {
          "indexed": true,
          "internalType": "address",
          "name": "previousOwner",
          "type": "address"
        },
        {
          "indexed": true,
          "internalType": "address",
          "name": "newOwner",
          "type": "address"
        }
      ],
      "name": "OwnershipTransferred",
      "type": "event"
    },
    {
      "anonymous": false,
      "inputs": [
        {
          "indexed": true,
          "internalType": "uint256",
          "name": "issueIndex",
          "type": "uint256"
        }
      ],
      "name": "Reset",
      "type": "event"
    },
    {
      "inputs": [],
      "name": "GOSWAP_ROUTER",
      "outputs": [
        {
          "internalType": "address",
          "name": "",
          "type": "address"
        }
      ],
      "stateMutability": "view",
      "type": "function"
    },
    {
      "inputs": [],
      "name": "adminAddress",
      "outputs": [
        {
          "internalType": "address",
          "name": "",
          "type": "address"
        }
      ],
      "stateMutability": "view",
      "type": "function"
    },
    {
      "inputs": [
        {
          "internalType": "uint256",
          "name": "",
          "type": "uint256"
        }
      ],
      "name": "allocation",
      "outputs": [
        {
          "internalType": "uint8",
          "name": "",
          "type": "uint8"
        }
      ],
      "stateMutability": "view",
      "type": "function"
    },
    {
      "inputs": [],
      "name": "drawingPhase",
      "outputs": [
        {
          "internalType": "bool",
          "name": "",
          "type": "bool"
        }
      ],
      "stateMutability": "view",
      "type": "function"
    },
    {
      "inputs": [
        {
          "internalType": "uint256",
          "name": "",
          "type": "uint256"
        },
        {
          "internalType": "uint256",
          "name": "",
          "type": "uint256"
        }
      ],
      "name": "historyAmount",
      "outputs": [
        {
          "internalType": "uint256",
          "name": "",
          "type": "uint256"
        }
      ],
      "stateMutability": "view",
      "type": "function"
    },
    {
      "inputs": [
        {
          "internalType": "uint256",
          "name": "",
          "type": "uint256"
        },
        {
          "internalType": "uint256",
          "name": "",
          "type": "uint256"
        }
      ],
      "name": "historyNumbers",
      "outputs": [
        {
          "internalType": "uint8",
          "name": "",
          "type": "uint8"
        }
      ],
      "stateMutability": "view",
      "type": "function"
    },
    {
      "inputs": [],
      "name": "issueIndex",
      "outputs": [
        {
          "internalType": "uint256",
          "name": "",
          "type": "uint256"
        }
      ],
      "stateMutability": "view",
      "type": "function"
    },
    {
      "inputs": [],
      "name": "lastTimestamp",
      "outputs": [
        {
          "internalType": "uint256",
          "name": "",
          "type": "uint256"
        }
      ],
      "stateMutability": "view",
      "type": "function"
    },
    {
      "inputs": [
        {
          "internalType": "uint256",
          "name": "",
          "type": "uint256"
        },
        {
          "internalType": "uint256",
          "name": "",
          "type": "uint256"
        }
      ],
      "name": "lotteryInfo",
      "outputs": [
        {
          "internalType": "uint256",
          "name": "",
          "type": "uint256"
        }
      ],
      "stateMutability": "view",
      "type": "function"
    },
    {
      "inputs": [],
      "name": "lotteryNFT",
      "outputs": [
        {
          "internalType": "contract ILotteryNFT",
          "name": "",
          "type": "address"
        }
      ],
      "stateMutability": "view",
      "type": "function"
    },
    {
      "inputs": [],
      "name": "maxNumber",
      "outputs": [
        {
          "internalType": "uint8",
          "name": "",
          "type": "uint8"
        }
      ],
      "stateMutability": "view",
      "type": "function"
    },
    {
      "inputs": [],
      "name": "minPrice",
      "outputs": [
        {
          "internalType": "uint256",
          "name": "",
          "type": "uint256"
        }
      ],
      "stateMutability": "view",
      "type": "function"
    },
    {
      "inputs": [],
      "name": "owner",
      "outputs": [
        {
          "internalType": "address",
          "name": "",
          "type": "address"
        }
      ],
      "stateMutability": "view",
      "type": "function"
    },
    {
      "inputs": [],
      "name": "renounceOwnership",
      "outputs": [],
      "stateMutability": "nonpayable",
      "type": "function"
    },
    {
      "inputs": [],
      "name": "token",
      "outputs": [
        {
          "internalType": "address",
          "name": "",
          "type": "address"
        }
      ],
      "stateMutability": "view",
      "type": "function"
    },
    {
      "inputs": [],
      "name": "totalAddresses",
      "outputs": [
        {
          "internalType": "uint256",
          "name": "",
          "type": "uint256"
        }
      ],
      "stateMutability": "view",
      "type": "function"
    },
    {
      "inputs": [],
      "name": "totalAmount",
      "outputs": [
        {
          "internalType": "uint256",
          "name": "",
          "type": "uint256"
        }
      ],
      "stateMutability": "view",
      "type": "function"
    },
    {
      "inputs": [
        {
          "internalType": "address",
          "name": "newOwner",
          "type": "address"
        }
      ],
      "name": "transferOwnership",
      "outputs": [],
      "stateMutability": "nonpayable",
      "type": "function"
    },
    {
      "inputs": [
        {
          "internalType": "uint256",
          "name": "",
          "type": "uint256"
        },
        {
          "internalType": "uint64",
          "name": "",
          "type": "uint64"
        }
      ],
      "name": "userBuyAmountSum",
      "outputs": [
        {
          "internalType": "uint256",
          "name": "",
          "type": "uint256"
        }
      ],
      "stateMutability": "view",
      "type": "function"
    },
    {
      "inputs": [
        {
          "internalType": "address",
          "name": "",
          "type": "address"
        },
        {
          "internalType": "uint256",
          "name": "",
          "type": "uint256"
        }
      ],
      "name": "userInfo",
      "outputs": [
        {
          "internalType": "uint256",
          "name": "",
          "type": "uint256"
        }
      ],
      "stateMutability": "view",
      "type": "function"
    },
    {
      "inputs": [
        {
          "internalType": "uint256",
          "name": "",
          "type": "uint256"
        }
      ],
      "name": "winningNumbers",
      "outputs": [
        {
          "internalType": "uint8",
          "name": "",
          "type": "uint8"
        }
      ],
      "stateMutability": "view",
      "type": "function"
    },
    {
      "inputs": [
        {
          "internalType": "uint256",
          "name": "_issueIndex",
          "type": "uint256"
        }
      ],
      "name": "getHistoryNumbers",
      "outputs": [
        {
          "internalType": "uint8[4]",
          "name": "_numbers",
          "type": "uint8[4]"
        }
      ],
      "stateMutability": "view",
      "type": "function"
    },
    {
      "inputs": [
        {
          "internalType": "uint256",
          "name": "_issueIndex",
          "type": "uint256"
        }
      ],
      "name": "getLotteryInfo",
      "outputs": [
        {
          "internalType": "uint256[]",
          "name": "_tokenIds",
          "type": "uint256[]"
        }
      ],
      "stateMutability": "view",
      "type": "function"
    },
    {
      "inputs": [
        {
          "internalType": "uint256",
          "name": "_issueIndex",
          "type": "uint256"
        }
      ],
      "name": "getHistoryAmount",
      "outputs": [
        {
          "internalType": "uint256[]",
          "name": "_amount",
          "type": "uint256[]"
        }
      ],
      "stateMutability": "view",
      "type": "function"
    },
    {
      "inputs": [
        {
          "internalType": "address",
          "name": "_user",
          "type": "address"
        }
      ],
      "name": "getUserInfo",
      "outputs": [
        {
          "internalType": "uint256[]",
          "name": "_tokenIds",
          "type": "uint256[]"
        }
      ],
      "stateMutability": "view",
      "type": "function"
    },
    {
      "inputs": [],
      "name": "drawed",
      "outputs": [
        {
          "internalType": "bool",
          "name": "",
          "type": "bool"
        }
      ],
      "stateMutability": "view",
      "type": "function"
    },
    {
      "inputs": [],
      "name": "reset",
      "outputs": [],
      "stateMutability": "nonpayable",
      "type": "function"
    },
    {
      "inputs": [],
      "name": "enterDrawingPhase",
      "outputs": [],
      "stateMutability": "nonpayable",
      "type": "function"
    },
    {
      "inputs": [
        {
          "internalType": "uint256",
          "name": "_externalRandomNumber",
          "type": "uint256"
        }
      ],
      "name": "drawing",
      "outputs": [],
      "stateMutability": "nonpayable",
      "type": "function"
    },
    {
      "inputs": [
        {
          "internalType": "uint256",
          "name": "_price",
          "type": "uint256"
        },
        {
          "internalType": "uint8[4]",
          "name": "_numbers",
          "type": "uint8[4]"
        }
      ],
      "name": "buy",
      "outputs": [],
      "stateMutability": "nonpayable",
      "type": "function"
    },
    {
      "inputs": [
        {
          "internalType": "uint256",
          "name": "_price",
          "type": "uint256"
        },
        {
          "internalType": "uint8[4][]",
          "name": "_numbers",
          "type": "uint8[4][]"
        }
      ],
      "name": "multiBuy",
      "outputs": [],
      "stateMutability": "nonpayable",
      "type": "function"
    },
    {
      "inputs": [
        {
          "internalType": "uint256",
          "name": "_tokenId",
          "type": "uint256"
        }
      ],
      "name": "claimReward",
      "outputs": [],
      "stateMutability": "nonpayable",
      "type": "function"
    },
    {
      "inputs": [
        {
          "internalType": "uint256[]",
          "name": "_tickets",
          "type": "uint256[]"
        }
      ],
      "name": "multiClaim",
      "outputs": [],
      "stateMutability": "nonpayable",
      "type": "function"
    },
    {
      "inputs": [
        {
          "internalType": "uint8[4]",
          "name": "number",
          "type": "uint8[4]"
        }
      ],
      "name": "generateNumberIndexKey",
      "outputs": [
        {
          "internalType": "uint64[11]",
          "name": "",
          "type": "uint64[11]"
        }
      ],
      "stateMutability": "pure",
      "type": "function"
    },
    {
      "inputs": [
        {
          "internalType": "uint256",
          "name": "_issueIndex",
          "type": "uint256"
        },
        {
          "internalType": "uint256",
          "name": "_matchingNumber",
          "type": "uint256"
        }
      ],
      "name": "getMatchingRewardAmount",
      "outputs": [
        {
          "internalType": "uint256",
          "name": "",
          "type": "uint256"
        }
      ],
      "stateMutability": "view",
      "type": "function"
    },
    {
      "inputs": [
        {
          "internalType": "uint256",
          "name": "_issueIndex",
          "type": "uint256"
        }
      ],
      "name": "getTotalRewards",
      "outputs": [
        {
          "internalType": "uint256",
          "name": "",
          "type": "uint256"
        }
      ],
      "stateMutability": "view",
      "type": "function"
    },
    {
      "inputs": [
        {
          "internalType": "uint256",
          "name": "_tokenId",
          "type": "uint256"
        }
      ],
      "name": "getRewardView",
      "outputs": [
        {
          "internalType": "uint256",
          "name": "",
          "type": "uint256"
        }
      ],
      "stateMutability": "view",
      "type": "function"
    },
    {
      "inputs": [
        {
          "internalType": "address",
          "name": "_adminAddress",
          "type": "address"
        }
      ],
      "name": "setAdmin",
      "outputs": [],
      "stateMutability": "nonpayable",
      "type": "function"
    },
    {
      "inputs": [
        {
          "internalType": "uint256",
          "name": "_amount",
          "type": "uint256"
        }
      ],
      "name": "adminWithdraw",
      "outputs": [],
      "stateMutability": "nonpayable",
      "type": "function"
    },
    {
      "inputs": [
        {
          "internalType": "uint256",
          "name": "_price",
          "type": "uint256"
        }
      ],
      "name": "setMinPrice",
      "outputs": [],
      "stateMutability": "nonpayable",
      "type": "function"
    },
    {
      "inputs": [
        {
          "internalType": "uint8",
          "name": "_maxNumber",
          "type": "uint8"
        }
      ],
      "name": "setMaxNumber",
      "outputs": [],
      "stateMutability": "nonpayable",
      "type": "function"
    },
    {
      "inputs": [
        {
          "internalType": "uint8",
          "name": "_allcation1",
          "type": "uint8"
        },
        {
          "internalType": "uint8",
          "name": "_allcation2",
          "type": "uint8"
        },
        {
          "internalType": "uint8",
          "name": "_allcation3",
          "type": "uint8"
        }
      ],
      "name": "setAllocation",
      "outputs": [],
      "stateMutability": "nonpayable",
      "type": "function"
    }
  ],
  "bytecode": "0x6003805460ff60a01b1916600760a11b1790556000600b819055600c819055600d819055610100604052608081815260a082905260c082905260e0919091526200004e9060119060046200015b565b503480156200005c57600080fd5b50604051620037fe380380620037fe8339810160408190526200007f916200020c565b60006200008b62000157565b600080546001600160a01b0319166001600160a01b0383169081178255604051929350917f8be0079c531659141344cd1fd0a4f28419497f9722a3daafe3b4186f6b6457e0908290a350600280546001600160a01b0384166001600160a01b031991821617909155600380549091163317815542600e556040805160608101825260328152601e6020820152600a918101919091526200012f91600191906200015b565b50600580546001600160a01b0319166001600160a01b03929092169190911790555062000263565b3390565b600183019183908215620001e35791602002820160005b83821115620001b257835183826101000a81548160ff021916908360ff160217905550926020019260010160208160000104928301926001030262000172565b8015620001e15782816101000a81549060ff0219169055600101602081600001049283019260010302620001b2565b505b50620001f1929150620001f5565b5090565b5b80821115620001f15760008155600101620001f6565b600080604083850312156200021f578182fd5b82516200022c816200024a565b60208401519092506200023f816200024a565b809150509250929050565b6001600160a01b03811681146200026057600080fd5b50565b61358b80620002736000396000f3fe608060405234801561001057600080fd5b506004361061025e5760003560e01c8063704b6c0211610146578063c39f49c0116100c3578063e134541611610087578063e1345416146104fc578063e45be8eb14610504578063e8adfbc71461050c578063f2fde38b14610514578063fc0c546a14610527578063fc6f94681461052f5761025e565b8063c39f49c0146104b3578063cfad5277146104c6578063d1f7dbcf146104ce578063d411b0fa146104e1578063d826f88f146104f45761025e565b806385dcdf1b1161010a57806385dcdf1b146104505780638a2f7a7f146104705780638da5cb5b14610485578063a42206c91461048d578063ae169a50146104a05761025e565b8063704b6c02146103fc578063715018a61461040f57806376b3c8a8146104175780637c5b4a371461042a578063850bad941461043d5761025e565b80633a4f6999116101df57806359bcbd68116101a357806359bcbd68146103955780635c17623a146103a85780635ea8cd12146103bb5780636386c1c7146103ce5780636575243f146103e15780636a28f828146103f45761025e565b80633a4f699914610332578063438209f5146103475780634e45f0951461035c5780634ed73d281461036f578063552164ee146103825761025e565b8063229dea1311610226578063229dea13146102b95780632bdff851146102d95780632f506b20146102ec578063324a5562146102ff57806338a10ef7146103125761025e565b806314c20d571461026357806319d8ac61146102785780631a39d8ef146102965780631ff688661461029e57806321ce919d146102a6575b600080fd5b610276610271366004612d27565b610537565b005b610280610619565b60405161028d9190613382565b60405180910390f35b61028061061f565b610276610625565b6102806102b4366004612ad6565b610683565b6102cc6102c7366004612c50565b6106b4565b60405161028d9190612ed6565b6102766102e7366004612c80565b610716565b6102806102fa366004612d74565b610830565b61027661030d366004612dae565b61084d565b610325610320366004612c50565b6108ac565b60405161028d9190612f55565b61033a610910565b60405161028d9190613399565b61034f610920565b60405161028d9190612f96565b61033a61036a366004612c50565b610929565b61027661037d366004612b01565b610953565b610280610390366004612c50565b610bc0565b61033a6103a3366004612d53565b610c48565b6102766103b6366004612dca565b610c81565b6102766103c9366004612c50565b610cf6565b6102cc6103dc366004612a9e565b610d3a565b6102806103ef366004612d53565b610da4565b610280610dc0565b61027661040a366004612a9e565b610dc6565b610276610e27565b6102cc610425366004612c50565b610eb0565b610276610438366004612c50565b610f10565b61033a61044b366004612c50565b610faa565b61046361045e366004612b95565b610fba565b60405161028d9190612f1a565b610478611522565b60405161028d9190612e56565b61047861153a565b61027661049b366004612c50565b611549565b6102766104ae366004612c50565b611775565b6102806104c1366004612d53565b61192b565b610280611947565b6102806104dc366004612d53565b61194d565b6102806104ef366004612c50565b611998565b610276611cfb565b61034f611e90565b610280611e9b565b610478611ea1565b610276610522366004612a9e565b611eb0565b610478611f70565b610478611f7f565b81610540611e90565b156105665760405162461bcd60e51b815260040161055d9061322f565b60405180910390fd5b60105460ff16156105895760405162461bcd60e51b815260040161055d906131c1565b6004548110156105ab5760405162461bcd60e51b815260040161055d906131f8565b60006105b78484611f8e565b6005549091506105d2906001600160a01b031633308761220c565b336001600160a01b03167fe3d4187f6ca4248660cc0ac8b8056515bac4a8132be2eca31d6d0cc170722a7e8260405161060b9190613382565b60405180910390a250505050565b600e5481565b600d5481565b6003546001600160a01b0316331461064f5760405162461bcd60e51b815260040161055d9061329b565b610657611e90565b156106745760405162461bcd60e51b815260040161055d90613362565b6010805460ff19166001179055565b600a602052816000526040600020818154811061069f57600080fd5b90600052602060002001600091509150505481565b60008181526008602090815260409182902080548351818402810184019094528084526060939283018282801561070a57602002820191906000526020600020905b8154815260200190600101908083116106f6575b50505050509050919050565b8161071f611e90565b1561073c5760405162461bcd60e51b815260040161055d9061322f565b60105460ff161561075f5760405162461bcd60e51b815260040161055d906131c1565b6004548110156107815760405162461bcd60e51b815260040161055d906131f8565b6000805b83518110156107de576107bf858583815181106107b257634e487b7160e01b600052603260045260246000fd5b6020026020010151611f8e565b506107ca8286612264565b9150806107d6816134e7565b915050610785565b506005546107f7906001600160a01b031633308461220c565b336001600160a01b03167f96c35ad1cc1743f26cb87980c38042de8082358ec6d171a7986d6e11dddfe8578260405161060b9190613382565b600960209081526000928352604080842090915290825290205481565b610855612277565b6001600160a01b031661086661153a565b6001600160a01b03161461088c5760405162461bcd60e51b815260040161055d90613266565b6003805460ff909216600160a01b0260ff60a01b19909216919091179055565b6108b46128cf565b600082815260066020526040808220815160808101928390529290916004918390855b825461010083900a900460ff168152602060019283018181049485019490930390920291018084116108d7575094979650505050505050565b600354600160a01b900460ff1681565b60105460ff1681565b600f816004811061093957600080fd5b60209182820401919006915054906101000a900460ff1681565b6000805b8251811015610b5d5760025483516001600160a01b0390911690636352211e9085908490811061099757634e487b7160e01b600052603260045260246000fd5b60200260200101516040518263ffffffff1660e01b81526004016109bb9190613382565b60206040518083038186803b1580156109d357600080fd5b505afa1580156109e7573d6000803e3d6000fd5b505050506040513d601f19601f82011682018060405250810190610a0b9190612aba565b6001600160a01b0316336001600160a01b031614610a3b5760405162461bcd60e51b815260040161055d90613141565b60025483516001600160a01b03909116906336dbd2f990859084908110610a7257634e487b7160e01b600052603260045260246000fd5b60200260200101516040518263ffffffff1660e01b8152600401610a969190613382565b60206040518083038186803b158015610aae57600080fd5b505afa158015610ac2573d6000803e3d6000fd5b505050506040513d601f19601f82011682018060405250810190610ae69190612c30565b15610b035760405162461bcd60e51b815260040161055d906131a0565b6000610b35848381518110610b2857634e487b7160e01b600052603260045260246000fd5b6020026020010151611998565b90508015610b4a57610b478184612264565b92505b5080610b55816134e7565b915050610957565b508015610b7b57600554610b7b906001600160a01b0316338361227b565b336001600160a01b03167f6606374655494f5c0e2d6f392656e9777afd9ac5f61527d1bcad50b7e918a03e82604051610bb49190613382565b60405180910390a25050565b6000600b54821115610be45760405162461bcd60e51b815260040161055d90613052565b610bec611e90565b158015610bfa5750600b5482145b15610c085750600d54610c43565b60008281526008602052604081208054909190610c3557634e487b7160e01b600052603260045260246000fd5b906000526020600020015490505b919050565b60066020528160005260406000208160048110610c6457600080fd5b602081049091015460ff601f9092166101000a9004169150829050565b610c89612277565b6001600160a01b0316610c9a61153a565b6001600160a01b031614610cc05760405162461bcd60e51b815260040161055d90613266565b6040805160608101825260ff80861682528481166020830152831691810191909152610cf09060019060036128ed565b50505050565b610cfe612277565b6001600160a01b0316610d0f61153a565b6001600160a01b031614610d355760405162461bcd60e51b815260040161055d90613266565b600455565b6001600160a01b0381166000908152600a602090815260409182902080548351818402810184019094528084526060939283018282801561070a57602002820191906000526020600020908154815260200190600101908083116106f65750505050509050919050565b6007602052816000526040600020818154811061069f57600080fd5b600b5481565b610dce612277565b6001600160a01b0316610ddf61153a565b6001600160a01b031614610e055760405162461bcd60e51b815260040161055d90613266565b600380546001600160a01b0319166001600160a01b0392909216919091179055565b610e2f612277565b6001600160a01b0316610e4061153a565b6001600160a01b031614610e665760405162461bcd60e51b815260040161055d90613266565b600080546040516001600160a01b03909116907f8be0079c531659141344cd1fd0a4f28419497f9722a3daafe3b4186f6b6457e0908390a3600080546001600160a01b0319169055565b60008181526007602090815260409182902080548351818402810184019094528084526060939283018282801561070a57602002820191906000526020600020908154815260200190600101908083116106f65750505050509050919050565b610f18612277565b6001600160a01b0316610f2961153a565b6001600160a01b031614610f4f5760405162461bcd60e51b815260040161055d90613266565b600554610f66906001600160a01b0316338361227b565b336001600160a01b03167f050d1c64cc22ce461b9bc14f6b73852566da02b03c155242bc63169d1fec42aa82604051610f9f9190613382565b60405180910390a250565b6001816003811061093957600080fd5b610fc2612980565b610fca6128cf565b825160ff908116825260208085015182169083015260408085015182169083015260608085015190911690820152611000612980565b6060820151604083015161101690610100613475565b61102290610100613475565b602084015161103390610100613475565b61103f90610100613475565b61104b90610100613475565b61105790610100613475565b845161106590610100613475565b61107190610100613475565b61107d90610100613475565b61108990610100613475565b61109590610100613475565b6110a190610100613475565b6110b1906501000000000061340b565b6110bb919061340b565b6110c990630200000061340b565b6110d3919061340b565b6110df9061030061340b565b6110e9919061340b565b6001600160401b031681526040820151602083015161110a90610100613475565b61111690610100613475565b835161112490610100613475565b61113090610100613475565b61113c90610100613475565b61114890610100613475565b61115690630100000061340b565b611160919061340b565b61116c9061020061340b565b611176919061340b565b6001600160401b031660208083019190915260608301519083015161119d90610100613475565b6111a990610100613475565b83516111b790610100613475565b6111c390610100613475565b6111cf90610100613475565b6111db90610100613475565b6111e990630100000061340b565b6111f3919061340b565b6111ff9061030061340b565b611209919061340b565b6001600160401b031660408083019190915260608301519083015161123090610100613475565b61123c90610100613475565b835161124a90610100613475565b61125690610100613475565b61126290610100613475565b61126e90610100613475565b61127c90630200000061340b565b611286919061340b565b6112929061030061340b565b61129c919061340b565b6001600160401b031660608083019190915282015160408301516112c290610100613475565b6112ce90610100613475565b60208401516112df90610100613475565b6112eb90610100613475565b6112f790610100613475565b61130390610100613475565b611313906501000000000061340b565b61132190630200000061340b565b61132b919061340b565b6113379061030061340b565b611341919061340b565b6001600160401b031660808201526020820151825161136290610100613475565b61136e90610100613475565b61137a9061010061340b565b611384919061340b565b6001600160401b031660a0820152604082015182516113a590610100613475565b6113b190610100613475565b6113bd9061020061340b565b6113c7919061340b565b6001600160401b031660c0820152606082015182516113e890610100613475565b6113f490610100613475565b6114009061030061340b565b61140a919061340b565b6001600160401b031660e08201526040820151602083015161142e90610100613475565b61143a90610100613475565b61144890630100000061340b565b6114549061020061340b565b61145e919061340b565b6001600160401b0316610100808301919091526060830151602084015190916114879190613475565b61149390610100613475565b6114a190630100000061340b565b6114ad9061030061340b565b6114b7919061340b565b6001600160401b0316610120820152606082015160408301516114dc90610100613475565b6114e890610100613475565b6114f690630200000061340b565b6115029061030061340b565b61150c919061340b565b6001600160401b03166101408201529392505050565b73d6dc3e48bc52fd6ff24f5318b537c46118e17f7081565b6000546001600160a01b031690565b6003546001600160a01b031633146115735760405162461bcd60e51b815260040161055d9061329b565b61157b611e90565b156115985760405162461bcd60e51b815260040161055d90613005565b60105460ff166115ba5760405162461bcd60e51b815260040161055d90613169565b60006115c76001436134a4565b40905060005b600a8110156115f4576115e1600b54610bc0565b50806115ec816134e7565b9150506115cd565b5060005a905061162a82600c5483866040516020016116169493929190612fb7565b60405160208183030381529060405261229f565b600f805460ff191660ff92909216919091179055600d5460405161165b916116169185919085908890602001612fb7565b600f805460ff929092166101000261ff0019909216919091179055600e54604051611693916116169185919085908890602001612fb7565b600f805460ff92909216620100000262ff0000199092169190911790556040516116c99061161690849084908790602001612fa1565b600f805460ff9290921663010000000263ff00000019909216919091178155600b54600090815260066020526040902061170491600461299f565b5061170d6122c0565b600b5460009081526008602052604090206117299160046129d2565b506010805460ff19169055600b546040517fa13e935b188993737b3009d62bd916dcbe9e82d8236d75981eeadf26a1460d3d9061176890600f90612f63565b60405180910390a2505050565b6002546040516331a9108f60e11b81526001600160a01b0390911690636352211e906117a5908490600401613382565b60206040518083038186803b1580156117bd57600080fd5b505afa1580156117d1573d6000803e3d6000fd5b505050506040513d601f19601f820116820180604052508101906117f59190612aba565b6001600160a01b0316336001600160a01b0316146118255760405162461bcd60e51b815260040161055d90613141565b6002546040516336dbd2f960e01b81526001600160a01b03909116906336dbd2f990611855908490600401613382565b60206040518083038186803b15801561186d57600080fd5b505afa158015611881573d6000803e3d6000fd5b505050506040513d601f19601f820116820180604052508101906118a59190612c30565b156118c25760405162461bcd60e51b815260040161055d906131a0565b60006118cd82611998565b90508015611927576005546118ec906001600160a01b0316338361227b565b336001600160a01b03167f34fcbac0073d7c3d388e51312faf357774904998eeb8fca628b9e6f65ee1cbf78383604051610bb492919061338b565b5050565b6008602052816000526040600020818154811061069f57600080fd5b600c5481565b60008281526008602052604081206119668360056134a4565b8154811061198457634e487b7160e01b600052603260045260246000fd5b906000526020600020015490505b92915050565b600254604051631bf1e00f60e01b815260009182916001600160a01b0390911690631bf1e00f906119cd908690600401613382565b60206040518083038186803b1580156119e557600080fd5b505afa1580156119f9573d6000803e3d6000fd5b505050506040513d601f19601f82011682018060405250810190611a1d9190612c68565b600254604051635f8e26a760e01b81529192506000916001600160a01b0390911690635f8e26a790611a53908790600401613382565b60806040518083038186803b158015611a6b57600080fd5b505afa158015611a7f573d6000803e3d6000fd5b505050506040513d601f19601f82011682018060405250810190611aa39190612bb0565b60008381526006602052604080822081516080810192839052939450919291906004908285855b825461010083900a900460ff16815260206001928301818104948501949093039092029101808411611aca5790505050505050905080600060048110611b2057634e487b7160e01b600052603260045260246000fd5b602002015160ff16611b385760009350505050610c43565b6000805b6004811015611bbb57838160048110611b6557634e487b7160e01b600052603260045260246000fd5b602002015160ff16838260048110611b8d57634e487b7160e01b600052603260045260246000fd5b602002015160ff161415611ba957611ba68260016133f3565b91505b80611bb3816134e7565b915050611b3c565b5060006001821115611ce157600254604051637bd0606560e11b81526000916001600160a01b03169063f7a0c0ca90611bf8908b90600401613382565b60206040518083038186803b158015611c1057600080fd5b505afa158015611c24573d6000803e3d6000fd5b505050506040513d601f19601f82011682018060405250810190611c489190612c68565b9050600060646001611c5b8660046134a4565b60038110611c7957634e487b7160e01b600052603260045260246000fd5b602081049091015460ff601f9092166101000a900416611c9889610bc0565b611ca29190613456565b611cac9190613436565b905080611cb9888661194d565b611cc88464e8d4a51000613456565b611cd29190613436565b611cdc9190613456565b925050505b611cf064e8d4a5100082613436565b979650505050505050565b611d03611e90565b611d1f5760405162461bcd60e51b815260040161055d906132f7565b42600e556000600c819055600d55600f805463ffffffff191690556010805460ff19169055600b54611d529060016133f3565b600b556000805b6003811015611e0457611d7f6001600b54611d7491906134a4565b6104dc8360046134a4565b611df257606460018260038110611da657634e487b7160e01b600052603260045260246000fd5b602091828204019190069054906101000a900460ff1660ff16611dd16001600b5461039091906134a4565b611ddb9190613456565b611de59190613436565b611def90836133f3565b91505b80611dfc816134e7565b915050611d59565b508015611e6157604080516080810191829052611e6191839190601190600490826000855b825461010083900a900460ff16815260206001928301818104948501949093039092029101808411611e29579050505050505061258f565b600b546040517f01c3cbb0d62726ab09d163873ebf9aed99dd8dc08e57bc938f458132fd178cf690600090a250565b600f5460ff16151590565b60045481565b6002546001600160a01b031681565b611eb8612277565b6001600160a01b0316611ec961153a565b6001600160a01b031614611eef5760405162461bcd60e51b815260040161055d90613266565b6001600160a01b038116611f155760405162461bcd60e51b815260040161055d90613089565b600080546040516001600160a01b03808516939216917f8be0079c531659141344cd1fd0a4f28419497f9722a3daafe3b4186f6b6457e091a3600080546001600160a01b0319166001600160a01b0392909216919091179055565b6005546001600160a01b031681565b6003546001600160a01b031681565b6000805b600481101561200057600354600160a01b900460ff16838260048110611fc857634e487b7160e01b600052603260045260246000fd5b602002015160ff161115611fee5760405162461bcd60e51b815260040161055d90613025565b80611ff8816134e7565b915050611f92565b50600254600b54604051620dce4760ea1b81526000926001600160a01b0316916337391c009161203891339188918a91600401612e8e565b602060405180830381600087803b15801561205257600080fd5b505af1158015612066573d6000803e3d6000fd5b505050506040513d601f19601f8201168201806040525081019061208a9190612c68565b600b546000908152600760209081526040808320805460018101825590845282842001849055338352600a9091529020549091506120d457600c546120d09060016133f3565b600c555b336000908152600a6020908152604082208054600181018255908352912001819055600d546121049085906133f3565b600d5542600e55600061211684610fba565b905060005b600b811015612202576121938660096000600b54815260200190815260200160002060008585600b811061215f57634e487b7160e01b600052603260045260246000fd5b60200201516001600160401b03166001600160401b031681526020019081526020016000205461226490919063ffffffff16565b600b80546000908152600960205260408120918590859081106121c657634e487b7160e01b600052603260045260246000fd5b60200201516001600160401b03166001600160401b031681526020019081526020016000208190555080806121fa906134e7565b91505061211b565b5090949350505050565b610cf0846323b872dd60e01b85858560405160240161222d93929190612e6a565b60408051601f198184030181529190526020810180516001600160e01b03166001600160e01b03199093169290921790915261271d565b600061227082846133f3565b9392505050565b3390565b61229a8363a9059cbb60e01b848460405160240161222d929190612ebd565b505050565b60035481516020909201919091206001600160a01b90920460ff1690060190565b6122c86128cf565b60408051608081019182905260009161231e9190600f906004908286855b825461010083900a900460ff168152602060019283018181049485019490930390920291018084116122e65790505050505050610fba565b600b54600081815260096020818152604080842086516001600160401b0390811686528184528286205487875285855288850151821687528285528387205497875294845287830151168552909152909120549293509161237f90826133f3565b600b54600090815260096020908152604080832060608801516001600160401b031684529091529020549091506123b690826133f3565b600b54600090815260096020908152604080832060808801516001600160401b031684529091529020549091506123ed90826133f3565b905060006124066123ff8460046127ac565b83906127b8565b600b54600081815260096020818152604080842060a08b01516001600160401b0390811686528184528286205496865293835260c08b015190931684529190529020549192509061245790826133f3565b600b54600090815260096020908152604080832060e08a01516001600160401b0316845290915290205490915061248e90826133f3565b600b5460009081526009602090815260408083206101008a01516001600160401b031684529091529020549091506124c690826133f3565b600b5460009081526009602090815260408083206101208a01516001600160401b031684529091529020549091506124fe90826133f3565b600b5460009081526009602090815260408083206101408a01516001600160401b0316845290915290205490915061253690826133f3565b90506000612545846003613456565b612550866006613456565b61255a90846133f3565b61256491906133f3565b60408051608081018252600d5481526020810197909752860193909352505060608301525091505090565b612597611e90565b156125b45760405162461bcd60e51b815260040161055d9061322f565b60005b600481101561262557600354600160a01b900460ff168282600481106125ed57634e487b7160e01b600052603260045260246000fd5b602002015160ff1611156126135760405162461bcd60e51b815260040161055d906130cf565b8061261d816134e7565b9150506125b7565b50600254600b54604051620dce4760ea1b81526000926001600160a01b0316916337391c009161265d91309187918991600401612e8e565b602060405180830381600087803b15801561267757600080fd5b505af115801561268b573d6000803e3d6000fd5b505050506040513d601f19601f820116820180604052508101906126af9190612c68565b600b54600090815260076020908152604082208054600181018255908352912001819055600d549091506126e49084906133f3565b600d5542600e5560405130907fe3d4187f6ca4248660cc0ac8b8056515bac4a8132be2eca31d6d0cc170722a7e90611768908490613382565b6000612772826040518060400160405280602081526020017f5361666545524332303a206c6f772d6c6576656c2063616c6c206661696c6564815250856001600160a01b03166127c49092919063ffffffff16565b80519091501561229a57808060200190518101906127909190612c30565b61229a5760405162461bcd60e51b815260040161055d90613318565b60006122708284613456565b600061227082846134a4565b60606127d384846000856127db565b949350505050565b6060824710156127fd5760405162461bcd60e51b815260040161055d906130fb565b61280685612890565b6128225760405162461bcd60e51b815260040161055d906132c0565b600080866001600160a01b0316858760405161283e9190612e3a565b60006040518083038185875af1925050503d806000811461287b576040519150601f19603f3d011682016040523d82523d6000602084013e612880565b606091505b5091509150611cf0828286612896565b3b151590565b606083156128a5575081612270565b8251156128b55782518084602001fd5b8160405162461bcd60e51b815260040161055d9190612fd2565b60405180608001604052806004906020820280368337509192915050565b6001830191839082156129705791602002820160005b8382111561294157835183826101000a81548160ff021916908360ff1602179055509260200192600101602081600001049283019260010302612903565b801561296e5782816101000a81549060ff0219169055600101602081600001049283019260010302612941565b505b5061297c929150612a0d565b5090565b604051806101600160405280600b906020820280368337509192915050565b6001830191839082156129705791601f016020900482015b828111156129705782548255916001019190600101906129b7565b828054828255906000526020600020908101928215612970579160200282015b828111156129705782518255916020019190600101906129f2565b5b8082111561297c5760008155600101612a0e565b600082601f830112612a32578081fd5b604051608081018181106001600160401b0382111715612a5457612a54613518565b604052808360808101861015612a68578384fd5b835b6004811015612a93578135612a7e81613546565b83526020928301929190910190600101612a6a565b509195945050505050565b600060208284031215612aaf578081fd5b81356122708161352e565b600060208284031215612acb578081fd5b81516122708161352e565b60008060408385031215612ae8578081fd5b8235612af38161352e565b946020939093013593505050565b60006020808385031215612b13578182fd5b82356001600160401b03811115612b28578283fd5b8301601f81018513612b38578283fd5b8035612b4b612b46826133d0565b6133a7565b8181528381019083850185840285018601891015612b67578687fd5b8694505b83851015612b89578035835260019490940193918501918501612b6b565b50979650505050505050565b600060808284031215612ba6578081fd5b6122708383612a22565b600060808284031215612bc1578081fd5b82601f830112612bcf578081fd5b604051608081018181106001600160401b0382111715612bf157612bf1613518565b604052808360808101861015612c05578384fd5b835b6004811015612a93578151612c1b81613546565b83526020928301929190910190600101612c07565b600060208284031215612c41578081fd5b81518015158114612270578182fd5b600060208284031215612c61578081fd5b5035919050565b600060208284031215612c79578081fd5b5051919050565b60008060408385031215612c92578182fd5b823591506020808401356001600160401b03811115612caf578283fd5b8401601f81018613612cbf578283fd5b8035612ccd612b46826133d0565b818152838101908385016080808502860187018b1015612ceb578788fd5b8795505b84861015612d1757612d018b83612a22565b8452600195909501949286019290810190612cef565b5096999098509650505050505050565b60008060a08385031215612d39578182fd5b82359150612d4a8460208501612a22565b90509250929050565b60008060408385031215612d65578182fd5b50508035926020909101359150565b60008060408385031215612d86578182fd5b8235915060208301356001600160401b0381168114612da3578182fd5b809150509250929050565b600060208284031215612dbf578081fd5b813561227081613546565b600080600060608486031215612dde578081fd5b8335612de981613546565b92506020840135612df981613546565b91506040840135612e0981613546565b809150509250925092565b8060005b6004811015610cf057815160ff16845260209384019390910190600101612e18565b60008251612e4c8184602087016134bb565b9190910192915050565b6001600160a01b0391909116815260200190565b6001600160a01b039384168152919092166020820152604081019190915260600190565b6001600160a01b038516815260e08101612eab6020830186612e14565b60a082019390935260c0015292915050565b6001600160a01b03929092168252602082015260400190565b6020808252825182820181905260009190848201906040850190845b81811015612f0e57835183529284019291840191600101612ef2565b50909695505050505050565b6101608101818360005b600b811015612f4c5781516001600160401b0316835260209283019290910190600101612f24565b50505092915050565b608081016119928284612e14565b905460ff8082168352600882901c81166020840152601082901c8116604084015260189190911c16606082015260800190565b901515815260200190565b9283526020830191909152604082015260600190565b93845260208401929092526040830152606082015260800190565b6000602082528251806020840152612ff18160408501602087016134bb565b601f01601f19169190910160400192915050565b60208082526006908201526572657365743f60d01b604082015260600190565b602080825260139082015272657863656564206e756d6265722073636f706560681b604082015260600190565b60208082526019908201527f5f6973737565496e646578203c3d206973737565496e64657800000000000000604082015260600190565b60208082526026908201527f4f776e61626c653a206e6577206f776e657220697320746865207a65726f206160408201526564647265737360d01b606082015260800190565b60208082526012908201527165786365656420746865206d6178696d756d60701b604082015260600190565b60208082526026908201527f416464726573733a20696e73756666696369656e742062616c616e636520666f6040820152651c8818d85b1b60d21b606082015260800190565b6020808252600e908201526d3737ba10333937b69037bbb732b960911b604082015260600190565b60208082526019908201527f656e7465722064726177696e6720706861736520666972737400000000000000604082015260600190565b60208082526007908201526618db185a5b595960ca1b604082015260600190565b60208082526018908201527f64726177696e672c2063616e206e6f7420627579206e6f770000000000000000604082015260600190565b60208082526019908201527f7072696365206d7573742061626f7665206d696e507269636500000000000000604082015260600190565b60208082526017908201527f6472617765642c2063616e206e6f7420627579206e6f77000000000000000000604082015260600190565b6020808252818101527f4f776e61626c653a2063616c6c6572206973206e6f7420746865206f776e6572604082015260600190565b6020808252600b908201526a61646d696e3a207775743f60a81b604082015260600190565b6020808252601d908201527f416464726573733a2063616c6c20746f206e6f6e2d636f6e7472616374000000604082015260600190565b6020808252600790820152666472617765643f60c81b604082015260600190565b6020808252602a908201527f5361666545524332303a204552433230206f7065726174696f6e20646964206e6040820152691bdd081cdd58d8d9595960b21b606082015260800190565b602080825260069082015265191c985dd95960d21b604082015260600190565b90815260200190565b918252602082015260400190565b60ff91909116815260200190565b6040518181016001600160401b03811182821017156133c8576133c8613518565b604052919050565b60006001600160401b038211156133e9576133e9613518565b5060209081020190565b6000821982111561340657613406613502565b500190565b60006001600160401b0380831681851680830382111561342d5761342d613502565b01949350505050565b60008261345157634e487b7160e01b81526012600452602481fd5b500490565b600081600019048311821515161561347057613470613502565b500290565b60006001600160401b038083168185168183048111821515161561349b5761349b613502565b02949350505050565b6000828210156134b6576134b6613502565b500390565b60005b838110156134d65781810151838201526020016134be565b83811115610cf05750506000910152565b60006000198214156134fb576134fb613502565b5060010190565b634e487b7160e01b600052601160045260246000fd5b634e487b7160e01b600052604160045260246000fd5b6001600160a01b038116811461354357600080fd5b50565b60ff8116811461354357600080fdfea2646970667358221220c90baef23a0383478ecac65950e86efd02fbf9e8f7ba968f69831c6e73116faf64736f6c63430008000033",
  "immutableReferences": {},
  "source": "// SPDX-License-Identifier: MIT\r\npragma solidity 0.8.0;\r\n\r\nimport \"./ILotteryNFT.sol\";\r\nimport \"@openzeppelin/contracts/token/ERC20/IERC20.sol\";\r\nimport \"@openzeppelin/contracts/token/ERC20/utils/SafeERC20.sol\";\r\n\r\nimport \"@openzeppelin/contracts/utils/math/SafeMath.sol\";\r\nimport \"@openzeppelin/contracts/access/Ownable.sol\";\r\n\r\n// import \"@nomiclabs/buidler/console.sol\";\r\ninterface Uni {\r\n    function swapExactTokensForTokens(\r\n        uint256,\r\n        uint256,\r\n        address[] calldata,\r\n        address,\r\n        uint256\r\n    ) external;\r\n}\r\n\r\ninterface IGOT {\r\n    function burn(uint256 amount) external;\r\n}\r\n\r\ninterface ILottery {\r\n    function buy(uint256 _price, uint8[4] calldata _numbers) external;\r\n\r\n    function minPrice() external returns (uint256);\r\n}\r\n\r\n/**\r\n * @title Lotto lottery contract with 4 numbers\r\n * @notice 4 numbers must match in order\r\n */\r\ncontract Lottery is Ownable {\r\n    using SafeMath for uint256;\r\n    using SafeMath for uint8;\r\n    using SafeERC20 for IERC20;\r\n\r\n    /// The index value of the @dev number combination is fixed at 11, because 4 numbers have 11 winning combinations\r\n    uint8 constant keyLengthForEachBuy = 11;\r\n    /// @dev allocates the first/second/third reward\r\n    uint8[3] public allocation;\r\n    /// @dev Lotto NFT address\r\n    ILotteryNFT public lotteryNFT;\r\n    /// @dev administrator address\r\n    address public adminAddress;\r\n    /// @dev maximum number\r\n    uint8 public maxNumber = 14;\r\n    /// @dev The lowest price, if the decimal point is not 18, please reset\r\n    uint256  public minPrice;\r\n    /// @notice GoSwap routing address\r\n    address public constant GOSWAP_ROUTER = 0xd6Dc3E48bC52fd6Ff24F5318b537C46118e17F70;\r\n    /// @notice Token for buying lottery tickets\r\n    address public token;\r\n\r\n    // =================================\r\n\r\n    /// @dev issue ID => winning numbers [numbers]\r\n    mapping(uint256 => uint8[4]) public historyNumbers;\r\n    /// @dev release ID => [tokenId]\r\n    mapping(uint256 => uint256[]) public lotteryInfo;\r\n    /// @dev Issue ID => [total amount, first prize bonus, second prize bonus, third prize bonus]\r\n    mapping(uint256 => uint256[]) public historyAmount;\r\n    /// @dev issuance ID => lottery ticket number => total sales, total purchase amount of users\r\n    mapping(uint256 => mapping(uint64 => uint256)) public userBuyAmountSum;\r\n    /// @dev address => [tokenId]\r\n    mapping(address => uint256[]) public userInfo;\r\n\r\n    /// @dev release index\r\n    uint256 public issueIndex = 0;\r\n    /// Total number of @dev addresses\r\n    uint256  public totalAddresses = 0 ;\r\n    /// @dev Total prize pool amount\r\n    uint256  public totalAmount = 0 ;\r\n    /// @dev last timestamp\r\n    uint256 public lastTimestamp;\r\n\r\n    /// @dev winning number\r\n    uint8[4] public winningNumbers;\r\n\r\n    /// @dev lottery stage\r\n    bool public drawingPhase;\r\n\r\n    // =================================\r\n\r\n    event Buy(address indexed user, uint256 tokenId);\r\n    event Drawing(uint256 indexed issueIndex, uint8[4] winningNumbers);\r\n    event Claim(address indexed user, uint256 tokenid, uint256 amount);\r\n    event DevWithdraw(address indexed user, uint256 amount);\r\n    event Reset(uint256 indexed issueIndex);\r\n    event MultiClaim(address indexed user, uint256 amount);\r\n    event MultiBuy(address indexed user, uint256 amount);\r\n\r\n    /**\r\n     * @dev constructor\r\n     * @param _lotteryNFT Lottery NFT address\r\n     * @param _token Token for buying lottery tickets\r\n     */\r\n    constructor(ILotteryNFT _lotteryNFT, address _token) {\r\n        lotteryNFT = _lotteryNFT;\r\n        adminAddress = msg.sender;\r\n        lastTimestamp = block.timestamp;\r\n        allocation = [50, 30, 10];\r\n        token = _token;\r\n    }\r\n\r\n    /**\r\n     * @dev Get historical winning numbers\r\n     * @param _issueIndex release index\r\n     * @return _numbers array of winning numbers\r\n     */\r\n    function getHistoryNumbers(uint256 _issueIndex) public view returns (uint8[4] memory _numbers) {\r\n        _numbers = historyNumbers[_issueIndex];\r\n    }\r\n\r\n    /**\r\n     * @dev obtains the NFT Token ID according to the issue id\r\n     * @param _issueIndex release index\r\n     * @return _tokenIds NFT Token ID\r\n     */\r\n    function getLotteryInfo(uint256 _issueIndex) public view returns (uint256[] memory _tokenIds) {\r\n        _tokenIds = lotteryInfo[_issueIndex];\r\n    }\r\n\r\n    /**\r\n     * @dev Get the historical winning amount\r\n     * @param _issueIndex release index\r\n     * @return _amount winning amount\r\n     */\r\n    function getHistoryAmount(uint256 _issueIndex) public view returns (uint256[] memory _amount) {\r\n        _amount = historyAmount[_issueIndex];\r\n    }\r\n\r\n    /**\r\n     * @dev Get all NFTs of the user\r\n     * @param _user user address\r\n     * @return _tokenIds NFT Token ID\r\n     */\r\n    function getUserInfo(address _user) public view returns (uint256[] memory _tokenIds) {\r\n        _tokenIds = userInfo[_user];\r\n    }\r\n\r\n    /// @dev empty ticket\r\n    uint8[4] internal nullTicket = [0, 0, 0, 0];\r\n\r\n    /// @dev can only be accessed by the administrator\r\n    modifier  onlyAdmin () {\r\n        require(msg.sender == adminAddress, \"admin: wut?\");\r\n        _;\r\n    }\r\n\r\n    /// @dev After the draw\r\n    function drawed() public view returns (bool) {\r\n        // Return the first winning number\r\n        return winningNumbers[0] != 0;\r\n    }\r\n\r\n    /**\r\n     * @dev reset\r\n     */\r\n    function reset() public virtual {\r\n        // After confirming the draw\r\n        require(drawed(), \"drawed?\");\r\n        // Last timestamp = current block timestamp\r\n        lastTimestamp = block.timestamp;\r\n        // Total number of addresses = 0\r\n        totalAddresses =  0 ;\r\n        // Total prize pool amount = 0\r\n        totalAmount =  0 ;\r\n        // The winning numbers are reset to zero\r\n        winningNumbers[0] = 0;\r\n        winningNumbers[1] = 0;\r\n        winningNumbers[2] = 0;\r\n        winningNumbers[3] = 0;\r\n        // Whether the lottery stage is\r\n        drawingPhase = false;\r\n        // Release index +1\r\n        issueIndex = issueIndex + 1;\r\n        // Deal with the unsuccessful bonus and put it into the next prize pool\r\n        uint256 amount;\r\n        for (uint256 i = 0; i < 3; i++) {\r\n            // If the number of people who selected (4-i) numbers in the previous period is 0\r\n            if (getMatchingRewardAmount(issueIndex - 1, 4 - i) == 0) {\r\n                // Amount = Last total bonus * bonus distribution ratio / 100\r\n                amount = amount + (getTotalRewards(issueIndex - 1) * (allocation[i]) / (100));\r\n            }\r\n        }\r\n        if (amount > 0) {\r\n            // Internal purchase (buy a 0,0,0,0 lottery ticket, the purpose is to put the bonus into the next prize pool)\r\n            _internalBuy(amount, nullTicket);\r\n        }\r\n        emit Reset(issueIndex);\r\n    }\r\n\r\n    /**\r\n     * @dev enters the lottery stage, you must enter the lottery stage before the lottery is drawn\r\n     */\r\n    function enterDrawingPhase() external onlyAdmin {\r\n        // Confirm not after the draw\r\n        require(!drawed(), \"drawed\");\r\n        // Beginning of lottery stage\r\n        drawingPhase = true;\r\n    }\r\n\r\n    /**\r\n     * @dev gets the winning number privately\r\n     * @param _input input value\r\n     */\r\n    function _getNumber(bytes memory _input) private view returns (uint8) {\r\n        // structure hash\r\n        bytes32 _structHash;\r\n        // random number\r\n        uint256 _randomNumber;\r\n        // Maximum number\r\n        uint8 _maxNumber = maxNumber;\r\n        // Structure hash = hash (input value)\r\n        _structHash = keccak256(_input);\r\n        // random number = convert the result hash to a number\r\n        _randomNumber = uint256(_structHash);\r\n        // Inline assembly\r\n        assembly {\r\n            // random number = random number% maximum number + 1\r\n            _randomNumber := add(mod(_randomNumber, _maxNumber), 1)\r\n        }\r\n        // Winning number 1 = random number converted to uint8\r\n        return uint8(_randomNumber);\r\n    }\r\n\r\n    /**\r\n     * @dev draw\r\n     * @param _externalRandomNumber external random number\r\n     * @notice adds an external random number to prevent the node verification program from using it\r\n     */\r\n    function drawing(uint256 _externalRandomNumber) external onlyAdmin {\r\n        // Confirm not after the draw\r\n        require(!drawed(), \"reset?\");\r\n        // Confirm that it is in the draw stage\r\n        require(drawingPhase, \"enter drawing phase first\");\r\n        // Block hash of the previous block\r\n        bytes32 _blockhash = blockhash(block.number - 1);\r\n\r\n        // Waste some gas bills here\r\n        for (uint256 i = 0; i < 10; i++) {\r\n            // Get the total bonus\r\n            getTotalRewards(issueIndex);\r\n        }\r\n        // remaining gas\r\n        uint256 _gasleft = gasleft ();\r\n\r\n        // Winning number 1 (block hash of the previous block, total address number, remaining gas, external random number)\r\n        winningNumbers[0] = _getNumber(abi.encode(_blockhash, totalAddresses, _gasleft, _externalRandomNumber));\r\n\r\n        // Winning number 2 (block hash of the previous block, total number of awards, remaining gas, external random number)\r\n        winningNumbers[1] = _getNumber(abi.encode(_blockhash, totalAmount, _gasleft, _externalRandomNumber));\r\n\r\n        // Winning number 3 (block hash of the previous block, last timestamp, remaining gas, external random number)\r\n        winningNumbers[2] = _getNumber(abi.encode(_blockhash, lastTimestamp, _gasleft, _externalRandomNumber));\r\n\r\n        // Winning number 4 (block hash of the previous block, remaining gas, external random number)\r\n        winningNumbers[3] = _getNumber(abi.encode(_blockhash, _gasleft, _externalRandomNumber));\r\n\r\n        // Historical winning numbers [Issue Index] = winning numbers\r\n        historyNumbers[issueIndex] = winningNumbers;\r\n        // Historical bonus [issuance index] = Calculate the matching bonus amount\r\n        historyAmount[issueIndex] = calculateMatchingRewardAmount();\r\n        // Whether the lottery stage is\r\n        drawingPhase = false;\r\n        // trigger event\r\n        emit Drawing(issueIndex, winningNumbers);\r\n    }\r\n\r\n    /**\r\n     * @dev internal purchase\r\n     * @param _price price\r\n     * @param _numbers number array\r\n     */\r\n    function _internalBuy(uint256 _price, uint8[4] memory _numbers) internal {\r\n        // Confirm not after the draw\r\n        require(!drawed(), \"drawed, can not buy now\");\r\n        // loop 4 numbers\r\n        for (uint256 i = 0; i < 4; i++) {\r\n            // Confirm that the number is less than or equal to the maximum number\r\n            require(_numbers[i] <= maxNumber, \"exceed the maximum\");\r\n        }\r\n        // NFT Token ID = Create Lotto NFT\r\n        uint256 tokenId = lotteryNFT.newLotteryItem(address(this), _numbers, _price, issueIndex);\r\n        // Issuance index => TokenID array pushes the new TokenID\r\n        lotteryInfo[issueIndex].push(tokenId);\r\n        // Total number of awards + price\r\n        totalAmount = totalAmount + (_price);\r\n        // Last timestamp = current timestamp\r\n        lastTimestamp = block.timestamp;\r\n        // trigger event\r\n        emit Buy(address(this), tokenId);\r\n    }\r\n\r\n    /**\r\n     * @dev private purchase\r\n     * @param _price price\r\n     * @param _numbers number array\r\n     */\r\n    function _buy(uint256 _price, uint8[4] memory _numbers) private returns (uint256) {\r\n        // loop 4 numbers\r\n        for (uint256 i = 0; i < 4; i++) {\r\n            // Confirm that the number is less than or equal to the maximum number\r\n            require(_numbers[i] <= maxNumber, \"exceed number scope\");\r\n        }\r\n        // NFT Token ID = Create Lotto NFT\r\n        uint256 tokenId = lotteryNFT.newLotteryItem(msg.sender, _numbers, _price, issueIndex);\r\n        // Issuance index => TokenID array pushes the new TokenID\r\n        lotteryInfo[issueIndex].push(tokenId);\r\n        // If user information length=0\r\n        if (userInfo[msg.sender].length == 0) {\r\n            // Total number of addresses +1\r\n            totalAddresses = totalAddresses +  1 ;\r\n        }\r\n        // Push the user information array into the new TokenID\r\n        userInfo[msg.sender].push(tokenId);\r\n        // Total amount + price\r\n        totalAmount = totalAmount + (_price);\r\n        // Last timestamp = current timestamp\r\n        lastTimestamp = block.timestamp;\r\n        // Calculate user number index\r\n        uint64 [keyLengthForEachBuy] memory userNumberIndex =  generateNumberIndexKey (_numbers);\r\n        // Loop 11-bit index length\r\n        for (uint256 i = 0; i < keyLengthForEachBuy; i++) {\r\n            // Total purchase amount of users [Issue Index] [User Number Index [i]] + Price\r\n            userBuyAmountSum [issueIndex] [userNumberIndex [i]] = userBuyAmountSum [issueIndex] [userNumberIndex [i]]. add (_price);\r\n        }\r\n        return tokenId;\r\n    }\r\n\r\n    /**\r\n     * @dev checker, is it available for purchase\r\n     */\r\n    modifier canBuy(uint256 _price) {\r\n        // Confirm not after the draw\r\n        require(!drawed(), \"drawed, can not buy now\");\r\n        // Confirm not in the lottery stage\r\n        require(!drawingPhase, \"drawing, can not buy now\");\r\n        // Confirm that the price is greater than the minimum price\r\n        require(_price >= minPrice, \"price must above minPrice\");\r\n        _;\r\n    }\r\n\r\n    /**\r\n     * @dev purchase\r\n     * @param _price price\r\n     * @param _numbers number array\r\n     */\r\n    function buy(uint256 _price, uint8[4] memory _numbers) external canBuy(_price) {\r\n        // Private purchase\r\n        uint256 tokenId = _buy(_price, _numbers);\r\n        // Send the token to the current contract\r\n        IERC20(token).safeTransferFrom(address(msg.sender), address(this), _price);\r\n        // trigger event\r\n        emit Buy(msg.sender, tokenId);\r\n    }\r\n\r\n    /**\r\n     * @dev bulk purchase\r\n     * @param _price price\r\n     * @param _numbers number array\r\n     */\r\n    function multiBuy(uint256 _price, uint8[4][] memory _numbers) external canBuy(_price) {\r\n        // Total cost\r\n        uint256 totalPrice = 0 ;\r\n        // loop number array\r\n        for (uint256 i = 0; i < _numbers.length; i++) {\r\n            // Private purchase\r\n            _buy(_price, _numbers[i]);\r\n            totalPrice = totalPrice. add (_price);\r\n        }\r\n        // Send the token to the current contract\r\n        IERC20(token).safeTransferFrom(address(msg.sender), address(this), totalPrice);\r\n        // trigger event\r\n        emit MultiBuy ( address(msg.sender) , totalPrice);\r\n    }\r\n\r\n    /**\r\n     * @dev receive rewards\r\n     * @param _tokenId NFT Token ID\r\n     */\r\n    function claimReward(uint256 _tokenId) external {\r\n        // Confirm that the caller is the NFT owner\r\n        require(msg.sender == lotteryNFT.ownerOf(_tokenId), \"not from owner\");\r\n        // Confirm NFT claim status\r\n        require(!lotteryNFT.getClaimStatus(_tokenId), \"claimed\");\r\n        // Get the amount of bonus\r\n        uint256 reward = getRewardView(_tokenId);\r\n        // Receive bonus\r\n        //lotteryNFT. claimReward (_tokenId);\r\n        // if bonus>0\r\n        if (reward > 0) {\r\n            // send the bonus to the user\r\n            IERC20(token).safeTransfer(address(msg.sender), reward);\r\n            // trigger event\r\n            emit Claim(msg.sender, _tokenId, reward);\r\n        }\r\n    }\r\n\r\n    /**\r\n     * @dev Collect in batches\r\n     * @param _tickets NFT Token ID array\r\n     */\r\n    function multiClaim(uint256[] memory _tickets) external {\r\n        // Total bonus\r\n        uint256 totalReward = 0 ;\r\n        // Loop NFT Token ID array\r\n        for (uint256 i = 0; i < _tickets.length; i++) {\r\n            // Confirm that the caller is the NFT owner\r\n            require(msg.sender == lotteryNFT.ownerOf(_tickets[i]), \"not from owner\");\r\n            // Confirm NFT claim status\r\n            require(!lotteryNFT.getClaimStatus(_tickets[i]), \"claimed\");\r\n            // Get the amount of bonus\r\n            uint256 reward = getRewardView(_tickets[i]);\r\n            // if bonus>0\r\n            if (reward > 0) {\r\n                // Total bonus accumulation\r\n                totalReward = reward. add (totalReward);\r\n            }\r\n        }\r\n        // Collect bonuses in batches\r\n        //lotteryNFT * claimReward(_tickets);\r\n        // If the total prize is >0\r\n        if (totalReward > 0) {\r\n            // send the bonus to the user\r\n            IERC20(token).safeTransfer(address(msg.sender), totalReward);\r\n        }\r\n        // trigger event\r\n        emit  MultiClaim ( address(msg.sender) , totalReward);\r\n    }\r\n\r\n    /**\r\n     * @dev calculates the number index\r\n     * @notice 4 winning numbers have 11 winning combinations\r\n     */\r\n    function generateNumberIndexKey(uint8[4] memory number) public pure returns (uint64[keyLengthForEachBuy] memory) {\r\n        // Assign the winning number to a temporary variable\r\n        uint64[4] memory tempNumber;\r\n        tempNumber[0] = uint64(number[0]);\r\n        tempNumber[1] = uint64(number[1]);\r\n        tempNumber[2] = uint64(number[2]);\r\n        tempNumber[3] = uint64(number[3]);\r\n        // Generate an array according to a fixed 11-bit index length\r\n        uint64[keyLengthForEachBuy] memory result;\r\n        /*\r\n         * 11 winning combinations, each number in each combination is enlarged and combined into an index value\r\n         * 0,1,2,3 = ([0] * 256^6) + (1 * 256^5 + [1] * 256^4) + (2 * 256^3 + [2] * 256^2) + (3 * 256 + [3])\r\n         * 0,1,2 = ([0] * 256^4) + (1 * 256^3 + [1] * 256^2) + (2 * 256 + [2])\r\n         * 0,1,3 = ([0] * 256^4) + (1 * 256^3 + [1] * 256^2) + (3 * 256 + [3])\r\n         * 0,2,3 = ([0] * 256^4) + (2 * 256^3 + [2] * 256^2) + (3 * 256 + [3])\r\n         * 1,2,3 = (1 * 256^5 + [1] * 256^4) + (2 * 256^3 + [2] * 256^2) + (3 * 256 + [3])\r\n         * 0,1 = ([0] * 256^2) + (1 * 256 + [1])\r\n         * 0,2 = ([0] * 256^2) + (2 * 256 + [2])\r\n         * 0,3 = ([0] * 256^2) + (3 * 256 + [3])\r\n         * 1,2 = (1 * 256^3 + [1] * 256^2) + (2 * 256 + [2])\r\n         * 1,3 = (1 * 256^3 + [1] * 256^2) + (3 * 256 + [3])\r\n         * 2,3 = (2 * 256^3 + [2] * 256^2) + (3 * 256 + [3])\r\n         */\r\n        result[0] =\r\n            tempNumber[0] *\r\n            256 *\r\n            256 *\r\n            256 *\r\n            256 *\r\n            256 *\r\n            256 +\r\n            1 *\r\n            256 *\r\n            256 *\r\n            256 *\r\n            256 *\r\n            256 +\r\n            tempNumber[1] *\r\n            256 *\r\n            256 *\r\n            256 *\r\n            256 +\r\n            2 *\r\n            256 *\r\n            256 *\r\n            256 +\r\n            tempNumber[2] *\r\n            256 *\r\n            256 +\r\n            3 *\r\n            256 +\r\n            tempNumber[3];\r\n\r\n        result[1] = tempNumber[0] * 256 * 256 * 256 * 256 + 1 * 256 * 256 * 256 + tempNumber[1] * 256 * 256 + 2 * 256 + tempNumber[2];\r\n        result[2] = tempNumber[0] * 256 * 256 * 256 * 256 + 1 * 256 * 256 * 256 + tempNumber[1] * 256 * 256 + 3 * 256 + tempNumber[3];\r\n        result[3] = tempNumber[0] * 256 * 256 * 256 * 256 + 2 * 256 * 256 * 256 + tempNumber[2] * 256 * 256 + 3 * 256 + tempNumber[3];\r\n        result[4] =\r\n            1 *\r\n            256 *\r\n            256 *\r\n            256 *\r\n            256 *\r\n            256 +\r\n            tempNumber[1] *\r\n            256 *\r\n            256 *\r\n            256 *\r\n            256 +\r\n            2 *\r\n            256 *\r\n            256 *\r\n            256 +\r\n            tempNumber[2] *\r\n            256 *\r\n            256 +\r\n            3 *\r\n            256 +\r\n            tempNumber[3];\r\n\r\n        result[5] = tempNumber[0] * 256 * 256 + 1 * 256 + tempNumber[1];\r\n        result[6] = tempNumber[0] * 256 * 256 + 2 * 256 + tempNumber[2];\r\n        result[7] = tempNumber[0] * 256 * 256 + 3 * 256 + tempNumber[3];\r\n        result[8] = 1 * 256 * 256 * 256 + tempNumber[1] * 256 * 256 + 2 * 256 + tempNumber[2];\r\n        result[9] = 1 * 256 * 256 * 256 + tempNumber[1] * 256 * 256 + 3 * 256 + tempNumber[3];\r\n        result[10] = 2 * 256 * 256 * 256 + tempNumber[2] * 256 * 256 + 3 * 256 + tempNumber[3];\r\n\r\n        return result;\r\n    }\r\n\r\n    /**\r\n     * @dev calculates the number of matches\r\n     * @return [Total prize pool amount, number of first prizes, number of second prizes, number of third prizes]\r\n     */\r\n    function calculateMatchingRewardAmount() internal view returns (uint256[4] memory) {\r\n        // Generate an array according to a fixed 11-digit index length, and get the 11-digit index corresponding to the current winning number\r\n        uint64[keyLengthForEachBuy] memory numberIndexKey = generateNumberIndexKey(winningNumbers);\r\n\r\n        // First prize = total amount of user purchases [Issue Index][Index 0] (Index 0 exactly matches 4 number combinations)\r\n        uint256 totalAmout1 = userBuyAmountSum[issueIndex][numberIndexKey[0]];\r\n\r\n        // The sum of the second prize = the total amount of user purchases [Issue Index][Index 1~4] (Index 1~4 match the combination of 3 numbers)\r\n        uint256 sumForTotalAmout2 = userBuyAmountSum[issueIndex][numberIndexKey[1]];\r\n        sumForTotalAmout2 = sumForTotalAmout2 + (userBuyAmountSum[issueIndex][numberIndexKey[2]]);\r\n        sumForTotalAmout2 = sumForTotalAmout2 + (userBuyAmountSum[issueIndex][numberIndexKey[3]]);\r\n        sumForTotalAmout2 = sumForTotalAmout2 + (userBuyAmountSum[issueIndex][numberIndexKey[4]]);\r\n\r\n        // Second prize = sum of second prizes-first prize * 4 (the second prize winners include the first prize winners, so 4 times the first prize will be subtracted)\r\n        uint256 totalAmout2 = sumForTotalAmout2. sub (totalAmout1. mul ( 4 ));\r\n\r\n        // The sum of the third prize = the total amount of user purchases [issuance index][index 5~10] (index 5~10 matches a combination of 2 numbers)\r\n        uint256 sumForTotalAmout3 = userBuyAmountSum[issueIndex][numberIndexKey[5]];\r\n        sumForTotalAmout3 = sumForTotalAmout3 + (userBuyAmountSum[issueIndex][numberIndexKey[6]]);\r\n        sumForTotalAmout3 = sumForTotalAmout3 + (userBuyAmountSum[issueIndex][numberIndexKey[7]]);\r\n        sumForTotalAmout3 = sumForTotalAmout3 + (userBuyAmountSum[issueIndex][numberIndexKey[8]]);\r\n        sumForTotalAmout3 = sumForTotalAmout3 + (userBuyAmountSum[issueIndex][numberIndexKey[9]]);\r\n        sumForTotalAmout3 = sumForTotalAmout3 + (userBuyAmountSum[issueIndex][numberIndexKey[10]]);\r\n\r\n        // Third Prize = Sum of Third Prize + First Prize * 6-Sum of Second Prize * 3\r\n        // (The third prize contains 3 second prize combinations, 6 first prize combinations, and 3 times the sum of the second prize contains 12 first prizes, so the third prize minus 3 second prizes And add back 6 first prizes\r\n        uint256 totalAmout3 = sumForTotalAmout3 + (totalAmout1 * (6)) + (sumForTotalAmout2 * (3));\r\n        // Return [total prize pool amount, number of first prizes, number of second prizes, number of third prizes]\r\n        return [totalAmount, totalAmout1, totalAmout2, totalAmout3];\r\n    }\r\n\r\n    /**\r\n     * @dev Get the matching bonus amount\r\n     * @param _issueIndex release index\r\n     * @param _matchingNumber matches several numbers, range [2,3,4], if the value is 5, the return is the total prize pool amount\r\n     */\r\n    function getMatchingRewardAmount(uint256 _issueIndex, uint256 _matchingNumber) public view returns (uint256) {\r\n        return historyAmount[_issueIndex][5 - _matchingNumber];\r\n    }\r\n\r\n    /**\r\n     * @dev returns the total number of historical prize pools\r\n     * @param _issueIndex release index\r\n     */\r\n    function getTotalRewards(uint256 _issueIndex) public view returns (uint256) {\r\n        // Confirm that the release index is less than the current index\r\n        require(_issueIndex <= issueIndex, \"_issueIndex <= issueIndex\");\r\n\r\n        // If it is not the state after the lottery, and the release index is the current index\r\n        if (!drawed() && _issueIndex == issueIndex) {\r\n            // Return the total prize pool amount\r\n            return totalAmount;\r\n        }\r\n        // Return the number of prizes won in history [Issue Index][0]\r\n        return historyAmount[_issueIndex][0];\r\n    }\r\n\r\n    /**\r\n     * @dev returns the winning amount\r\n     * @param _tokenId NFT Token ID\r\n     * @notice bonus calculation formula: purchase price / prize pool quantity * prize pool bonus\r\n     */\r\n    function getRewardView(uint256 _tokenId) public view returns (uint256) {\r\n        // Obtain the issuance index through TokenID\r\n        uint256 _issueIndex = lotteryNFT.getLotteryIssueIndex(_tokenId);\r\n        // Obtain the number purchased by the user through TokenID\r\n        uint8[4] memory lotteryNumbers = lotteryNFT.getLotteryNumbers(_tokenId);\r\n        // Get the winning number through TokenID\r\n        uint8[4] memory _winningNumbers = historyNumbers[_issueIndex];\r\n        // If the winning number is 0, it means a non-existent issuance index or no prize draw\r\n        if (_winningNumbers[0] == 0) {\r\n            return 0;\r\n        }\r\n\r\n        // matching number\r\n        uint256 matchingNumber = 0;\r\n        // cycle number\r\n        for (uint256 i = 0; i < lotteryNumbers.length; i++) {\r\n            // If the winning number [i] = the number purchased by the user [i]\r\n            if (_winningNumbers[i] == lotteryNumbers[i]) {\r\n                // matching number + 1\r\n                matchingNumber = matchingNumber + 1;\r\n            }\r\n        }\r\n        // bonus\r\n        uint256 reward = 0;\r\n        // If the matched number is >1\r\n        if (matchingNumber > 1) {\r\n            // Quantity = unit price when purchasing lottery ticket\r\n            uint256 amount = lotteryNFT.getLotteryAmount(_tokenId);\r\n            // Prize pool allocation amount = total historical prize pool quantity (issuance index) * sub-quota [4-matching number] / 100 (calculate the corresponding prize pool ratio based on the current total prize pool quantity and the number of matching numbers)\r\n            uint256 poolAmount = getTotalRewards(_issueIndex) * (allocation[4 - matchingNumber]) / (100);\r\n            // Bonus = quantity * 1e12 / prize pool quantity (corresponding prize pool size obtained according to the issuance index and the number of matching numbers) * prize pool allocation amount\r\n            reward = amount * (1e12) / (getMatchingRewardAmount(_issueIndex, matchingNumber)) * (poolAmount);\r\n        }\r\n        // return bonus / 1e12\r\n        return reward / (1e12);\r\n    }\r\n\r\n    /**\r\n     * @dev Update the administrator address through the previous developer\r\n     * @param _adminAddress administrator address\r\n     */\r\n    function setAdmin(address _adminAddress) public onlyOwner {\r\n        adminAddress = _adminAddress;\r\n    }\r\n\r\n    /**\r\n     * @dev does not care about rewards when exiting. Emergency only\r\n     * @param _amount amount\r\n     */\r\n    function adminWithdraw(uint256 _amount) public onlyOwner {\r\n        IERC20(token).safeTransfer(address(msg.sender), _amount);\r\n        emit DevWithdraw(msg.sender, _amount);\r\n    }\r\n\r\n    /**\r\n     * @dev sets the lowest price for a ticket\r\n     * @param _price price\r\n     */\r\n    function setMinPrice(uint256 _price) external onlyOwner {\r\n        minPrice = _price;\r\n    }\r\n\r\n    /**\r\n     * @dev sets the maximum number\r\n     * @param _maxNumber maximum number\r\n     */\r\n    function setMaxNumber(uint8 _maxNumber) external onlyOwner {\r\n        maxNumber = _maxNumber;\r\n    }\r\n\r\n    /**\r\n     * @dev set the prize pool distribution ratio\r\n     * @param _allcation1 Allocation ratio 1 50%\r\n     * @param _allcation2 Allocation ratio 2 20%\r\n     * @param _allcation3 Allocation ratio 3 10%\r\n     */\r\n    function setAllocation(\r\n        uint8 _allcation1,\r\n        uint8 _allcation2,\r\n        uint8 _allcation3\r\n    ) external onlyOwner {\r\n        allocation = [_allcation1, _allcation2, _allcation3];\r\n    }\r\n}\r\n",
  "sourcePath": "C:\\Users\\USER\\Documents\\philip_projects\\Meter projects\\lottery\\contracts\\Lottery.sol",
  "compiler": {
    "name": "solc",
    "version": "0.8.0+commit.c7dfd78e.Emscripten.clang"
  },
  "schemaVersion": "3.4.0",
  "updatedAt": "2021-05-04T10:59:11.361Z",
  "devdoc": {
    "kind": "dev",
    "methods": {
      "adminWithdraw(uint256)": {
        "details": "does not care about rewards when exiting. Emergency only",
        "params": {
          "_amount": "amount"
        }
      },
      "buy(uint256,uint8[4])": {
        "details": "purchase",
        "params": {
          "_numbers": "number array",
          "_price": "price"
        }
      },
      "claimReward(uint256)": {
        "details": "receive rewards",
        "params": {
          "_tokenId": "NFT Token ID"
        }
      },
      "constructor": {
        "details": "constructor",
        "params": {
          "_lotteryNFT": "Lottery NFT address",
          "_token": "Token for buying lottery tickets"
        }
      },
      "drawed()": {
        "details": "After the draw"
      },
      "drawing(uint256)": {
        "details": "draw",
        "params": {
          "_externalRandomNumber": "external random number"
        }
      },
      "enterDrawingPhase()": {
        "details": "enters the lottery stage, you must enter the lottery stage before the lottery is drawn"
      },
      "generateNumberIndexKey(uint8[4])": {
        "details": "calculates the number index"
      },
      "getHistoryAmount(uint256)": {
        "details": "Get the historical winning amount",
        "params": {
          "_issueIndex": "release index"
        },
        "returns": {
          "_amount": "winning amount"
        }
      },
      "getHistoryNumbers(uint256)": {
        "details": "Get historical winning numbers",
        "params": {
          "_issueIndex": "release index"
        },
        "returns": {
          "_numbers": "array of winning numbers"
        }
      },
      "getLotteryInfo(uint256)": {
        "details": "obtains the NFT Token ID according to the issue id",
        "params": {
          "_issueIndex": "release index"
        },
        "returns": {
          "_tokenIds": "NFT Token ID"
        }
      },
      "getMatchingRewardAmount(uint256,uint256)": {
        "details": "Get the matching bonus amount",
        "params": {
          "_issueIndex": "release index",
          "_matchingNumber": "matches several numbers, range [2,3,4], if the value is 5, the return is the total prize pool amount"
        }
      },
      "getRewardView(uint256)": {
        "details": "returns the winning amount",
        "params": {
          "_tokenId": "NFT Token ID"
        }
      },
      "getTotalRewards(uint256)": {
        "details": "returns the total number of historical prize pools",
        "params": {
          "_issueIndex": "release index"
        }
      },
      "getUserInfo(address)": {
        "details": "Get all NFTs of the user",
        "params": {
          "_user": "user address"
        },
        "returns": {
          "_tokenIds": "NFT Token ID"
        }
      },
      "multiBuy(uint256,uint8[4][])": {
        "details": "bulk purchase",
        "params": {
          "_numbers": "number array",
          "_price": "price"
        }
      },
      "multiClaim(uint256[])": {
        "details": "Collect in batches",
        "params": {
          "_tickets": "NFT Token ID array"
        }
      },
      "owner()": {
        "details": "Returns the address of the current owner."
      },
      "renounceOwnership()": {
        "details": "Leaves the contract without owner. It will not be possible to call `onlyOwner` functions anymore. Can only be called by the current owner. NOTE: Renouncing ownership will leave the contract without an owner, thereby removing any functionality that is only available to the owner."
      },
      "reset()": {
        "details": "reset"
      },
      "setAdmin(address)": {
        "details": "Update the administrator address through the previous developer",
        "params": {
          "_adminAddress": "administrator address"
        }
      },
      "setAllocation(uint8,uint8,uint8)": {
        "details": "set the prize pool distribution ratio",
        "params": {
          "_allcation1": "Allocation ratio 1 50%",
          "_allcation2": "Allocation ratio 2 20%",
          "_allcation3": "Allocation ratio 3 10%"
        }
      },
      "setMaxNumber(uint8)": {
        "details": "sets the maximum number",
        "params": {
          "_maxNumber": "maximum number"
        }
      },
      "setMinPrice(uint256)": {
        "details": "sets the lowest price for a ticket",
        "params": {
          "_price": "price"
        }
      },
      "transferOwnership(address)": {
        "details": "Transfers ownership of the contract to a new account (`newOwner`). Can only be called by the current owner."
      }
    },
    "stateVariables": {
      "adminAddress": {
        "details": "administrator address"
      },
      "allocation": {
        "details": "allocates the first/second/third reward"
      },
      "drawingPhase": {
        "details": "lottery stage"
      },
      "historyAmount": {
        "details": "Issue ID => [total amount, first prize bonus, second prize bonus, third prize bonus]"
      },
      "historyNumbers": {
        "details": "issue ID => winning numbers [numbers]"
      },
      "issueIndex": {
        "details": "release index"
      },
      "keyLengthForEachBuy": {
        "details": "number combination is fixed at 11, because 4 numbers have 11 winning combinations"
      },
      "lastTimestamp": {
        "details": "last timestamp"
      },
      "lotteryInfo": {
        "details": "release ID => [tokenId]"
      },
      "lotteryNFT": {
        "details": "Lotto NFT address"
      },
      "maxNumber": {
        "details": "maximum number"
      },
      "minPrice": {
        "details": "The lowest price, if the decimal point is not 18, please reset"
      },
      "nullTicket": {
        "details": "empty ticket"
      },
      "totalAddresses": {
        "details": "addresses"
      },
      "totalAmount": {
        "details": "Total prize pool amount"
      },
      "userBuyAmountSum": {
        "details": "issuance ID => lottery ticket number => total sales, total purchase amount of users"
      },
      "userInfo": {
        "details": "address => [tokenId]"
      },
      "winningNumbers": {
        "details": "winning number"
      }
    },
    "title": "Lotto lottery contract with 4 numbers",
    "version": 1
  },
  "userdoc": {
    "kind": "user",
    "methods": {
      "GOSWAP_ROUTER()": {
        "notice": "GoSwap routing address"
      },
      "drawing(uint256)": {
        "notice": "adds an external random number to prevent the node verification program from using it"
      },
      "generateNumberIndexKey(uint8[4])": {
        "notice": "4 winning numbers have 11 winning combinations"
      },
      "getRewardView(uint256)": {
        "notice": "bonus calculation formula: purchase price / prize pool quantity * prize pool bonus"
      },
      "token()": {
        "notice": "Token for buying lottery tickets"
      }
    },
    "notice": "4 numbers must match in order",
    "version": 1
  }
}