{
  "contractName": "LotteryAnalysis",
  "abi": [
    {
      "inputs": [],
      "name": "Lottery_GOC",
      "outputs": [
        {
          "internalType": "address",
          "name": "",
          "type": "address"
        }
      ],
      "stateMutability": "view",
      "type": "function"
    },
    {
      "inputs": [],
      "name": "Lottery_HUSD",
      "outputs": [
        {
          "internalType": "address",
          "name": "",
          "type": "address"
        }
      ],
      "stateMutability": "view",
      "type": "function"
    },
    {
      "inputs": [
        {
          "internalType": "address",
          "name": "_user",
          "type": "address"
        }
      ],
      "name": "getUserGOCTickets",
      "outputs": [
        {
          "internalType": "uint256[]",
          "name": "_tickets",
          "type": "uint256[]"
        },
        {
          "internalType": "uint256[]",
          "name": "_issueIndex",
          "type": "uint256[]"
        },
        {
          "internalType": "bool[]",
          "name": "_claimed",
          "type": "bool[]"
        },
        {
          "internalType": "uint256[]",
          "name": "_reward",
          "type": "uint256[]"
        }
      ],
      "stateMutability": "view",
      "type": "function"
    },
    {
      "inputs": [
        {
          "internalType": "address",
          "name": "_user",
          "type": "address"
        }
      ],
      "name": "getUserHUSDTickets",
      "outputs": [
        {
          "internalType": "uint256[]",
          "name": "_tickets",
          "type": "uint256[]"
        },
        {
          "internalType": "uint256[]",
          "name": "_issueIndex",
          "type": "uint256[]"
        },
        {
          "internalType": "bool[]",
          "name": "_claimed",
          "type": "bool[]"
        },
        {
          "internalType": "uint256[]",
          "name": "_reward",
          "type": "uint256[]"
        }
      ],
      "stateMutability": "view",
      "type": "function"
    },
    {
      "inputs": [
        {
          "internalType": "uint256[]",
          "name": "_tickets",
          "type": "uint256[]"
        }
      ],
      "name": "getGOCLotteryNumbers",
      "outputs": [
        {
          "internalType": "uint8[4][]",
          "name": "_numbers",
          "type": "uint8[4][]"
        }
      ],
      "stateMutability": "view",
      "type": "function"
    },
    {
      "inputs": [
        {
          "internalType": "uint256[]",
          "name": "_tickets",
          "type": "uint256[]"
        }
      ],
      "name": "getHUSDLotteryNumbers",
      "outputs": [
        {
          "internalType": "uint8[4][]",
          "name": "_numbers",
          "type": "uint8[4][]"
        }
      ],
      "stateMutability": "view",
      "type": "function"
    }
  ],
  "bytecode": "0x608060405234801561001057600080fd5b506112c1806100206000396000f3fe608060405234801561001057600080fd5b50600436106100615760003560e01c80627ca9b2146100665780631222a61814610084578063340cb151146100a45780635fabd1bd146100c7578063796f9680146100cf578063b9476b50146100e2575b600080fd5b61006e6100f5565b60405161007b91906110e5565b60405180910390f35b610097610092366004610ecc565b61010d565b60405161007b91906110f9565b6100b76100b2366004610e8d565b6102ef565b60405161007b9493929190611164565b61006e6107ba565b6100b76100dd366004610e8d565b6107d2565b6100976100f0366004610ecc565b610c94565b73822542e0b599fd512ac91e44ab6b3e509834569381565b606081516001600160401b0381111561013657634e487b7160e01b600052604160045260246000fd5b60405190808252806020026020018201604052801561016f57816020015b61015c610e6f565b8152602001906001900390816101545790505b509050600073d3116f70dac6e1d9c50763026b1ccf560e4664d46001600160a01b031663e8adfbc76040518163ffffffff1660e01b815260040160206040518083038186803b1580156101c157600080fd5b505afa1580156101d5573d6000803e3d6000fd5b505050506040513d601f19601f820116820180604052508101906101f99190610eb0565b905060005b83518110156102e857816001600160a01b0316635f8e26a785838151811061023657634e487b7160e01b600052603260045260246000fd5b60200260200101516040518263ffffffff1660e01b815260040161025a91906111e1565b60806040518083038186803b15801561027257600080fd5b505afa158015610286573d6000803e3d6000fd5b505050506040513d601f19601f820116820180604052508101906102aa9190610fe3565b8382815181106102ca57634e487b7160e01b600052603260045260246000fd5b602002602001018190525080806102e090611236565b9150506101fe565b5050919050565b60608060608073d3116f70dac6e1d9c50763026b1ccf560e4664d46001600160a01b0316636386c1c7866040518263ffffffff1660e01b815260040161033591906110e5565b60006040518083038186803b15801561034d57600080fd5b505afa158015610361573d6000803e3d6000fd5b505050506040513d6000823e601f3d908101601f191682016040526103899190810190610f60565b935083516001600160401b038111156103b257634e487b7160e01b600052604160045260246000fd5b6040519080825280602002602001820160405280156103db578160200160208202803683370190505b50925083516001600160401b0381111561040557634e487b7160e01b600052604160045260246000fd5b60405190808252806020026020018201604052801561042e578160200160208202803683370190505b50915083516001600160401b0381111561045857634e487b7160e01b600052604160045260246000fd5b604051908082528060200260200182016040528015610481578160200160208202803683370190505b509050600073d3116f70dac6e1d9c50763026b1ccf560e4664d46001600160a01b031663e8adfbc76040518163ffffffff1660e01b815260040160206040518083038186803b1580156104d357600080fd5b505afa1580156104e7573d6000803e3d6000fd5b505050506040513d601f19601f8201168201806040525081019061050b9190610eb0565b905060005b85518110156107b157816001600160a01b0316631bf1e00f87838151811061054857634e487b7160e01b600052603260045260246000fd5b60200260200101516040518263ffffffff1660e01b815260040161056c91906111e1565b60206040518083038186803b15801561058457600080fd5b505afa158015610598573d6000803e3d6000fd5b505050506040513d601f19601f820116820180604052508101906105bc9190611093565b8582815181106105dc57634e487b7160e01b600052603260045260246000fd5b602002602001018181525050816001600160a01b03166336dbd2f987838151811061061757634e487b7160e01b600052603260045260246000fd5b60200260200101516040518263ffffffff1660e01b815260040161063b91906111e1565b60206040518083038186803b15801561065357600080fd5b505afa158015610667573d6000803e3d6000fd5b505050506040513d601f19601f8201168201806040525081019061068b9190611073565b8482815181106106ab57634e487b7160e01b600052603260045260246000fd5b60200260200101901515908115158152505073d3116f70dac6e1d9c50763026b1ccf560e4664d46001600160a01b031663d411b0fa87838151811061070057634e487b7160e01b600052603260045260246000fd5b60200260200101516040518263ffffffff1660e01b815260040161072491906111e1565b60206040518083038186803b15801561073c57600080fd5b505afa158015610750573d6000803e3d6000fd5b505050506040513d601f19601f820116820180604052508101906107749190611093565b83828151811061079457634e487b7160e01b600052603260045260246000fd5b6020908102919091010152806107a981611236565b915050610510565b50509193509193565b73d3116f70dac6e1d9c50763026b1ccf560e4664d481565b60608060608073822542e0b599fd512ac91e44ab6b3e50983456936001600160a01b0316636386c1c7866040518263ffffffff1660e01b815260040161081891906110e5565b60006040518083038186803b15801561083057600080fd5b505afa158015610844573d6000803e3d6000fd5b505050506040513d6000823e601f3d908101601f1916820160405261086c9190810190610f60565b935083516001600160401b0381111561089557634e487b7160e01b600052604160045260246000fd5b6040519080825280602002602001820160405280156108be578160200160208202803683370190505b50925083516001600160401b038111156108e857634e487b7160e01b600052604160045260246000fd5b604051908082528060200260200182016040528015610911578160200160208202803683370190505b50915083516001600160401b0381111561093b57634e487b7160e01b600052604160045260246000fd5b604051908082528060200260200182016040528015610964578160200160208202803683370190505b509050600073822542e0b599fd512ac91e44ab6b3e50983456936001600160a01b031663e8adfbc76040518163ffffffff1660e01b815260040160206040518083038186803b1580156109b657600080fd5b505afa1580156109ca573d6000803e3d6000fd5b505050506040513d601f19601f820116820180604052508101906109ee9190610eb0565b905060005b85518110156107b157816001600160a01b0316631bf1e00f878381518110610a2b57634e487b7160e01b600052603260045260246000fd5b60200260200101516040518263ffffffff1660e01b8152600401610a4f91906111e1565b60206040518083038186803b158015610a6757600080fd5b505afa158015610a7b573d6000803e3d6000fd5b505050506040513d601f19601f82011682018060405250810190610a9f9190611093565b858281518110610abf57634e487b7160e01b600052603260045260246000fd5b602002602001018181525050816001600160a01b03166336dbd2f9878381518110610afa57634e487b7160e01b600052603260045260246000fd5b60200260200101516040518263ffffffff1660e01b8152600401610b1e91906111e1565b60206040518083038186803b158015610b3657600080fd5b505afa158015610b4a573d6000803e3d6000fd5b505050506040513d601f19601f82011682018060405250810190610b6e9190611073565b848281518110610b8e57634e487b7160e01b600052603260045260246000fd5b60200260200101901515908115158152505073822542e0b599fd512ac91e44ab6b3e50983456936001600160a01b031663d411b0fa878381518110610be357634e487b7160e01b600052603260045260246000fd5b60200260200101516040518263ffffffff1660e01b8152600401610c0791906111e1565b60206040518083038186803b158015610c1f57600080fd5b505afa158015610c33573d6000803e3d6000fd5b505050506040513d601f19601f82011682018060405250810190610c579190611093565b838281518110610c7757634e487b7160e01b600052603260045260246000fd5b602090810291909101015280610c8c81611236565b9150506109f3565b606081516001600160401b03811115610cbd57634e487b7160e01b600052604160045260246000fd5b604051908082528060200260200182016040528015610cf657816020015b610ce3610e6f565b815260200190600190039081610cdb5790505b509050600073822542e0b599fd512ac91e44ab6b3e50983456936001600160a01b031663e8adfbc76040518163ffffffff1660e01b815260040160206040518083038186803b158015610d4857600080fd5b505afa158015610d5c573d6000803e3d6000fd5b505050506040513d601f19601f82011682018060405250810190610d809190610eb0565b905060005b83518110156102e857816001600160a01b0316635f8e26a7858381518110610dbd57634e487b7160e01b600052603260045260246000fd5b60200260200101516040518263ffffffff1660e01b8152600401610de191906111e1565b60806040518083038186803b158015610df957600080fd5b505afa158015610e0d573d6000803e3d6000fd5b505050506040513d601f19601f82011682018060405250810190610e319190610fe3565b838281518110610e5157634e487b7160e01b600052603260045260246000fd5b60200260200101819052508080610e6790611236565b915050610d85565b60405180608001604052806004906020820280368337509192915050565b600060208284031215610e9e578081fd5b8135610ea981611273565b9392505050565b600060208284031215610ec1578081fd5b8151610ea981611273565b60006020808385031215610ede578182fd5b82356001600160401b03811115610ef3578283fd5b8301601f81018513610f03578283fd5b8035610f16610f1182611213565b6111ea565b8181528381019083850185840285018601891015610f32578687fd5b8694505b83851015610f54578035835260019490940193918501918501610f36565b50979650505050505050565b60006020808385031215610f72578182fd5b82516001600160401b03811115610f87578283fd5b8301601f81018513610f97578283fd5b8051610fa5610f1182611213565b8181528381019083850185840285018601891015610fc1578687fd5b8694505b83851015610f54578051835260019490940193918501918501610fc5565b600060808284031215610ff4578081fd5b82601f830112611002578081fd5b604051608081018181106001600160401b03821117156110245761102461125d565b604052808360808101861015611038578384fd5b835b600481101561106857815160ff81168114611053578586fd5b8352602092830192919091019060010161103a565b509195945050505050565b600060208284031215611084578081fd5b81518015158114610ea9578182fd5b6000602082840312156110a4578081fd5b5051919050565b6000815180845260208085019450808401835b838110156110da578151875295820195908201906001016110be565b509495945050505050565b6001600160a01b0391909116815260200190565b6020808252825182820181905260009190848201906040850190845b8181101561115857835183875b600481101561114257825160ff1682529187019190870190600101611122565b5050509284019260809290920191600101611115565b50909695505050505050565b60006080825261117760808301876110ab565b60208382038185015261118a82886110ab565b84810360408601528651808252828801935090820190845b818110156111c05784511515835293830193918301916001016111a2565b505084810360608601526111d481876110ab565b9998505050505050505050565b90815260200190565b6040518181016001600160401b038111828210171561120b5761120b61125d565b604052919050565b60006001600160401b0382111561122c5761122c61125d565b5060209081020190565b600060001982141561125657634e487b7160e01b81526011600452602481fd5b5060010190565b634e487b7160e01b600052604160045260246000fd5b6001600160a01b038116811461128857600080fd5b5056fea264697066735822122052759fe7f38ec6302469f745b6bd8bcab508a85987cf2058227f8810075d942964736f6c63430008000033",
  "immutableReferences": {},
  "source": "// SPDX-License-Identifier: MIT\r\npragma solidity 0.8.0;\r\npragma experimental ABIEncoderV2;\r\n\r\ninterface ILottery {\r\n    function getUserInfo(address) external view returns (uint256[] memory);\r\n\r\n    function getRewardView(uint256 _tokenId) external view returns (uint256);\r\n\r\n    function lotteryNFT() external view returns (address);\r\n}\r\n\r\ninterface INFT {\r\n    function issueIndex(uint256) external view returns (uint256);\r\n\r\n    function getLotteryNumbers(uint256 tokenId) external view returns (uint8[4] memory);\r\n\r\n    function getLotteryIssueIndex(uint256 tokenId) external view returns (uint256);\r\n\r\n    function getClaimStatus(uint256 tokenId) external view returns (bool);\r\n}\r\n\r\ncontract LotteryAnalysis {\r\n    address public constant Lottery_HUSD = 0xD3116F70DaC6e1D9c50763026b1CcF560e4664D4;\r\n    address public constant Lottery_GOC = 0x822542e0b599Fd512AC91E44AB6b3E5098345693;\r\n\r\n    /**\r\n     * @dev Get all NFTs of the user\r\n     * @param _user user address\r\n     * @return _tickets NFT Token ID\r\n     * @return _issueIndex release index\r\n     * @return _claimed Whether to claim the prize\r\n     * @return _reward bonus\r\n     */\r\n    function getUserGOCTickets(address _user)\r\n        public\r\n        view\r\n        returns (\r\n            uint256[] memory _tickets,\r\n            uint256[] memory _issueIndex,\r\n            bool[] memory _claimed,\r\n            uint256[] memory _reward\r\n        )\r\n    {\r\n        _tickets = ILottery(Lottery_GOC).getUserInfo(_user);\r\n        _issueIndex = new uint256[](_tickets.length);\r\n        _claimed = new bool[](_tickets.length);\r\n        _reward = new uint256[](_tickets.length);\r\n        address NFT_GOC = ILottery(Lottery_GOC).lotteryNFT();\r\n        for (uint256 i = 0; i < _tickets.length; i++) {\r\n            _issueIndex[i] = INFT(NFT_GOC).getLotteryIssueIndex(_tickets[i]);\r\n            _claimed[i] = INFT(NFT_GOC).getClaimStatus(_tickets[i]);\r\n            _reward[i] = ILottery(Lottery_GOC).getRewardView(_tickets[i]);\r\n        }\r\n    }\r\n\r\n    /**\r\n     * @dev Get all NFTs of the user\r\n     * @param _user user address\r\n     * @return _tickets NFT Token ID\r\n     * @return _issueIndex release index\r\n     * @return _claimed Whether to claim the prize\r\n     * @return _reward bonus\r\n     */\r\n    function getUserHUSDTickets(address _user)\r\n        public\r\n        view\r\n        returns (\r\n            uint256[] memory _tickets,\r\n            uint256[] memory _issueIndex,\r\n            bool[] memory _claimed,\r\n            uint256[] memory _reward\r\n        )\r\n    {\r\n        _tickets = ILottery(Lottery_HUSD).getUserInfo(_user);\r\n        _issueIndex = new uint256[](_tickets.length);\r\n        _claimed = new bool[](_tickets.length);\r\n        _reward = new uint256[](_tickets.length);\r\n        address NFT_HUSD = ILottery(Lottery_HUSD).lotteryNFT();\r\n        for (uint256 i = 0; i < _tickets.length; i++) {\r\n            _issueIndex[i] = INFT(NFT_HUSD).getLotteryIssueIndex(_tickets[i]);\r\n            _claimed[i] = INFT(NFT_HUSD).getClaimStatus(_tickets[i]);\r\n            _reward[i] = ILottery(Lottery_HUSD).getRewardView(_tickets[i]);\r\n        }\r\n    }\r\n\r\n    /**\r\n     * @dev Get all lottery numbers of the user\r\n     * @param _tickets NFT Token ID array\r\n     * @return _numbers lottery number array\r\n     */\r\n    function getGOCLotteryNumbers(uint256[] memory _tickets) public view returns (uint8[4][] memory _numbers) {\r\n        _numbers = new uint8[4][](_tickets.length);\r\n        address NFT_GOC = ILottery(Lottery_GOC).lotteryNFT();\r\n        for (uint256 i = 0; i < _tickets.length; i++) {\r\n            _numbers[i] = INFT(NFT_GOC).getLotteryNumbers(_tickets[i]);\r\n        }\r\n    }\r\n\r\n    /**\r\n     * @dev Get all lottery numbers of the user\r\n     * @param _tickets NFT Token ID array\r\n     * @return _numbers lottery number array\r\n     */\r\n    function getHUSDLotteryNumbers(uint256[] memory _tickets) public view returns (uint8[4][] memory _numbers) {\r\n        _numbers = new uint8[4][](_tickets.length);\r\n        address NFT_HUSD = ILottery(Lottery_HUSD).lotteryNFT();\r\n        for (uint256 i = 0; i < _tickets.length; i++) {\r\n            _numbers[i] = INFT(NFT_HUSD).getLotteryNumbers(_tickets[i]);\r\n        }\r\n    }\r\n}",
  "sourcePath": "C:/Users/USER/Documents/philip_projects/Meter projects/lottery/contracts/LotteryAnalysis.sol",
  "compiler": {
    "name": "solc",
    "version": "0.8.0+commit.c7dfd78e.Emscripten.clang"
  },
  "schemaVersion": "3.4.0",
  "updatedAt": "2021-05-04T10:59:11.712Z",
  "devdoc": {
    "kind": "dev",
    "methods": {
      "getGOCLotteryNumbers(uint256[])": {
        "details": "Get all lottery numbers of the user",
        "params": {
          "_tickets": "NFT Token ID array"
        },
        "returns": {
          "_numbers": "lottery number array"
        }
      },
      "getHUSDLotteryNumbers(uint256[])": {
        "details": "Get all lottery numbers of the user",
        "params": {
          "_tickets": "NFT Token ID array"
        },
        "returns": {
          "_numbers": "lottery number array"
        }
      },
      "getUserGOCTickets(address)": {
        "details": "Get all NFTs of the user",
        "params": {
          "_user": "user address"
        },
        "returns": {
          "_claimed": "Whether to claim the prize",
          "_issueIndex": "release index",
          "_reward": "bonus",
          "_tickets": "NFT Token ID"
        }
      },
      "getUserHUSDTickets(address)": {
        "details": "Get all NFTs of the user",
        "params": {
          "_user": "user address"
        },
        "returns": {
          "_claimed": "Whether to claim the prize",
          "_issueIndex": "release index",
          "_reward": "bonus",
          "_tickets": "NFT Token ID"
        }
      }
    },
    "version": 1
  },
  "userdoc": {
    "kind": "user",
    "methods": {},
    "version": 1
  }
}