{
  "contractName": "LotteryHUSD",
  "abi": [
    {
      "inputs": [
        {
          "internalType": "contract ILotteryNFT",
          "name": "_lotteryNFT",
          "type": "address"
        },
        {
          "internalType": "address",
          "name": "_lotteryGOC",
          "type": "address"
        }
      ],
      "stateMutability": "nonpayable",
      "type": "constructor"
    },
    {
      "anonymous": false,
      "inputs": [
        {
          "indexed": true,
          "internalType": "address",
          "name": "user",
          "type": "address"
        },
        {
          "indexed": false,
          "internalType": "uint256",
          "name": "tokenId",
          "type": "uint256"
        }
      ],
      "name": "Buy",
      "type": "event"
    },
    {
      "anonymous": false,
      "inputs": [
        {
          "indexed": true,
          "internalType": "address",
          "name": "user",
          "type": "address"
        },
        {
          "indexed": false,
          "internalType": "uint256",
          "name": "tokenid",
          "type": "uint256"
        },
        {
          "indexed": false,
          "internalType": "uint256",
          "name": "amount",
          "type": "uint256"
        }
      ],
      "name": "Claim",
      "type": "event"
    },
    {
      "anonymous": false,
      "inputs": [
        {
          "indexed": true,
          "internalType": "address",
          "name": "user",
          "type": "address"
        },
        {
          "indexed": false,
          "internalType": "uint256",
          "name": "amount",
          "type": "uint256"
        }
      ],
      "name": "DevWithdraw",
      "type": "event"
    },
    {
      "anonymous": false,
      "inputs": [
        {
          "indexed": true,
          "internalType": "uint256",
          "name": "issueIndex",
          "type": "uint256"
        },
        {
          "indexed": false,
          "internalType": "uint8[4]",
          "name": "winningNumbers",
          "type": "uint8[4]"
        }
      ],
      "name": "Drawing",
      "type": "event"
    },
    {
      "anonymous": false,
      "inputs": [
        {
          "indexed": true,
          "internalType": "address",
          "name": "user",
          "type": "address"
        },
        {
          "indexed": false,
          "internalType": "uint256",
          "name": "amount",
          "type": "uint256"
        }
      ],
      "name": "MultiBuy",
      "type": "event"
    },
    {
      "anonymous": false,
      "inputs": [
        {
          "indexed": true,
          "internalType": "address",
          "name": "user",
          "type": "address"
        },
        {
          "indexed": false,
          "internalType": "uint256",
          "name": "amount",
          "type": "uint256"
        }
      ],
      "name": "MultiClaim",
      "type": "event"
    },
    {
      "anonymous": false,
      "inputs": [
        {
          "indexed": true,
          "internalType": "address",
          "name": "previousOwner",
          "type": "address"
        },
        {
          "indexed": true,
          "internalType": "address",
          "name": "newOwner",
          "type": "address"
        }
      ],
      "name": "OwnershipTransferred",
      "type": "event"
    },
    {
      "anonymous": false,
      "inputs": [
        {
          "indexed": true,
          "internalType": "uint256",
          "name": "issueIndex",
          "type": "uint256"
        }
      ],
      "name": "Reset",
      "type": "event"
    },
    {
      "inputs": [],
      "name": "GOC",
      "outputs": [
        {
          "internalType": "address",
          "name": "",
          "type": "address"
        }
      ],
      "stateMutability": "view",
      "type": "function"
    },
    {
      "inputs": [],
      "name": "GOSWAP_ROUTER",
      "outputs": [
        {
          "internalType": "address",
          "name": "",
          "type": "address"
        }
      ],
      "stateMutability": "view",
      "type": "function"
    },
    {
      "inputs": [],
      "name": "HUSD",
      "outputs": [
        {
          "internalType": "address",
          "name": "",
          "type": "address"
        }
      ],
      "stateMutability": "view",
      "type": "function"
    },
    {
      "inputs": [],
      "name": "adminAddress",
      "outputs": [
        {
          "internalType": "address",
          "name": "",
          "type": "address"
        }
      ],
      "stateMutability": "view",
      "type": "function"
    },
    {
      "inputs": [
        {
          "internalType": "uint256",
          "name": "_amount",
          "type": "uint256"
        }
      ],
      "name": "adminWithdraw",
      "outputs": [],
      "stateMutability": "nonpayable",
      "type": "function"
    },
    {
      "inputs": [
        {
          "internalType": "uint256",
          "name": "",
          "type": "uint256"
        }
      ],
      "name": "allocation",
      "outputs": [
        {
          "internalType": "uint8",
          "name": "",
          "type": "uint8"
        }
      ],
      "stateMutability": "view",
      "type": "function"
    },
    {
      "inputs": [
        {
          "internalType": "uint256",
          "name": "_price",
          "type": "uint256"
        },
        {
          "internalType": "uint8[4]",
          "name": "_numbers",
          "type": "uint8[4]"
        }
      ],
      "name": "buy",
      "outputs": [],
      "stateMutability": "nonpayable",
      "type": "function"
    },
    {
      "inputs": [
        {
          "internalType": "uint256",
          "name": "_tokenId",
          "type": "uint256"
        }
      ],
      "name": "claimReward",
      "outputs": [],
      "stateMutability": "nonpayable",
      "type": "function"
    },
    {
      "inputs": [],
      "name": "drawed",
      "outputs": [
        {
          "internalType": "bool",
          "name": "",
          "type": "bool"
        }
      ],
      "stateMutability": "view",
      "type": "function"
    },
    {
      "inputs": [
        {
          "internalType": "uint256",
          "name": "_externalRandomNumber",
          "type": "uint256"
        }
      ],
      "name": "drawing",
      "outputs": [],
      "stateMutability": "nonpayable",
      "type": "function"
    },
    {
      "inputs": [],
      "name": "drawingPhase",
      "outputs": [
        {
          "internalType": "bool",
          "name": "",
          "type": "bool"
        }
      ],
      "stateMutability": "view",
      "type": "function"
    },
    {
      "inputs": [],
      "name": "enterDrawingPhase",
      "outputs": [],
      "stateMutability": "nonpayable",
      "type": "function"
    },
    {
      "inputs": [
        {
          "internalType": "uint8[4]",
          "name": "number",
          "type": "uint8[4]"
        }
      ],
      "name": "generateNumberIndexKey",
      "outputs": [
        {
          "internalType": "uint64[11]",
          "name": "",
          "type": "uint64[11]"
        }
      ],
      "stateMutability": "pure",
      "type": "function"
    },
    {
      "inputs": [
        {
          "internalType": "uint256",
          "name": "_issueIndex",
          "type": "uint256"
        }
      ],
      "name": "getHistoryAmount",
      "outputs": [
        {
          "internalType": "uint256[]",
          "name": "_amount",
          "type": "uint256[]"
        }
      ],
      "stateMutability": "view",
      "type": "function"
    },
    {
      "inputs": [
        {
          "internalType": "uint256",
          "name": "_issueIndex",
          "type": "uint256"
        }
      ],
      "name": "getHistoryNumbers",
      "outputs": [
        {
          "internalType": "uint8[4]",
          "name": "_numbers",
          "type": "uint8[4]"
        }
      ],
      "stateMutability": "view",
      "type": "function"
    },
    {
      "inputs": [
        {
          "internalType": "uint256",
          "name": "_issueIndex",
          "type": "uint256"
        }
      ],
      "name": "getLotteryInfo",
      "outputs": [
        {
          "internalType": "uint256[]",
          "name": "_tokenIds",
          "type": "uint256[]"
        }
      ],
      "stateMutability": "view",
      "type": "function"
    },
    {
      "inputs": [
        {
          "internalType": "uint256",
          "name": "_issueIndex",
          "type": "uint256"
        },
        {
          "internalType": "uint256",
          "name": "_matchingNumber",
          "type": "uint256"
        }
      ],
      "name": "getMatchingRewardAmount",
      "outputs": [
        {
          "internalType": "uint256",
          "name": "",
          "type": "uint256"
        }
      ],
      "stateMutability": "view",
      "type": "function"
    },
    {
      "inputs": [
        {
          "internalType": "uint256",
          "name": "_tokenId",
          "type": "uint256"
        }
      ],
      "name": "getRewardView",
      "outputs": [
        {
          "internalType": "uint256",
          "name": "",
          "type": "uint256"
        }
      ],
      "stateMutability": "view",
      "type": "function"
    },
    {
      "inputs": [
        {
          "internalType": "uint256",
          "name": "_issueIndex",
          "type": "uint256"
        }
      ],
      "name": "getTotalRewards",
      "outputs": [
        {
          "internalType": "uint256",
          "name": "",
          "type": "uint256"
        }
      ],
      "stateMutability": "view",
      "type": "function"
    },
    {
      "inputs": [
        {
          "internalType": "address",
          "name": "_user",
          "type": "address"
        }
      ],
      "name": "getUserInfo",
      "outputs": [
        {
          "internalType": "uint256[]",
          "name": "_tokenIds",
          "type": "uint256[]"
        }
      ],
      "stateMutability": "view",
      "type": "function"
    },
    {
      "inputs": [
        {
          "internalType": "uint256",
          "name": "",
          "type": "uint256"
        },
        {
          "internalType": "uint256",
          "name": "",
          "type": "uint256"
        }
      ],
      "name": "historyAmount",
      "outputs": [
        {
          "internalType": "uint256",
          "name": "",
          "type": "uint256"
        }
      ],
      "stateMutability": "view",
      "type": "function"
    },
    {
      "inputs": [
        {
          "internalType": "uint256",
          "name": "",
          "type": "uint256"
        },
        {
          "internalType": "uint256",
          "name": "",
          "type": "uint256"
        }
      ],
      "name": "historyNumbers",
      "outputs": [
        {
          "internalType": "uint8",
          "name": "",
          "type": "uint8"
        }
      ],
      "stateMutability": "view",
      "type": "function"
    },
    {
      "inputs": [],
      "name": "issueIndex",
      "outputs": [
        {
          "internalType": "uint256",
          "name": "",
          "type": "uint256"
        }
      ],
      "stateMutability": "view",
      "type": "function"
    },
    {
      "inputs": [],
      "name": "lastTimestamp",
      "outputs": [
        {
          "internalType": "uint256",
          "name": "",
          "type": "uint256"
        }
      ],
      "stateMutability": "view",
      "type": "function"
    },
    {
      "inputs": [],
      "name": "lotteryGOC",
      "outputs": [
        {
          "internalType": "address",
          "name": "",
          "type": "address"
        }
      ],
      "stateMutability": "view",
      "type": "function"
    },
    {
      "inputs": [
        {
          "internalType": "uint256",
          "name": "",
          "type": "uint256"
        },
        {
          "internalType": "uint256",
          "name": "",
          "type": "uint256"
        }
      ],
      "name": "lotteryInfo",
      "outputs": [
        {
          "internalType": "uint256",
          "name": "",
          "type": "uint256"
        }
      ],
      "stateMutability": "view",
      "type": "function"
    },
    {
      "inputs": [],
      "name": "lotteryNFT",
      "outputs": [
        {
          "internalType": "contract ILotteryNFT",
          "name": "",
          "type": "address"
        }
      ],
      "stateMutability": "view",
      "type": "function"
    },
    {
      "inputs": [],
      "name": "maxNumber",
      "outputs": [
        {
          "internalType": "uint8",
          "name": "",
          "type": "uint8"
        }
      ],
      "stateMutability": "view",
      "type": "function"
    },
    {
      "inputs": [],
      "name": "minPrice",
      "outputs": [
        {
          "internalType": "uint256",
          "name": "",
          "type": "uint256"
        }
      ],
      "stateMutability": "view",
      "type": "function"
    },
    {
      "inputs": [
        {
          "internalType": "uint256",
          "name": "_price",
          "type": "uint256"
        },
        {
          "internalType": "uint8[4][]",
          "name": "_numbers",
          "type": "uint8[4][]"
        }
      ],
      "name": "multiBuy",
      "outputs": [],
      "stateMutability": "nonpayable",
      "type": "function"
    },
    {
      "inputs": [
        {
          "internalType": "uint256[]",
          "name": "_tickets",
          "type": "uint256[]"
        }
      ],
      "name": "multiClaim",
      "outputs": [],
      "stateMutability": "nonpayable",
      "type": "function"
    },
    {
      "inputs": [],
      "name": "owner",
      "outputs": [
        {
          "internalType": "address",
          "name": "",
          "type": "address"
        }
      ],
      "stateMutability": "view",
      "type": "function"
    },
    {
      "inputs": [],
      "name": "renounceOwnership",
      "outputs": [],
      "stateMutability": "nonpayable",
      "type": "function"
    },
    {
      "inputs": [
        {
          "internalType": "address",
          "name": "_adminAddress",
          "type": "address"
        }
      ],
      "name": "setAdmin",
      "outputs": [],
      "stateMutability": "nonpayable",
      "type": "function"
    },
    {
      "inputs": [
        {
          "internalType": "uint8",
          "name": "_allcation1",
          "type": "uint8"
        },
        {
          "internalType": "uint8",
          "name": "_allcation2",
          "type": "uint8"
        },
        {
          "internalType": "uint8",
          "name": "_allcation3",
          "type": "uint8"
        }
      ],
      "name": "setAllocation",
      "outputs": [],
      "stateMutability": "nonpayable",
      "type": "function"
    },
    {
      "inputs": [
        {
          "internalType": "uint8",
          "name": "_maxNumber",
          "type": "uint8"
        }
      ],
      "name": "setMaxNumber",
      "outputs": [],
      "stateMutability": "nonpayable",
      "type": "function"
    },
    {
      "inputs": [
        {
          "internalType": "uint256",
          "name": "_price",
          "type": "uint256"
        }
      ],
      "name": "setMinPrice",
      "outputs": [],
      "stateMutability": "nonpayable",
      "type": "function"
    },
    {
      "inputs": [],
      "name": "token",
      "outputs": [
        {
          "internalType": "address",
          "name": "",
          "type": "address"
        }
      ],
      "stateMutability": "view",
      "type": "function"
    },
    {
      "inputs": [],
      "name": "totalAddresses",
      "outputs": [
        {
          "internalType": "uint256",
          "name": "",
          "type": "uint256"
        }
      ],
      "stateMutability": "view",
      "type": "function"
    },
    {
      "inputs": [],
      "name": "totalAmount",
      "outputs": [
        {
          "internalType": "uint256",
          "name": "",
          "type": "uint256"
        }
      ],
      "stateMutability": "view",
      "type": "function"
    },
    {
      "inputs": [
        {
          "internalType": "address",
          "name": "newOwner",
          "type": "address"
        }
      ],
      "name": "transferOwnership",
      "outputs": [],
      "stateMutability": "nonpayable",
      "type": "function"
    },
    {
      "inputs": [
        {
          "internalType": "uint256",
          "name": "",
          "type": "uint256"
        },
        {
          "internalType": "uint64",
          "name": "",
          "type": "uint64"
        }
      ],
      "name": "userBuyAmountSum",
      "outputs": [
        {
          "internalType": "uint256",
          "name": "",
          "type": "uint256"
        }
      ],
      "stateMutability": "view",
      "type": "function"
    },
    {
      "inputs": [
        {
          "internalType": "address",
          "name": "",
          "type": "address"
        },
        {
          "internalType": "uint256",
          "name": "",
          "type": "uint256"
        }
      ],
      "name": "userInfo",
      "outputs": [
        {
          "internalType": "uint256",
          "name": "",
          "type": "uint256"
        }
      ],
      "stateMutability": "view",
      "type": "function"
    },
    {
      "inputs": [
        {
          "internalType": "uint256",
          "name": "",
          "type": "uint256"
        }
      ],
      "name": "winningNumbers",
      "outputs": [
        {
          "internalType": "uint8",
          "name": "",
          "type": "uint8"
        }
      ],
      "stateMutability": "view",
      "type": "function"
    },
    {
      "inputs": [],
      "name": "reset",
      "outputs": [],
      "stateMutability": "nonpayable",
      "type": "function"
    },
    {
      "inputs": [
        {
          "internalType": "address",
          "name": "_lotteryGOC",
          "type": "address"
        }
      ],
      "name": "setLotteryGOC",
      "outputs": [],
      "stateMutability": "nonpayable",
      "type": "function"
    }
  ],
  "bytecode": "0x6003805460ff60a01b1916600760a11b1790556000600b819055600c819055600d819055610100604052608081815260a082905260c082905260e0919091526200004e906011906004620002cf565b503480156200005c57600080fd5b506040516200402c3803806200402c8339810160408190526200007f91620003a9565b81730298c2b32eae4da002a15f36fdf7615bea3da0476000620000a1620002cb565b600080546001600160a01b0319166001600160a01b0383169081178255604051929350917f8be0079c531659141344cd1fd0a4f28419497f9722a3daafe3b4186f6b6457e0908290a350600280546001600160a01b0384166001600160a01b031991821617909155600380549091163317815542600e556040805160608101825260328152601e6020820152600a91810191909152620001459160019190620002cf565b50600580546001600160a01b03199081166001600160a01b039384161790915560128054909116848316179081905560405163095ea7b360e01b815273271b54ebe36005a7296894f819d626161c44825c935063095ea7b392620001b79216906001600160801b0390600401620003e7565b602060405180830381600087803b158015620001d257600080fd5b505af1158015620001e7573d6000803e3d6000fd5b505050506040513d601f19601f820116820180604052508101906200020d919062000380565b5060405163095ea7b360e01b8152730298c2b32eae4da002a15f36fdf7615bea3da0479063095ea7b390620002649073d6dc3e48bc52fd6ff24f5318b537c46118e17f70906001600160801b0390600401620003e7565b602060405180830381600087803b1580156200027f57600080fd5b505af115801562000294573d6000803e3d6000fd5b505050506040513d601f19601f82011682018060405250810190620002ba919062000380565b50506305f5e1006004555062000422565b3390565b600183019183908215620003575791602002820160005b838211156200032657835183826101000a81548160ff021916908360ff1602179055509260200192600101602081600001049283019260010302620002e6565b8015620003555782816101000a81549060ff021916905560010160208160000104928301926001030262000326565b505b506200036592915062000369565b5090565b5b808211156200036557600081556001016200036a565b60006020828403121562000392578081fd5b81518015158114620003a2578182fd5b9392505050565b60008060408385031215620003bc578081fd5b8251620003c98162000409565b6020840151909250620003dc8162000409565b809150509250929050565b6001600160a01b039290921682526001600160801b0316602082015260400190565b6001600160a01b03811681146200041f57600080fd5b50565b613bfa80620004326000396000f3fe608060405234801561001057600080fd5b506004361061028a5760003560e01c80636a28f8281161015c578063ae169a50116100ce578063e134541611610087578063e134541614610553578063e45be8eb1461055b578063e8adfbc714610563578063f2fde38b1461056b578063fc0c546a1461057e578063fc6f9468146105865761028a565b8063ae169a50146104f7578063c39f49c01461050a578063cfad52771461051d578063d1f7dbcf14610525578063d411b0fa14610538578063d826f88f1461054b5761028a565b8063850bad9411610120578063850bad941461049957806385dcdf1b146104ac5780638a2f7a7f146104cc5780638da5cb5b146104d4578063a14229f3146104dc578063a42206c9146104e45761028a565b80636a28f82814610450578063704b6c0214610458578063715018a61461046b57806376b3c8a8146104735780637c5b4a37146104865761028a565b806338a10ef711610200578063552164ee116101b9578063552164ee146103de57806359bcbd68146103f15780635c17623a146104045780635ea8cd12146104175780636386c1c71461042a5780636575243f1461043d5761028a565b806338a10ef7146103665780633a4f699914610386578063438209f51461039b5780634e45f095146103b05780634ed73d28146103c35780634f11d7d1146103d65761028a565b806321ce919d1161025257806321ce919d146102e5578063229dea13146102f85780632bdff851146103185780632f506b201461032b5780633061d5681461033e578063324a5562146103535761028a565b80631204f07e1461028f57806314c20d57146102a457806319d8ac61146102b75780631a39d8ef146102d55780631ff68866146102dd575b600080fd5b6102a261029d366004613038565b61058e565b005b6102a26102b23660046132c1565b610738565b6102bf610811565b6040516102cc919061394a565b60405180910390f35b6102bf610817565b6102a261081d565b6102bf6102f3366004613070565b61087b565b61030b6103063660046131ea565b6108ac565b6040516102cc91906134c3565b6102a261032636600461321a565b61090e565b6102bf61033936600461330e565b610a28565b610346610a45565b6040516102cc9190613421565b6102a2610361366004613348565b610a5d565b6103796103743660046131ea565b610abc565b6040516102cc9190613542565b61038e610b20565b6040516102cc91906139e5565b6103a3610b30565b6040516102cc919061355e565b61038e6103be3660046131ea565b610b39565b6102a26103d136600461309b565b610b63565b610346610dd0565b6102bf6103ec3660046131ea565b610de8565b61038e6103ff3660046132ed565b610e70565b6102a2610412366004613364565b610ea9565b6102a26104253660046131ea565b610f1e565b61030b610438366004613038565b610f62565b6102bf61044b3660046132ed565b610fcc565b6102bf610fe8565b6102a2610466366004613038565b610fee565b6102a261104f565b61030b6104813660046131ea565b6110d8565b6102a26104943660046131ea565b611138565b61038e6104a73660046131ea565b6111d2565b6104bf6104ba36600461312f565b6111e2565b6040516102cc9190613507565b61034661174a565b610346611762565b610346611771565b6102a26104f23660046131ea565b611780565b6102a26105053660046131ea565b6119ac565b6102bf6105183660046132ed565b611b5e565b6102bf611b7a565b6102bf6105333660046132ed565b611b80565b6102bf6105463660046131ea565b611bcb565b6102a2611f2e565b6103a361229a565b6102bf6122a5565b6103466122ab565b6102a2610579366004613038565b6122ba565b61034661237a565b610346612389565b610596612398565b6001600160a01b03166105a7611762565b6001600160a01b0316146105d65760405162461bcd60e51b81526004016105cd9061382e565b60405180910390fd5b6012546001600160a01b0316156106805760125460405163095ea7b360e01b815273271b54ebe36005a7296894f819d626161c44825c9163095ea7b39161062c916001600160a01b0316906000906004016134aa565b602060405180830381600087803b15801561064657600080fd5b505af115801561065a573d6000803e3d6000fd5b505050506040513d601f19601f8201168201806040525081019061067e91906131ca565b505b601280546001600160a01b0319166001600160a01b03838116919091179182905560405163095ea7b360e01b815273271b54ebe36005a7296894f819d626161c44825c9263095ea7b3926106e2929116906001600160801b0390600401613488565b602060405180830381600087803b1580156106fc57600080fd5b505af1158015610710573d6000803e3d6000fd5b505050506040513d601f19601f8201168201806040525081019061073491906131ca565b5050565b8161074161229a565b1561075e5760405162461bcd60e51b81526004016105cd906137f7565b60105460ff16156107815760405162461bcd60e51b81526004016105cd90613789565b6004548110156107a35760405162461bcd60e51b81526004016105cd906137c0565b60006107af848461239c565b6005549091506107ca906001600160a01b031633308761261a565b336001600160a01b03167fe3d4187f6ca4248660cc0ac8b8056515bac4a8132be2eca31d6d0cc170722a7e82604051610803919061394a565b60405180910390a250505050565b600e5481565b600d5481565b6003546001600160a01b031633146108475760405162461bcd60e51b81526004016105cd90613863565b61084f61229a565b1561086c5760405162461bcd60e51b81526004016105cd9061392a565b6010805460ff19166001179055565b600a602052816000526040600020818154811061089757600080fd5b90600052602060002001600091509150505481565b60008181526008602090815260409182902080548351818402810184019094528084526060939283018282801561090257602002820191906000526020600020905b8154815260200190600101908083116108ee575b50505050509050919050565b8161091761229a565b156109345760405162461bcd60e51b81526004016105cd906137f7565b60105460ff16156109575760405162461bcd60e51b81526004016105cd90613789565b6004548110156109795760405162461bcd60e51b81526004016105cd906137c0565b6000805b83518110156109d6576109b7858583815181106109aa57634e487b7160e01b600052603260045260246000fd5b602002602001015161239c565b506109c28286612672565b9150806109ce81613b56565b91505061097d565b506005546109ef906001600160a01b031633308461261a565b336001600160a01b03167f96c35ad1cc1743f26cb87980c38042de8082358ec6d171a7986d6e11dddfe85782604051610803919061394a565b600960209081526000928352604080842090915290825290205481565b73271b54ebe36005a7296894f819d626161c44825c81565b610a65612398565b6001600160a01b0316610a76611762565b6001600160a01b031614610a9c5760405162461bcd60e51b81526004016105cd9061382e565b6003805460ff909216600160a01b0260ff60a01b19909216919091179055565b610ac4612e69565b600082815260066020526040808220815160808101928390529290916004918390855b825461010083900a900460ff16815260206001928301818104948501949093039092029101808411610ae7575094979650505050505050565b600354600160a01b900460ff1681565b60105460ff1681565b600f8160048110610b4957600080fd5b60209182820401919006915054906101000a900460ff1681565b6000805b8251811015610d6d5760025483516001600160a01b0390911690636352211e90859084908110610ba757634e487b7160e01b600052603260045260246000fd5b60200260200101516040518263ffffffff1660e01b8152600401610bcb919061394a565b60206040518083038186803b158015610be357600080fd5b505afa158015610bf7573d6000803e3d6000fd5b505050506040513d601f19601f82011682018060405250810190610c1b9190613054565b6001600160a01b0316336001600160a01b031614610c4b5760405162461bcd60e51b81526004016105cd90613709565b60025483516001600160a01b03909116906336dbd2f990859084908110610c8257634e487b7160e01b600052603260045260246000fd5b60200260200101516040518263ffffffff1660e01b8152600401610ca6919061394a565b60206040518083038186803b158015610cbe57600080fd5b505afa158015610cd2573d6000803e3d6000fd5b505050506040513d601f19601f82011682018060405250810190610cf691906131ca565b15610d135760405162461bcd60e51b81526004016105cd90613768565b6000610d45848381518110610d3857634e487b7160e01b600052603260045260246000fd5b6020026020010151611bcb565b90508015610d5a57610d578184612672565b92505b5080610d6581613b56565b915050610b67565b508015610d8b57600554610d8b906001600160a01b03163383612685565b336001600160a01b03167f6606374655494f5c0e2d6f392656e9777afd9ac5f61527d1bcad50b7e918a03e82604051610dc4919061394a565b60405180910390a25050565b730298c2b32eae4da002a15f36fdf7615bea3da04781565b6000600b54821115610e0c5760405162461bcd60e51b81526004016105cd9061361a565b610e1461229a565b158015610e225750600b5482145b15610e305750600d54610e6b565b60008281526008602052604081208054909190610e5d57634e487b7160e01b600052603260045260246000fd5b906000526020600020015490505b919050565b60066020528160005260406000208160048110610e8c57600080fd5b602081049091015460ff601f9092166101000a9004169150829050565b610eb1612398565b6001600160a01b0316610ec2611762565b6001600160a01b031614610ee85760405162461bcd60e51b81526004016105cd9061382e565b6040805160608101825260ff80861682528481166020830152831691810191909152610f18906001906003612e87565b50505050565b610f26612398565b6001600160a01b0316610f37611762565b6001600160a01b031614610f5d5760405162461bcd60e51b81526004016105cd9061382e565b600455565b6001600160a01b0381166000908152600a602090815260409182902080548351818402810184019094528084526060939283018282801561090257602002820191906000526020600020908154815260200190600101908083116108ee5750505050509050919050565b6007602052816000526040600020818154811061089757600080fd5b600b5481565b610ff6612398565b6001600160a01b0316611007611762565b6001600160a01b03161461102d5760405162461bcd60e51b81526004016105cd9061382e565b600380546001600160a01b0319166001600160a01b0392909216919091179055565b611057612398565b6001600160a01b0316611068611762565b6001600160a01b03161461108e5760405162461bcd60e51b81526004016105cd9061382e565b600080546040516001600160a01b03909116907f8be0079c531659141344cd1fd0a4f28419497f9722a3daafe3b4186f6b6457e0908390a3600080546001600160a01b0319169055565b60008181526007602090815260409182902080548351818402810184019094528084526060939283018282801561090257602002820191906000526020600020908154815260200190600101908083116108ee5750505050509050919050565b611140612398565b6001600160a01b0316611151611762565b6001600160a01b0316146111775760405162461bcd60e51b81526004016105cd9061382e565b60055461118e906001600160a01b03163383612685565b336001600160a01b03167f050d1c64cc22ce461b9bc14f6b73852566da02b03c155242bc63169d1fec42aa826040516111c7919061394a565b60405180910390a250565b60018160038110610b4957600080fd5b6111ea612f1a565b6111f2612e69565b825160ff908116825260208085015182169083015260408085015182169083015260608085015190911690820152611228612f1a565b6060820151604083015161123e90610100613ac1565b61124a90610100613ac1565b602084015161125b90610100613ac1565b61126790610100613ac1565b61127390610100613ac1565b61127f90610100613ac1565b845161128d90610100613ac1565b61129990610100613ac1565b6112a590610100613ac1565b6112b190610100613ac1565b6112bd90610100613ac1565b6112c990610100613ac1565b6112d99065010000000000613a57565b6112e39190613a57565b6112f1906302000000613a57565b6112fb9190613a57565b61130790610300613a57565b6113119190613a57565b6001600160401b031681526040820151602083015161133290610100613ac1565b61133e90610100613ac1565b835161134c90610100613ac1565b61135890610100613ac1565b61136490610100613ac1565b61137090610100613ac1565b61137e906301000000613a57565b6113889190613a57565b61139490610200613a57565b61139e9190613a57565b6001600160401b03166020808301919091526060830151908301516113c590610100613ac1565b6113d190610100613ac1565b83516113df90610100613ac1565b6113eb90610100613ac1565b6113f790610100613ac1565b61140390610100613ac1565b611411906301000000613a57565b61141b9190613a57565b61142790610300613a57565b6114319190613a57565b6001600160401b031660408083019190915260608301519083015161145890610100613ac1565b61146490610100613ac1565b835161147290610100613ac1565b61147e90610100613ac1565b61148a90610100613ac1565b61149690610100613ac1565b6114a4906302000000613a57565b6114ae9190613a57565b6114ba90610300613a57565b6114c49190613a57565b6001600160401b031660608083019190915282015160408301516114ea90610100613ac1565b6114f690610100613ac1565b602084015161150790610100613ac1565b61151390610100613ac1565b61151f90610100613ac1565b61152b90610100613ac1565b61153b9065010000000000613a57565b611549906302000000613a57565b6115539190613a57565b61155f90610300613a57565b6115699190613a57565b6001600160401b031660808201526020820151825161158a90610100613ac1565b61159690610100613ac1565b6115a290610100613a57565b6115ac9190613a57565b6001600160401b031660a0820152604082015182516115cd90610100613ac1565b6115d990610100613ac1565b6115e590610200613a57565b6115ef9190613a57565b6001600160401b031660c08201526060820151825161161090610100613ac1565b61161c90610100613ac1565b61162890610300613a57565b6116329190613a57565b6001600160401b031660e08201526040820151602083015161165690610100613ac1565b61166290610100613ac1565b611670906301000000613a57565b61167c90610200613a57565b6116869190613a57565b6001600160401b0316610100808301919091526060830151602084015190916116af9190613ac1565b6116bb90610100613ac1565b6116c9906301000000613a57565b6116d590610300613a57565b6116df9190613a57565b6001600160401b03166101208201526060820151604083015161170490610100613ac1565b61171090610100613ac1565b61171e906302000000613a57565b61172a90610300613a57565b6117349190613a57565b6001600160401b03166101408201529392505050565b73d6dc3e48bc52fd6ff24f5318b537c46118e17f7081565b6000546001600160a01b031690565b6012546001600160a01b031681565b6003546001600160a01b031633146117aa5760405162461bcd60e51b81526004016105cd90613863565b6117b261229a565b156117cf5760405162461bcd60e51b81526004016105cd906135cd565b60105460ff166117f15760405162461bcd60e51b81526004016105cd90613731565b60006117fe600143613af0565b40905060005b600a81101561182b57611818600b54610de8565b508061182381613b56565b915050611804565b5060005a905061186182600c54838660405160200161184d949392919061357f565b6040516020818303038152906040526126a4565b600f805460ff191660ff92909216919091179055600d546040516118929161184d918591908590889060200161357f565b600f805460ff929092166101000261ff0019909216919091179055600e546040516118ca9161184d918591908590889060200161357f565b600f805460ff92909216620100000262ff0000199092169190911790556040516119009061184d90849084908790602001613569565b600f805460ff9290921663010000000263ff00000019909216919091178155600b54600090815260066020526040902061193b916004612f39565b506119446126c5565b600b546000908152600860205260409020611960916004612f6c565b506010805460ff19169055600b546040517fa13e935b188993737b3009d62bd916dcbe9e82d8236d75981eeadf26a1460d3d9061199f90600f90613550565b60405180910390a2505050565b6002546040516331a9108f60e11b81526001600160a01b0390911690636352211e906119dc90849060040161394a565b60206040518083038186803b1580156119f457600080fd5b505afa158015611a08573d6000803e3d6000fd5b505050506040513d601f19601f82011682018060405250810190611a2c9190613054565b6001600160a01b0316336001600160a01b031614611a5c5760405162461bcd60e51b81526004016105cd90613709565b6002546040516336dbd2f960e01b81526001600160a01b03909116906336dbd2f990611a8c90849060040161394a565b60206040518083038186803b158015611aa457600080fd5b505afa158015611ab8573d6000803e3d6000fd5b505050506040513d601f19601f82011682018060405250810190611adc91906131ca565b15611af95760405162461bcd60e51b81526004016105cd90613768565b6000611b0482611bcb565b9050801561073457600554611b23906001600160a01b03163383612685565b336001600160a01b03167f34fcbac0073d7c3d388e51312faf357774904998eeb8fca628b9e6f65ee1cbf78383604051610dc4929190613967565b6008602052816000526040600020818154811061089757600080fd5b600c5481565b6000828152600860205260408120611b99836005613af0565b81548110611bb757634e487b7160e01b600052603260045260246000fd5b906000526020600020015490505b92915050565b600254604051631bf1e00f60e01b815260009182916001600160a01b0390911690631bf1e00f90611c0090869060040161394a565b60206040518083038186803b158015611c1857600080fd5b505afa158015611c2c573d6000803e3d6000fd5b505050506040513d601f19601f82011682018060405250810190611c509190613202565b600254604051635f8e26a760e01b81529192506000916001600160a01b0390911690635f8e26a790611c8690879060040161394a565b60806040518083038186803b158015611c9e57600080fd5b505afa158015611cb2573d6000803e3d6000fd5b505050506040513d601f19601f82011682018060405250810190611cd6919061314a565b60008381526006602052604080822081516080810192839052939450919291906004908285855b825461010083900a900460ff16815260206001928301818104948501949093039092029101808411611cfd5790505050505050905080600060048110611d5357634e487b7160e01b600052603260045260246000fd5b602002015160ff16611d6b5760009350505050610e6b565b6000805b6004811015611dee57838160048110611d9857634e487b7160e01b600052603260045260246000fd5b602002015160ff16838260048110611dc057634e487b7160e01b600052603260045260246000fd5b602002015160ff161415611ddc57611dd9826001613a3f565b91505b80611de681613b56565b915050611d6f565b5060006001821115611f1457600254604051637bd0606560e11b81526000916001600160a01b03169063f7a0c0ca90611e2b908b9060040161394a565b60206040518083038186803b158015611e4357600080fd5b505afa158015611e57573d6000803e3d6000fd5b505050506040513d601f19601f82011682018060405250810190611e7b9190613202565b9050600060646001611e8e866004613af0565b60038110611eac57634e487b7160e01b600052603260045260246000fd5b602081049091015460ff601f9092166101000a900416611ecb89610de8565b611ed59190613aa2565b611edf9190613a82565b905080611eec8886611b80565b611efb8464e8d4a51000613aa2565b611f059190613a82565b611f0f9190613aa2565b925050505b611f2364e8d4a5100082613a82565b979650505050505050565b6003546001600160a01b03163314611f585760405162461bcd60e51b81526004016105cd90613863565b611f60612994565b60015460009060ff6201000082048116916101008104821691611f8591166064613b07565b611f8f9190613b07565b611f999190613b07565b9050600060648260ff16611fb56001600b546103ec9190613af0565b611fbf9190613aa2565b611fc99190613a82565b9050801561211557604080516002808252606082018352600092602083019080368337019050509050730298c2b32eae4da002a15f36fdf7615bea3da0478160008151811061202857634e487b7160e01b600052603260045260246000fd5b60200260200101906001600160a01b031690816001600160a01b03168152505073271b54ebe36005a7296894f819d626161c44825c8160018151811061207e57634e487b7160e01b600052603260045260246000fd5b6001600160a01b039092166020928302919091019091015273d6dc3e48bc52fd6ff24f5318b537c46118e17f706338ed173983600084306120c142610708613a3f565b6040518663ffffffff1660e01b81526004016120e1959493929190613975565b600060405180830381600087803b1580156120fb57600080fd5b505af115801561210f573d6000803e3d6000fd5b50505050505b6040516370a0823160e01b815260009073271b54ebe36005a7296894f819d626161c44825c906370a082319061214f903090600401613421565b60206040518083038186803b15801561216757600080fd5b505afa15801561217b573d6000803e3d6000fd5b505050506040513d601f19601f8201168201806040525081019061219f9190613202565b9050601260009054906101000a90046001600160a01b03166001600160a01b031663e45be8eb6040518163ffffffff1660e01b8152600401602060405180830381600087803b1580156121f157600080fd5b505af1158015612205573d6000803e3d6000fd5b505050506040513d601f19601f820116820180604052508101906122299190613202565b8110612295576012546040516314c20d5760e01b81526001600160a01b03909116906314c20d5790612262908490601190600401613953565b600060405180830381600087803b15801561227c57600080fd5b505af1158015612290573d6000803e3d6000fd5b505050505b505050565b600f5460ff16151590565b60045481565b6002546001600160a01b031681565b6122c2612398565b6001600160a01b03166122d3611762565b6001600160a01b0316146122f95760405162461bcd60e51b81526004016105cd9061382e565b6001600160a01b03811661231f5760405162461bcd60e51b81526004016105cd90613651565b600080546040516001600160a01b03808516939216917f8be0079c531659141344cd1fd0a4f28419497f9722a3daafe3b4186f6b6457e091a3600080546001600160a01b0319166001600160a01b0392909216919091179055565b6005546001600160a01b031681565b6003546001600160a01b031681565b3390565b6000805b600481101561240e57600354600160a01b900460ff168382600481106123d657634e487b7160e01b600052603260045260246000fd5b602002015160ff1611156123fc5760405162461bcd60e51b81526004016105cd906135ed565b8061240681613b56565b9150506123a0565b50600254600b54604051620dce4760ea1b81526000926001600160a01b0316916337391c009161244691339188918a91600401613459565b602060405180830381600087803b15801561246057600080fd5b505af1158015612474573d6000803e3d6000fd5b505050506040513d601f19601f820116820180604052508101906124989190613202565b600b546000908152600760209081526040808320805460018101825590845282842001849055338352600a9091529020549091506124e257600c546124de906001613a3f565b600c555b336000908152600a6020908152604082208054600181018255908352912001819055600d54612512908590613a3f565b600d5542600e556000612524846111e2565b905060005b600b811015612610576125a18660096000600b54815260200190815260200160002060008585600b811061256d57634e487b7160e01b600052603260045260246000fd5b60200201516001600160401b03166001600160401b031681526020019081526020016000205461267290919063ffffffff16565b600b80546000908152600960205260408120918590859081106125d457634e487b7160e01b600052603260045260246000fd5b60200201516001600160401b03166001600160401b0316815260200190815260200160002081905550808061260890613b56565b915050612529565b5090949350505050565b610f18846323b872dd60e01b85858560405160240161263b93929190613435565b60408051601f198184030181529190526020810180516001600160e01b03166001600160e01b031990931692909217909152612b29565b600061267e8284613a3f565b9392505050565b6122958363a9059cbb60e01b848460405160240161263b9291906134aa565b60035481516020909201919091206001600160a01b90920460ff1690060190565b6126cd612e69565b6040805160808101918290526000916127239190600f906004908286855b825461010083900a900460ff168152602060019283018181049485019490930390920291018084116126eb57905050505050506111e2565b600b54600081815260096020818152604080842086516001600160401b039081168652818452828620548787528585528885015182168752828552838720549787529484528783015116855290915290912054929350916127849082613a3f565b600b54600090815260096020908152604080832060608801516001600160401b031684529091529020549091506127bb9082613a3f565b600b54600090815260096020908152604080832060808801516001600160401b031684529091529020549091506127f29082613a3f565b9050600061280b612804846004612bb8565b8390612bc4565b600b54600081815260096020818152604080842060a08b01516001600160401b0390811686528184528286205496865293835260c08b015190931684529190529020549192509061285c9082613a3f565b600b54600090815260096020908152604080832060e08a01516001600160401b031684529091529020549091506128939082613a3f565b600b5460009081526009602090815260408083206101008a01516001600160401b031684529091529020549091506128cb9082613a3f565b600b5460009081526009602090815260408083206101208a01516001600160401b031684529091529020549091506129039082613a3f565b600b5460009081526009602090815260408083206101408a01516001600160401b0316845290915290205490915061293b9082613a3f565b9050600061294a846003613aa2565b612955866006613aa2565b61295f9084613a3f565b6129699190613a3f565b60408051608081018252600d5481526020810197909752860193909352505060608301525091505090565b61299c61229a565b6129b85760405162461bcd60e51b81526004016105cd906138bf565b42600e556000600c819055600d55600f805463ffffffff191690556010805460ff19169055600b546129eb906001613a3f565b600b556000805b6003811015612a9d57612a186001600b54612a0d9190613af0565b610533836004613af0565b612a8b57606460018260038110612a3f57634e487b7160e01b600052603260045260246000fd5b602091828204019190069054906101000a900460ff1660ff16612a6a6001600b546103ec9190613af0565b612a749190613aa2565b612a7e9190613a82565b612a889083613a3f565b91505b80612a9581613b56565b9150506129f2565b508015612afa57604080516080810191829052612afa91839190601190600490826000855b825461010083900a900460ff16815260206001928301818104948501949093039092029101808411612ac25790505050505050612bd0565b600b546040517f01c3cbb0d62726ab09d163873ebf9aed99dd8dc08e57bc938f458132fd178cf690600090a250565b6000612b7e826040518060400160405280602081526020017f5361666545524332303a206c6f772d6c6576656c2063616c6c206661696c6564815250856001600160a01b0316612d5e9092919063ffffffff16565b8051909150156122955780806020019051810190612b9c91906131ca565b6122955760405162461bcd60e51b81526004016105cd906138e0565b600061267e8284613aa2565b600061267e8284613af0565b612bd861229a565b15612bf55760405162461bcd60e51b81526004016105cd906137f7565b60005b6004811015612c6657600354600160a01b900460ff16828260048110612c2e57634e487b7160e01b600052603260045260246000fd5b602002015160ff161115612c545760405162461bcd60e51b81526004016105cd90613697565b80612c5e81613b56565b915050612bf8565b50600254600b54604051620dce4760ea1b81526000926001600160a01b0316916337391c0091612c9e91309187918991600401613459565b602060405180830381600087803b158015612cb857600080fd5b505af1158015612ccc573d6000803e3d6000fd5b505050506040513d601f19601f82011682018060405250810190612cf09190613202565b600b54600090815260076020908152604082208054600181018255908352912001819055600d54909150612d25908490613a3f565b600d5542600e5560405130907fe3d4187f6ca4248660cc0ac8b8056515bac4a8132be2eca31d6d0cc170722a7e9061199f90849061394a565b6060612d6d8484600085612d75565b949350505050565b606082471015612d975760405162461bcd60e51b81526004016105cd906136c3565b612da085612e2a565b612dbc5760405162461bcd60e51b81526004016105cd90613888565b600080866001600160a01b03168587604051612dd89190613405565b60006040518083038185875af1925050503d8060008114612e15576040519150601f19603f3d011682016040523d82523d6000602084013e612e1a565b606091505b5091509150611f23828286612e30565b3b151590565b60608315612e3f57508161267e565b825115612e4f5782518084602001fd5b8160405162461bcd60e51b81526004016105cd919061359a565b60405180608001604052806004906020820280368337509192915050565b600183019183908215612f0a5791602002820160005b83821115612edb57835183826101000a81548160ff021916908360ff1602179055509260200192600101602081600001049283019260010302612e9d565b8015612f085782816101000a81549060ff0219169055600101602081600001049283019260010302612edb565b505b50612f16929150612fa7565b5090565b604051806101600160405280600b906020820280368337509192915050565b600183019183908215612f0a5791601f016020900482015b82811115612f0a578254825591600101919060010190612f51565b828054828255906000526020600020908101928215612f0a579160200282015b82811115612f0a578251825591602001919060010190612f8c565b5b80821115612f165760008155600101612fa8565b600082601f830112612fcc578081fd5b604051608081018181106001600160401b0382111715612fee57612fee613b87565b604052808360808101861015613002578384fd5b835b600481101561302d57813561301881613bb5565b83526020928301929190910190600101613004565b509195945050505050565b600060208284031215613049578081fd5b813561267e81613b9d565b600060208284031215613065578081fd5b815161267e81613b9d565b60008060408385031215613082578081fd5b823561308d81613b9d565b946020939093013593505050565b600060208083850312156130ad578182fd5b82356001600160401b038111156130c2578283fd5b8301601f810185136130d2578283fd5b80356130e56130e082613a1c565b6139f3565b8181528381019083850185840285018601891015613101578687fd5b8694505b83851015613123578035835260019490940193918501918501613105565b50979650505050505050565b600060808284031215613140578081fd5b61267e8383612fbc565b60006080828403121561315b578081fd5b82601f830112613169578081fd5b604051608081018181106001600160401b038211171561318b5761318b613b87565b60405280836080810186101561319f578384fd5b835b600481101561302d5781516131b581613bb5565b835260209283019291909101906001016131a1565b6000602082840312156131db578081fd5b8151801515811461267e578182fd5b6000602082840312156131fb578081fd5b5035919050565b600060208284031215613213578081fd5b5051919050565b6000806040838503121561322c578182fd5b823591506020808401356001600160401b03811115613249578283fd5b8401601f81018613613259578283fd5b80356132676130e082613a1c565b818152838101908385016080808502860187018b1015613285578788fd5b8795505b848610156132b15761329b8b83612fbc565b8452600195909501949286019290810190613289565b5096999098509650505050505050565b60008060a083850312156132d3578182fd5b823591506132e48460208501612fbc565b90509250929050565b600080604083850312156132ff578182fd5b50508035926020909101359150565b60008060408385031215613320578182fd5b8235915060208301356001600160401b038116811461333d578182fd5b809150509250929050565b600060208284031215613359578081fd5b813561267e81613bb5565b600080600060608486031215613378578081fd5b833561338381613bb5565b9250602084013561339381613bb5565b915060408401356133a381613bb5565b809150509250925092565b8060005b6004811015610f1857815160ff168452602093840193909101906001016133b2565b805460ff8116835260ff8160081c16602084015260ff8160101c16604084015260ff8160181c166060840152505050565b60008251613417818460208701613b2a565b9190910192915050565b6001600160a01b0391909116815260200190565b6001600160a01b039384168152919092166020820152604081019190915260600190565b6001600160a01b038516815260e0810161347660208301866133ae565b60a082019390935260c0015292915050565b6001600160a01b039290921682526001600160801b0316602082015260400190565b6001600160a01b03929092168252602082015260400190565b6020808252825182820181905260009190848201906040850190845b818110156134fb578351835292840192918401916001016134df565b50909695505050505050565b6101608101818360005b600b8110156135395781516001600160401b0316835260209283019290910190600101613511565b50505092915050565b60808101611bc582846133ae565b60808101611bc582846133d4565b901515815260200190565b9283526020830191909152604082015260600190565b93845260208401929092526040830152606082015260800190565b60006020825282518060208401526135b9816040850160208701613b2a565b601f01601f19169190910160400192915050565b60208082526006908201526572657365743f60d01b604082015260600190565b602080825260139082015272657863656564206e756d6265722073636f706560681b604082015260600190565b60208082526019908201527f5f6973737565496e646578203c3d206973737565496e64657800000000000000604082015260600190565b60208082526026908201527f4f776e61626c653a206e6577206f776e657220697320746865207a65726f206160408201526564647265737360d01b606082015260800190565b60208082526012908201527165786365656420746865206d6178696d756d60701b604082015260600190565b60208082526026908201527f416464726573733a20696e73756666696369656e742062616c616e636520666f6040820152651c8818d85b1b60d21b606082015260800190565b6020808252600e908201526d3737ba10333937b69037bbb732b960911b604082015260600190565b60208082526019908201527f656e7465722064726177696e6720706861736520666972737400000000000000604082015260600190565b60208082526007908201526618db185a5b595960ca1b604082015260600190565b60208082526018908201527f64726177696e672c2063616e206e6f7420627579206e6f770000000000000000604082015260600190565b60208082526019908201527f7072696365206d7573742061626f7665206d696e507269636500000000000000604082015260600190565b60208082526017908201527f6472617765642c2063616e206e6f7420627579206e6f77000000000000000000604082015260600190565b6020808252818101527f4f776e61626c653a2063616c6c6572206973206e6f7420746865206f776e6572604082015260600190565b6020808252600b908201526a61646d696e3a207775743f60a81b604082015260600190565b6020808252601d908201527f416464726573733a2063616c6c20746f206e6f6e2d636f6e7472616374000000604082015260600190565b6020808252600790820152666472617765643f60c81b604082015260600190565b6020808252602a908201527f5361666545524332303a204552433230206f7065726174696f6e20646964206e6040820152691bdd081cdd58d8d9595960b21b606082015260800190565b602080825260069082015265191c985dd95960d21b604082015260600190565b90815260200190565b82815260a0810161267e60208301846133d4565b918252602082015260400190565b600060a082018783526020878185015260a0604085015281875180845260c0860191508289019350845b818110156139c45784516001600160a01b03168352938301939183019160010161399f565b50506001600160a01b03969096166060850152505050608001529392505050565b60ff91909116815260200190565b6040518181016001600160401b0381118282101715613a1457613a14613b87565b604052919050565b60006001600160401b03821115613a3557613a35613b87565b5060209081020190565b60008219821115613a5257613a52613b71565b500190565b60006001600160401b03808316818516808303821115613a7957613a79613b71565b01949350505050565b600082613a9d57634e487b7160e01b81526012600452602481fd5b500490565b6000816000190483118215151615613abc57613abc613b71565b500290565b60006001600160401b0380831681851681830481118215151615613ae757613ae7613b71565b02949350505050565b600082821015613b0257613b02613b71565b500390565b600060ff821660ff841680821015613b2157613b21613b71565b90039392505050565b60005b83811015613b45578181015183820152602001613b2d565b83811115610f185750506000910152565b6000600019821415613b6a57613b6a613b71565b5060010190565b634e487b7160e01b600052601160045260246000fd5b634e487b7160e01b600052604160045260246000fd5b6001600160a01b0381168114613bb257600080fd5b50565b60ff81168114613bb257600080fdfea2646970667358221220dffca8565b2267035da650df98304f6a71f07f64cd1c6df2e9203aa75db2430764736f6c63430008000033",
  "immutableReferences": {},
  "source": "// SPDX-License-Identifier: MIT\r\npragma solidity 0.8.0;\r\nimport \"./Lottery.sol\";\r\n\r\n/**\r\n * @title Lotto lottery contract with 4 numbers\r\n * Deployment sequence:\r\n * 1. Deploy LotteryNFT\r\n * 2. Deploy the current contract LotteryHUSD\r\n * 3. Set LotteryNFT.setAdmin()\r\n * Operation sequence:\r\n * 1. Purchase buy() || multiBuy()\r\n * 2. Enter the lottery stage enterDrawingPhase()\r\n * 3. Drawing()\r\n * 4. Reset reset()\r\n */\r\ncontract LotteryHUSD is Lottery {\r\n    /// @notice HUSD address is used to purchase lottery tokens\r\n    address public constant HUSD = 0x0298c2b32eaE4da002a15f36fdf7615BEa3DA047;\r\n    /// @notice GOC address\r\n    address public constant GOC = 0x271B54EBe36005A7296894F819D626161C44825C;\r\n    /// @notice Lottery GOC address\r\n    address public lotteryGOC;\r\n\r\n    /**\r\n     * @dev constructor\r\n     * @param _lotteryNFT Lottery NFT address\r\n     */\r\n    constructor(ILotteryNFT _lotteryNFT, address _lotteryGOC) Lottery(_lotteryNFT, HUSD) {\r\n        // set address\r\n        lotteryGOC = _lotteryGOC;\r\n        // Approve unlimited HUSD\r\n        IERC20(GOC).approve(lotteryGOC, type(uint128).max);\r\n        // Approve unlimited HUSD\r\n        IERC20(HUSD).approve(GOSWAP_ROUTER, type(uint128).max);\r\n        // minimum selling price\r\n        minPrice =  100000000 ;\r\n    }\r\n\r\n    /**\r\n     * @dev reset\r\n     */\r\n    function reset() public override onlyAdmin {\r\n        super.reset();\r\n        // Destroyed amount = Last total bonus * (100-first prize + second prize + third prize) allocation ratio / 100\r\n        uint8 _allocation = uint8(uint8(100) - (allocation[0]) - (allocation[1]) - (allocation[2]));\r\n        uint256 amount = getTotalRewards(issueIndex - 1) * (_allocation) / (100);\r\n        if (amount > 0) {\r\n            // Transaction path HUSD=>GOC\r\n            address[] memory path = new address[](2);\r\n            path[0] = HUSD;\r\n            path[1] = GOC;\r\n            // Call the routing contract to exchange HUSD for GOC\r\n            Uni(GOSWAP_ROUTER).swapExactTokensForTokens(amount, uint256(0), path, address(this), block.timestamp + (1800));\r\n        }\r\n        // GOC balance of the current contract\r\n        uint256 GOCBalance = IERC20(GOC).balanceOf(address(this));\r\n        // GOC balance needs to be greater than the minimum price\r\n        if (GOCBalance >= ILottery(lotteryGOC).minPrice()) {\r\n            // buy GOC lottery\r\n            ILottery(lotteryGOC).buy(GOCBalance, nullTicket);\r\n        }\r\n    }\r\n\r\n    /**\r\n     * @dev set LotteryGOC\r\n     * @param _lotteryGOC lotteryGOC address\r\n     */\r\n    function setLotteryGOC(address _lotteryGOC) external onlyOwner {\r\n        // If the lotteryGOC address is not 0\r\n        if (lotteryGOC != address(0)) {\r\n            // Cancel authorization\r\n            IERC20(GOC).approve(lotteryGOC, uint256(0));\r\n        }\r\n        // set address\r\n        lotteryGOC = _lotteryGOC;\r\n        // Approve unlimited HUSD\r\n        IERC20(GOC).approve(lotteryGOC,  type(uint128).max);\r\n    }\r\n}",
  "sourcePath": "C:/Users/USER/Documents/philip_projects/Meter projects/lottery/contracts/LotteryHUSD.sol",
  "compiler": {
    "name": "solc",
    "version": "0.8.0+commit.c7dfd78e.Emscripten.clang"
  },
  "schemaVersion": "3.4.0",
  "updatedAt": "2021-05-04T10:59:11.821Z",
  "devdoc": {
    "kind": "dev",
    "methods": {
      "adminWithdraw(uint256)": {
        "details": "does not care about rewards when exiting. Emergency only",
        "params": {
          "_amount": "amount"
        }
      },
      "buy(uint256,uint8[4])": {
        "details": "purchase",
        "params": {
          "_numbers": "number array",
          "_price": "price"
        }
      },
      "claimReward(uint256)": {
        "details": "receive rewards",
        "params": {
          "_tokenId": "NFT Token ID"
        }
      },
      "constructor": {
        "details": "constructor",
        "params": {
          "_lotteryNFT": "Lottery NFT address"
        }
      },
      "drawed()": {
        "details": "After the draw"
      },
      "drawing(uint256)": {
        "details": "draw",
        "params": {
          "_externalRandomNumber": "external random number"
        }
      },
      "enterDrawingPhase()": {
        "details": "enters the lottery stage, you must enter the lottery stage before the lottery is drawn"
      },
      "generateNumberIndexKey(uint8[4])": {
        "details": "calculates the number index"
      },
      "getHistoryAmount(uint256)": {
        "details": "Get the historical winning amount",
        "params": {
          "_issueIndex": "release index"
        },
        "returns": {
          "_amount": "winning amount"
        }
      },
      "getHistoryNumbers(uint256)": {
        "details": "Get historical winning numbers",
        "params": {
          "_issueIndex": "release index"
        },
        "returns": {
          "_numbers": "array of winning numbers"
        }
      },
      "getLotteryInfo(uint256)": {
        "details": "obtains the NFT Token ID according to the issue id",
        "params": {
          "_issueIndex": "release index"
        },
        "returns": {
          "_tokenIds": "NFT Token ID"
        }
      },
      "getMatchingRewardAmount(uint256,uint256)": {
        "details": "Get the matching bonus amount",
        "params": {
          "_issueIndex": "release index",
          "_matchingNumber": "matches several numbers, range [2,3,4], if the value is 5, the return is the total prize pool amount"
        }
      },
      "getRewardView(uint256)": {
        "details": "returns the winning amount",
        "params": {
          "_tokenId": "NFT Token ID"
        }
      },
      "getTotalRewards(uint256)": {
        "details": "returns the total number of historical prize pools",
        "params": {
          "_issueIndex": "release index"
        }
      },
      "getUserInfo(address)": {
        "details": "Get all NFTs of the user",
        "params": {
          "_user": "user address"
        },
        "returns": {
          "_tokenIds": "NFT Token ID"
        }
      },
      "multiBuy(uint256,uint8[4][])": {
        "details": "bulk purchase",
        "params": {
          "_numbers": "number array",
          "_price": "price"
        }
      },
      "multiClaim(uint256[])": {
        "details": "Collect in batches",
        "params": {
          "_tickets": "NFT Token ID array"
        }
      },
      "owner()": {
        "details": "Returns the address of the current owner."
      },
      "renounceOwnership()": {
        "details": "Leaves the contract without owner. It will not be possible to call `onlyOwner` functions anymore. Can only be called by the current owner. NOTE: Renouncing ownership will leave the contract without an owner, thereby removing any functionality that is only available to the owner."
      },
      "reset()": {
        "details": "reset"
      },
      "setAdmin(address)": {
        "details": "Update the administrator address through the previous developer",
        "params": {
          "_adminAddress": "administrator address"
        }
      },
      "setAllocation(uint8,uint8,uint8)": {
        "details": "set the prize pool distribution ratio",
        "params": {
          "_allcation1": "Allocation ratio 1 50%",
          "_allcation2": "Allocation ratio 2 20%",
          "_allcation3": "Allocation ratio 3 10%"
        }
      },
      "setLotteryGOC(address)": {
        "details": "set LotteryGOC",
        "params": {
          "_lotteryGOC": "lotteryGOC address"
        }
      },
      "setMaxNumber(uint8)": {
        "details": "sets the maximum number",
        "params": {
          "_maxNumber": "maximum number"
        }
      },
      "setMinPrice(uint256)": {
        "details": "sets the lowest price for a ticket",
        "params": {
          "_price": "price"
        }
      },
      "transferOwnership(address)": {
        "details": "Transfers ownership of the contract to a new account (`newOwner`). Can only be called by the current owner."
      }
    },
    "title": "Lotto lottery contract with 4 numbers Deployment sequence: 1. Deploy LotteryNFT 2. Deploy the current contract LotteryHUSD 3. Set LotteryNFT.setAdmin() Operation sequence: 1. Purchase buy() || multiBuy() 2. Enter the lottery stage enterDrawingPhase() 3. Drawing() 4. Reset reset()",
    "version": 1
  },
  "userdoc": {
    "kind": "user",
    "methods": {
      "GOC()": {
        "notice": "GOC address"
      },
      "GOSWAP_ROUTER()": {
        "notice": "GoSwap routing address"
      },
      "HUSD()": {
        "notice": "HUSD address is used to purchase lottery tokens"
      },
      "drawing(uint256)": {
        "notice": "adds an external random number to prevent the node verification program from using it"
      },
      "generateNumberIndexKey(uint8[4])": {
        "notice": "4 winning numbers have 11 winning combinations"
      },
      "getRewardView(uint256)": {
        "notice": "bonus calculation formula: purchase price / prize pool quantity * prize pool bonus"
      },
      "lotteryGOC()": {
        "notice": "Lottery GOC address"
      },
      "token()": {
        "notice": "Token for buying lottery tickets"
      }
    },
    "version": 1
  }
}