{
  "contractName": "LotteryGOC",
  "abi": [
    {
      "inputs": [
        {
          "internalType": "contract ILotteryNFT",
          "name": "_lotteryNFT",
          "type": "address"
        }
      ],
      "stateMutability": "nonpayable",
      "type": "constructor"
    },
    {
      "anonymous": false,
      "inputs": [
        {
          "indexed": true,
          "internalType": "address",
          "name": "user",
          "type": "address"
        },
        {
          "indexed": false,
          "internalType": "uint256",
          "name": "tokenId",
          "type": "uint256"
        }
      ],
      "name": "Buy",
      "type": "event"
    },
    {
      "anonymous": false,
      "inputs": [
        {
          "indexed": true,
          "internalType": "address",
          "name": "user",
          "type": "address"
        },
        {
          "indexed": false,
          "internalType": "uint256",
          "name": "tokenid",
          "type": "uint256"
        },
        {
          "indexed": false,
          "internalType": "uint256",
          "name": "amount",
          "type": "uint256"
        }
      ],
      "name": "Claim",
      "type": "event"
    },
    {
      "anonymous": false,
      "inputs": [
        {
          "indexed": true,
          "internalType": "address",
          "name": "user",
          "type": "address"
        },
        {
          "indexed": false,
          "internalType": "uint256",
          "name": "amount",
          "type": "uint256"
        }
      ],
      "name": "DevWithdraw",
      "type": "event"
    },
    {
      "anonymous": false,
      "inputs": [
        {
          "indexed": true,
          "internalType": "uint256",
          "name": "issueIndex",
          "type": "uint256"
        },
        {
          "indexed": false,
          "internalType": "uint8[4]",
          "name": "winningNumbers",
          "type": "uint8[4]"
        }
      ],
      "name": "Drawing",
      "type": "event"
    },
    {
      "anonymous": false,
      "inputs": [
        {
          "indexed": true,
          "internalType": "address",
          "name": "user",
          "type": "address"
        },
        {
          "indexed": false,
          "internalType": "uint256",
          "name": "amount",
          "type": "uint256"
        }
      ],
      "name": "MultiBuy",
      "type": "event"
    },
    {
      "anonymous": false,
      "inputs": [
        {
          "indexed": true,
          "internalType": "address",
          "name": "user",
          "type": "address"
        },
        {
          "indexed": false,
          "internalType": "uint256",
          "name": "amount",
          "type": "uint256"
        }
      ],
      "name": "MultiClaim",
      "type": "event"
    },
    {
      "anonymous": false,
      "inputs": [
        {
          "indexed": true,
          "internalType": "address",
          "name": "previousOwner",
          "type": "address"
        },
        {
          "indexed": true,
          "internalType": "address",
          "name": "newOwner",
          "type": "address"
        }
      ],
      "name": "OwnershipTransferred",
      "type": "event"
    },
    {
      "anonymous": false,
      "inputs": [
        {
          "indexed": true,
          "internalType": "uint256",
          "name": "issueIndex",
          "type": "uint256"
        }
      ],
      "name": "Reset",
      "type": "event"
    },
    {
      "inputs": [],
      "name": "GOC",
      "outputs": [
        {
          "internalType": "address",
          "name": "",
          "type": "address"
        }
      ],
      "stateMutability": "view",
      "type": "function"
    },
    {
      "inputs": [],
      "name": "GOSWAP_ROUTER",
      "outputs": [
        {
          "internalType": "address",
          "name": "",
          "type": "address"
        }
      ],
      "stateMutability": "view",
      "type": "function"
    },
    {
      "inputs": [],
      "name": "GOT",
      "outputs": [
        {
          "internalType": "address",
          "name": "",
          "type": "address"
        }
      ],
      "stateMutability": "view",
      "type": "function"
    },
    {
      "inputs": [],
      "name": "adminAddress",
      "outputs": [
        {
          "internalType": "address",
          "name": "",
          "type": "address"
        }
      ],
      "stateMutability": "view",
      "type": "function"
    },
    {
      "inputs": [
        {
          "internalType": "uint256",
          "name": "_amount",
          "type": "uint256"
        }
      ],
      "name": "adminWithdraw",
      "outputs": [],
      "stateMutability": "nonpayable",
      "type": "function"
    },
    {
      "inputs": [
        {
          "internalType": "uint256",
          "name": "",
          "type": "uint256"
        }
      ],
      "name": "allocation",
      "outputs": [
        {
          "internalType": "uint8",
          "name": "",
          "type": "uint8"
        }
      ],
      "stateMutability": "view",
      "type": "function"
    },
    {
      "inputs": [
        {
          "internalType": "uint256",
          "name": "_price",
          "type": "uint256"
        },
        {
          "internalType": "uint8[4]",
          "name": "_numbers",
          "type": "uint8[4]"
        }
      ],
      "name": "buy",
      "outputs": [],
      "stateMutability": "nonpayable",
      "type": "function"
    },
    {
      "inputs": [
        {
          "internalType": "uint256",
          "name": "_tokenId",
          "type": "uint256"
        }
      ],
      "name": "claimReward",
      "outputs": [],
      "stateMutability": "nonpayable",
      "type": "function"
    },
    {
      "inputs": [],
      "name": "drawed",
      "outputs": [
        {
          "internalType": "bool",
          "name": "",
          "type": "bool"
        }
      ],
      "stateMutability": "view",
      "type": "function"
    },
    {
      "inputs": [
        {
          "internalType": "uint256",
          "name": "_externalRandomNumber",
          "type": "uint256"
        }
      ],
      "name": "drawing",
      "outputs": [],
      "stateMutability": "nonpayable",
      "type": "function"
    },
    {
      "inputs": [],
      "name": "drawingPhase",
      "outputs": [
        {
          "internalType": "bool",
          "name": "",
          "type": "bool"
        }
      ],
      "stateMutability": "view",
      "type": "function"
    },
    {
      "inputs": [],
      "name": "enterDrawingPhase",
      "outputs": [],
      "stateMutability": "nonpayable",
      "type": "function"
    },
    {
      "inputs": [
        {
          "internalType": "uint8[4]",
          "name": "number",
          "type": "uint8[4]"
        }
      ],
      "name": "generateNumberIndexKey",
      "outputs": [
        {
          "internalType": "uint64[11]",
          "name": "",
          "type": "uint64[11]"
        }
      ],
      "stateMutability": "pure",
      "type": "function"
    },
    {
      "inputs": [
        {
          "internalType": "uint256",
          "name": "_issueIndex",
          "type": "uint256"
        }
      ],
      "name": "getHistoryAmount",
      "outputs": [
        {
          "internalType": "uint256[]",
          "name": "_amount",
          "type": "uint256[]"
        }
      ],
      "stateMutability": "view",
      "type": "function"
    },
    {
      "inputs": [
        {
          "internalType": "uint256",
          "name": "_issueIndex",
          "type": "uint256"
        }
      ],
      "name": "getHistoryNumbers",
      "outputs": [
        {
          "internalType": "uint8[4]",
          "name": "_numbers",
          "type": "uint8[4]"
        }
      ],
      "stateMutability": "view",
      "type": "function"
    },
    {
      "inputs": [
        {
          "internalType": "uint256",
          "name": "_issueIndex",
          "type": "uint256"
        }
      ],
      "name": "getLotteryInfo",
      "outputs": [
        {
          "internalType": "uint256[]",
          "name": "_tokenIds",
          "type": "uint256[]"
        }
      ],
      "stateMutability": "view",
      "type": "function"
    },
    {
      "inputs": [
        {
          "internalType": "uint256",
          "name": "_issueIndex",
          "type": "uint256"
        },
        {
          "internalType": "uint256",
          "name": "_matchingNumber",
          "type": "uint256"
        }
      ],
      "name": "getMatchingRewardAmount",
      "outputs": [
        {
          "internalType": "uint256",
          "name": "",
          "type": "uint256"
        }
      ],
      "stateMutability": "view",
      "type": "function"
    },
    {
      "inputs": [
        {
          "internalType": "uint256",
          "name": "_tokenId",
          "type": "uint256"
        }
      ],
      "name": "getRewardView",
      "outputs": [
        {
          "internalType": "uint256",
          "name": "",
          "type": "uint256"
        }
      ],
      "stateMutability": "view",
      "type": "function"
    },
    {
      "inputs": [
        {
          "internalType": "uint256",
          "name": "_issueIndex",
          "type": "uint256"
        }
      ],
      "name": "getTotalRewards",
      "outputs": [
        {
          "internalType": "uint256",
          "name": "",
          "type": "uint256"
        }
      ],
      "stateMutability": "view",
      "type": "function"
    },
    {
      "inputs": [
        {
          "internalType": "address",
          "name": "_user",
          "type": "address"
        }
      ],
      "name": "getUserInfo",
      "outputs": [
        {
          "internalType": "uint256[]",
          "name": "_tokenIds",
          "type": "uint256[]"
        }
      ],
      "stateMutability": "view",
      "type": "function"
    },
    {
      "inputs": [
        {
          "internalType": "uint256",
          "name": "",
          "type": "uint256"
        },
        {
          "internalType": "uint256",
          "name": "",
          "type": "uint256"
        }
      ],
      "name": "historyAmount",
      "outputs": [
        {
          "internalType": "uint256",
          "name": "",
          "type": "uint256"
        }
      ],
      "stateMutability": "view",
      "type": "function"
    },
    {
      "inputs": [
        {
          "internalType": "uint256",
          "name": "",
          "type": "uint256"
        },
        {
          "internalType": "uint256",
          "name": "",
          "type": "uint256"
        }
      ],
      "name": "historyNumbers",
      "outputs": [
        {
          "internalType": "uint8",
          "name": "",
          "type": "uint8"
        }
      ],
      "stateMutability": "view",
      "type": "function"
    },
    {
      "inputs": [],
      "name": "issueIndex",
      "outputs": [
        {
          "internalType": "uint256",
          "name": "",
          "type": "uint256"
        }
      ],
      "stateMutability": "view",
      "type": "function"
    },
    {
      "inputs": [],
      "name": "lastTimestamp",
      "outputs": [
        {
          "internalType": "uint256",
          "name": "",
          "type": "uint256"
        }
      ],
      "stateMutability": "view",
      "type": "function"
    },
    {
      "inputs": [
        {
          "internalType": "uint256",
          "name": "",
          "type": "uint256"
        },
        {
          "internalType": "uint256",
          "name": "",
          "type": "uint256"
        }
      ],
      "name": "lotteryInfo",
      "outputs": [
        {
          "internalType": "uint256",
          "name": "",
          "type": "uint256"
        }
      ],
      "stateMutability": "view",
      "type": "function"
    },
    {
      "inputs": [],
      "name": "lotteryNFT",
      "outputs": [
        {
          "internalType": "contract ILotteryNFT",
          "name": "",
          "type": "address"
        }
      ],
      "stateMutability": "view",
      "type": "function"
    },
    {
      "inputs": [],
      "name": "maxNumber",
      "outputs": [
        {
          "internalType": "uint8",
          "name": "",
          "type": "uint8"
        }
      ],
      "stateMutability": "view",
      "type": "function"
    },
    {
      "inputs": [],
      "name": "minPrice",
      "outputs": [
        {
          "internalType": "uint256",
          "name": "",
          "type": "uint256"
        }
      ],
      "stateMutability": "view",
      "type": "function"
    },
    {
      "inputs": [
        {
          "internalType": "uint256",
          "name": "_price",
          "type": "uint256"
        },
        {
          "internalType": "uint8[4][]",
          "name": "_numbers",
          "type": "uint8[4][]"
        }
      ],
      "name": "multiBuy",
      "outputs": [],
      "stateMutability": "nonpayable",
      "type": "function"
    },
    {
      "inputs": [
        {
          "internalType": "uint256[]",
          "name": "_tickets",
          "type": "uint256[]"
        }
      ],
      "name": "multiClaim",
      "outputs": [],
      "stateMutability": "nonpayable",
      "type": "function"
    },
    {
      "inputs": [],
      "name": "owner",
      "outputs": [
        {
          "internalType": "address",
          "name": "",
          "type": "address"
        }
      ],
      "stateMutability": "view",
      "type": "function"
    },
    {
      "inputs": [],
      "name": "renounceOwnership",
      "outputs": [],
      "stateMutability": "nonpayable",
      "type": "function"
    },
    {
      "inputs": [
        {
          "internalType": "address",
          "name": "_adminAddress",
          "type": "address"
        }
      ],
      "name": "setAdmin",
      "outputs": [],
      "stateMutability": "nonpayable",
      "type": "function"
    },
    {
      "inputs": [
        {
          "internalType": "uint8",
          "name": "_allcation1",
          "type": "uint8"
        },
        {
          "internalType": "uint8",
          "name": "_allcation2",
          "type": "uint8"
        },
        {
          "internalType": "uint8",
          "name": "_allcation3",
          "type": "uint8"
        }
      ],
      "name": "setAllocation",
      "outputs": [],
      "stateMutability": "nonpayable",
      "type": "function"
    },
    {
      "inputs": [
        {
          "internalType": "uint8",
          "name": "_maxNumber",
          "type": "uint8"
        }
      ],
      "name": "setMaxNumber",
      "outputs": [],
      "stateMutability": "nonpayable",
      "type": "function"
    },
    {
      "inputs": [
        {
          "internalType": "uint256",
          "name": "_price",
          "type": "uint256"
        }
      ],
      "name": "setMinPrice",
      "outputs": [],
      "stateMutability": "nonpayable",
      "type": "function"
    },
    {
      "inputs": [],
      "name": "token",
      "outputs": [
        {
          "internalType": "address",
          "name": "",
          "type": "address"
        }
      ],
      "stateMutability": "view",
      "type": "function"
    },
    {
      "inputs": [],
      "name": "totalAddresses",
      "outputs": [
        {
          "internalType": "uint256",
          "name": "",
          "type": "uint256"
        }
      ],
      "stateMutability": "view",
      "type": "function"
    },
    {
      "inputs": [],
      "name": "totalAmount",
      "outputs": [
        {
          "internalType": "uint256",
          "name": "",
          "type": "uint256"
        }
      ],
      "stateMutability": "view",
      "type": "function"
    },
    {
      "inputs": [
        {
          "internalType": "address",
          "name": "newOwner",
          "type": "address"
        }
      ],
      "name": "transferOwnership",
      "outputs": [],
      "stateMutability": "nonpayable",
      "type": "function"
    },
    {
      "inputs": [
        {
          "internalType": "uint256",
          "name": "",
          "type": "uint256"
        },
        {
          "internalType": "uint64",
          "name": "",
          "type": "uint64"
        }
      ],
      "name": "userBuyAmountSum",
      "outputs": [
        {
          "internalType": "uint256",
          "name": "",
          "type": "uint256"
        }
      ],
      "stateMutability": "view",
      "type": "function"
    },
    {
      "inputs": [
        {
          "internalType": "address",
          "name": "",
          "type": "address"
        },
        {
          "internalType": "uint256",
          "name": "",
          "type": "uint256"
        }
      ],
      "name": "userInfo",
      "outputs": [
        {
          "internalType": "uint256",
          "name": "",
          "type": "uint256"
        }
      ],
      "stateMutability": "view",
      "type": "function"
    },
    {
      "inputs": [
        {
          "internalType": "uint256",
          "name": "",
          "type": "uint256"
        }
      ],
      "name": "winningNumbers",
      "outputs": [
        {
          "internalType": "uint8",
          "name": "",
          "type": "uint8"
        }
      ],
      "stateMutability": "view",
      "type": "function"
    },
    {
      "inputs": [],
      "name": "reset",
      "outputs": [],
      "stateMutability": "nonpayable",
      "type": "function"
    }
  ],
  "bytecode": "0x6003805460ff60a01b1916600760a11b1790556000600b819055600c819055600d819055610100604052608081815260a082905260c082905260e0919091526200004e9060119060046200022b565b503480156200005c57600080fd5b5060405162003cb738038062003cb78339810160408190526200007f9162000305565b80738a419ef4941355476cf04933e90bf3bbf2f738146000620000a162000227565b600080546001600160a01b0319166001600160a01b0383169081178255604051929350917f8be0079c531659141344cd1fd0a4f28419497f9722a3daafe3b4186f6b6457e0908290a350600280546001600160a01b0384166001600160a01b031991821617909155600380549091163317815542600e556040805160608101825260328152601e6020820152600a918101919091526200014591600191906200022b565b50600580546001600160a01b0319166001600160a01b03929092169190911790555060405163095ea7b360e01b8152738a419ef4941355476cf04933e90bf3bbf2f738149063095ea7b390620001bd9073d6dc3e48bc52fd6ff24f5318b537c46118e17f70906001600160801b03906004016200032e565b602060405180830381600087803b158015620001d857600080fd5b505af1158015620001ed573d6000803e3d6000fd5b505050506040513d601f19601f82011682018060405250810190620002139190620002dc565b5050670de0b6b3a764000060045562000350565b3390565b600183019183908215620002b35791602002820160005b838211156200028257835183826101000a81548160ff021916908360ff160217905550926020019260010160208160000104928301926001030262000242565b8015620002b15782816101000a81549060ff021916905560010160208160000104928301926001030262000282565b505b50620002c1929150620002c5565b5090565b5b80821115620002c15760008155600101620002c6565b600060208284031215620002ee578081fd5b81518015158114620002fe578182fd5b9392505050565b60006020828403121562000317578081fd5b81516001600160a01b0381168114620002fe578182fd5b6001600160a01b039290921682526001600160801b0316602082015260400190565b61395780620003606000396000f3fe608060405234801561001057600080fd5b50600436106102745760003560e01c8063704b6c0211610151578063c4dd5cef116100c3578063e134541611610087578063e134541614610522578063e45be8eb1461052a578063e8adfbc714610532578063f2fde38b1461053a578063fc0c546a1461054d578063fc6f94681461055557610274565b8063c4dd5cef146104e4578063cfad5277146104ec578063d1f7dbcf146104f4578063d411b0fa14610507578063d826f88f1461051a57610274565b806385dcdf1b1161011557806385dcdf1b1461047b5780638a2f7a7f1461049b5780638da5cb5b146104a3578063a42206c9146104ab578063ae169a50146104be578063c39f49c0146104d157610274565b8063704b6c0214610427578063715018a61461043a57806376b3c8a8146104425780637c5b4a3714610455578063850bad941461046857610274565b80633a4f6999116101ea57806359bcbd68116101ae57806359bcbd68146103c05780635c17623a146103d35780635ea8cd12146103e65780636386c1c7146103f95780636575243f1461040c5780636a28f8281461041f57610274565b80633a4f69991461035d578063438209f5146103725780634e45f095146103875780634ed73d281461039a578063552164ee146103ad57610274565b8063229dea131161023c578063229dea13146102cf5780632bdff851146102ef5780632f506b20146103025780633061d56814610315578063324a55621461032a57806338a10ef71461033d57610274565b806314c20d571461027957806319d8ac611461028e5780631a39d8ef146102ac5780631ff68866146102b457806321ce919d146102bc575b600080fd5b61028c610287366004613060565b61055d565b005b61029661063f565b6040516102a391906136bb565b60405180910390f35b610296610645565b61028c61064b565b6102966102ca366004612e0f565b6106a9565b6102e26102dd366004612f89565b6106da565b6040516102a3919061320f565b61028c6102fd366004612fb9565b61073c565b6102966103103660046130ad565b610856565b61031d610873565b6040516102a3919061318f565b61028c6103383660046130e7565b61088b565b61035061034b366004612f89565b6108ea565b6040516102a3919061328e565b61036561094e565b6040516102a39190613742565b61037a61095e565b6040516102a391906132cf565b610365610395366004612f89565b610967565b61028c6103a8366004612e3a565b610991565b6102966103bb366004612f89565b610bfe565b6103656103ce36600461308c565b610c86565b61028c6103e1366004613103565b610cbf565b61028c6103f4366004612f89565b610d34565b6102e2610407366004612dd7565b610d78565b61029661041a36600461308c565b610de2565b610296610dfe565b61028c610435366004612dd7565b610e04565b61028c610e65565b6102e2610450366004612f89565b610eee565b61028c610463366004612f89565b610f4e565b610365610476366004612f89565b610fe8565b61048e610489366004612ece565b610ff8565b6040516102a39190613253565b61031d611560565b61031d611578565b61028c6104b9366004612f89565b611587565b61028c6104cc366004612f89565b6117b3565b6102966104df36600461308c565b611969565b61031d611985565b61029661199d565b61029661050236600461308c565b6119a3565b610296610515366004612f89565b6119ee565b61028c611d51565b61037a612039565b610296612044565b61031d61204a565b61028c610548366004612dd7565b612059565b61031d612119565b61031d612128565b81610566612039565b1561058c5760405162461bcd60e51b815260040161058390613568565b60405180910390fd5b60105460ff16156105af5760405162461bcd60e51b8152600401610583906134fa565b6004548110156105d15760405162461bcd60e51b815260040161058390613531565b60006105dd8484612137565b6005549091506105f8906001600160a01b03163330876123b5565b336001600160a01b03167fe3d4187f6ca4248660cc0ac8b8056515bac4a8132be2eca31d6d0cc170722a7e8260405161063191906136bb565b60405180910390a250505050565b600e5481565b600d5481565b6003546001600160a01b031633146106755760405162461bcd60e51b8152600401610583906135d4565b61067d612039565b1561069a5760405162461bcd60e51b81526004016105839061369b565b6010805460ff19166001179055565b600a60205281600052604060002081815481106106c557600080fd5b90600052602060002001600091509150505481565b60008181526008602090815260409182902080548351818402810184019094528084526060939283018282801561073057602002820191906000526020600020905b81548152602001906001019080831161071c575b50505050509050919050565b81610745612039565b156107625760405162461bcd60e51b815260040161058390613568565b60105460ff16156107855760405162461bcd60e51b8152600401610583906134fa565b6004548110156107a75760405162461bcd60e51b815260040161058390613531565b6000805b8351811015610804576107e5858583815181106107d857634e487b7160e01b600052603260045260246000fd5b6020026020010151612137565b506107f0828661240d565b9150806107fc816138b3565b9150506107ab565b5060055461081d906001600160a01b03163330846123b5565b336001600160a01b03167f96c35ad1cc1743f26cb87980c38042de8082358ec6d171a7986d6e11dddfe8578260405161063191906136bb565b600960209081526000928352604080842090915290825290205481565b738a419ef4941355476cf04933e90bf3bbf2f7381481565b610893612420565b6001600160a01b03166108a4611578565b6001600160a01b0316146108ca5760405162461bcd60e51b81526004016105839061359f565b6003805460ff909216600160a01b0260ff60a01b19909216919091179055565b6108f2612c08565b600082815260066020526040808220815160808101928390529290916004918390855b825461010083900a900460ff16815260206001928301818104948501949093039092029101808411610915575094979650505050505050565b600354600160a01b900460ff1681565b60105460ff1681565b600f816004811061097757600080fd5b60209182820401919006915054906101000a900460ff1681565b6000805b8251811015610b9b5760025483516001600160a01b0390911690636352211e908590849081106109d557634e487b7160e01b600052603260045260246000fd5b60200260200101516040518263ffffffff1660e01b81526004016109f991906136bb565b60206040518083038186803b158015610a1157600080fd5b505afa158015610a25573d6000803e3d6000fd5b505050506040513d601f19601f82011682018060405250810190610a499190612df3565b6001600160a01b0316336001600160a01b031614610a795760405162461bcd60e51b81526004016105839061347a565b60025483516001600160a01b03909116906336dbd2f990859084908110610ab057634e487b7160e01b600052603260045260246000fd5b60200260200101516040518263ffffffff1660e01b8152600401610ad491906136bb565b60206040518083038186803b158015610aec57600080fd5b505afa158015610b00573d6000803e3d6000fd5b505050506040513d601f19601f82011682018060405250810190610b249190612f69565b15610b415760405162461bcd60e51b8152600401610583906134d9565b6000610b73848381518110610b6657634e487b7160e01b600052603260045260246000fd5b60200260200101516119ee565b90508015610b8857610b85818461240d565b92505b5080610b93816138b3565b915050610995565b508015610bb957600554610bb9906001600160a01b03163383612424565b336001600160a01b03167f6606374655494f5c0e2d6f392656e9777afd9ac5f61527d1bcad50b7e918a03e82604051610bf291906136bb565b60405180910390a25050565b6000600b54821115610c225760405162461bcd60e51b81526004016105839061338b565b610c2a612039565b158015610c385750600b5482145b15610c465750600d54610c81565b60008281526008602052604081208054909190610c7357634e487b7160e01b600052603260045260246000fd5b906000526020600020015490505b919050565b60066020528160005260406000208160048110610ca257600080fd5b602081049091015460ff601f9092166101000a9004169150829050565b610cc7612420565b6001600160a01b0316610cd8611578565b6001600160a01b031614610cfe5760405162461bcd60e51b81526004016105839061359f565b6040805160608101825260ff80861682528481166020830152831691810191909152610d2e906001906003612c26565b50505050565b610d3c612420565b6001600160a01b0316610d4d611578565b6001600160a01b031614610d735760405162461bcd60e51b81526004016105839061359f565b600455565b6001600160a01b0381166000908152600a6020908152604091829020805483518184028101840190945280845260609392830182828015610730576020028201919060005260206000209081548152602001906001019080831161071c5750505050509050919050565b600760205281600052604060002081815481106106c557600080fd5b600b5481565b610e0c612420565b6001600160a01b0316610e1d611578565b6001600160a01b031614610e435760405162461bcd60e51b81526004016105839061359f565b600380546001600160a01b0319166001600160a01b0392909216919091179055565b610e6d612420565b6001600160a01b0316610e7e611578565b6001600160a01b031614610ea45760405162461bcd60e51b81526004016105839061359f565b600080546040516001600160a01b03909116907f8be0079c531659141344cd1fd0a4f28419497f9722a3daafe3b4186f6b6457e0908390a3600080546001600160a01b0319169055565b600081815260076020908152604091829020805483518184028101840190945280845260609392830182828015610730576020028201919060005260206000209081548152602001906001019080831161071c5750505050509050919050565b610f56612420565b6001600160a01b0316610f67611578565b6001600160a01b031614610f8d5760405162461bcd60e51b81526004016105839061359f565b600554610fa4906001600160a01b03163383612424565b336001600160a01b03167f050d1c64cc22ce461b9bc14f6b73852566da02b03c155242bc63169d1fec42aa82604051610fdd91906136bb565b60405180910390a250565b6001816003811061097757600080fd5b611000612cb9565b611008612c08565b825160ff90811682526020808501518216908301526040808501518216908301526060808501519091169082015261103e612cb9565b606082015160408301516110549061010061381e565b6110609061010061381e565b60208401516110719061010061381e565b61107d9061010061381e565b6110899061010061381e565b6110959061010061381e565b84516110a39061010061381e565b6110af9061010061381e565b6110bb9061010061381e565b6110c79061010061381e565b6110d39061010061381e565b6110df9061010061381e565b6110ef90650100000000006137b4565b6110f991906137b4565b6111079063020000006137b4565b61111191906137b4565b61111d906103006137b4565b61112791906137b4565b6001600160401b03168152604082015160208301516111489061010061381e565b6111549061010061381e565b83516111629061010061381e565b61116e9061010061381e565b61117a9061010061381e565b6111869061010061381e565b6111949063010000006137b4565b61119e91906137b4565b6111aa906102006137b4565b6111b491906137b4565b6001600160401b03166020808301919091526060830151908301516111db9061010061381e565b6111e79061010061381e565b83516111f59061010061381e565b6112019061010061381e565b61120d9061010061381e565b6112199061010061381e565b6112279063010000006137b4565b61123191906137b4565b61123d906103006137b4565b61124791906137b4565b6001600160401b031660408083019190915260608301519083015161126e9061010061381e565b61127a9061010061381e565b83516112889061010061381e565b6112949061010061381e565b6112a09061010061381e565b6112ac9061010061381e565b6112ba9063020000006137b4565b6112c491906137b4565b6112d0906103006137b4565b6112da91906137b4565b6001600160401b031660608083019190915282015160408301516113009061010061381e565b61130c9061010061381e565b602084015161131d9061010061381e565b6113299061010061381e565b6113359061010061381e565b6113419061010061381e565b61135190650100000000006137b4565b61135f9063020000006137b4565b61136991906137b4565b611375906103006137b4565b61137f91906137b4565b6001600160401b03166080820152602082015182516113a09061010061381e565b6113ac9061010061381e565b6113b8906101006137b4565b6113c291906137b4565b6001600160401b031660a0820152604082015182516113e39061010061381e565b6113ef9061010061381e565b6113fb906102006137b4565b61140591906137b4565b6001600160401b031660c0820152606082015182516114269061010061381e565b6114329061010061381e565b61143e906103006137b4565b61144891906137b4565b6001600160401b031660e08201526040820151602083015161146c9061010061381e565b6114789061010061381e565b6114869063010000006137b4565b611492906102006137b4565b61149c91906137b4565b6001600160401b0316610100808301919091526060830151602084015190916114c5919061381e565b6114d19061010061381e565b6114df9063010000006137b4565b6114eb906103006137b4565b6114f591906137b4565b6001600160401b03166101208201526060820151604083015161151a9061010061381e565b6115269061010061381e565b6115349063020000006137b4565b611540906103006137b4565b61154a91906137b4565b6001600160401b03166101408201529392505050565b73d6dc3e48bc52fd6ff24f5318b537c46118e17f7081565b6000546001600160a01b031690565b6003546001600160a01b031633146115b15760405162461bcd60e51b8152600401610583906135d4565b6115b9612039565b156115d65760405162461bcd60e51b81526004016105839061333e565b60105460ff166115f85760405162461bcd60e51b8152600401610583906134a2565b600061160560014361384d565b40905060005b600a8110156116325761161f600b54610bfe565b508061162a816138b3565b91505061160b565b5060005a905061166882600c54838660405160200161165494939291906132f0565b604051602081830303815290604052612443565b600f805460ff191660ff92909216919091179055600d546040516116999161165491859190859088906020016132f0565b600f805460ff929092166101000261ff0019909216919091179055600e546040516116d19161165491859190859088906020016132f0565b600f805460ff92909216620100000262ff00001990921691909117905560405161170790611654908490849087906020016132da565b600f805460ff9290921663010000000263ff00000019909216919091178155600b546000908152600660205260409020611742916004612cd8565b5061174b612464565b600b546000908152600860205260409020611767916004612d0b565b506010805460ff19169055600b546040517fa13e935b188993737b3009d62bd916dcbe9e82d8236d75981eeadf26a1460d3d906117a690600f9061329c565b60405180910390a2505050565b6002546040516331a9108f60e11b81526001600160a01b0390911690636352211e906117e39084906004016136bb565b60206040518083038186803b1580156117fb57600080fd5b505afa15801561180f573d6000803e3d6000fd5b505050506040513d601f19601f820116820180604052508101906118339190612df3565b6001600160a01b0316336001600160a01b0316146118635760405162461bcd60e51b81526004016105839061347a565b6002546040516336dbd2f960e01b81526001600160a01b03909116906336dbd2f9906118939084906004016136bb565b60206040518083038186803b1580156118ab57600080fd5b505afa1580156118bf573d6000803e3d6000fd5b505050506040513d601f19601f820116820180604052508101906118e39190612f69565b156119005760405162461bcd60e51b8152600401610583906134d9565b600061190b826119ee565b905080156119655760055461192a906001600160a01b03163383612424565b336001600160a01b03167f34fcbac0073d7c3d388e51312faf357774904998eeb8fca628b9e6f65ee1cbf78383604051610bf29291906136c4565b5050565b600860205281600052604060002081815481106106c557600080fd5b736af26474015a6bf540c79b77a6155b67900879d981565b600c5481565b60008281526008602052604081206119bc83600561384d565b815481106119da57634e487b7160e01b600052603260045260246000fd5b906000526020600020015490505b92915050565b600254604051631bf1e00f60e01b815260009182916001600160a01b0390911690631bf1e00f90611a239086906004016136bb565b60206040518083038186803b158015611a3b57600080fd5b505afa158015611a4f573d6000803e3d6000fd5b505050506040513d601f19601f82011682018060405250810190611a739190612fa1565b600254604051635f8e26a760e01b81529192506000916001600160a01b0390911690635f8e26a790611aa99087906004016136bb565b60806040518083038186803b158015611ac157600080fd5b505afa158015611ad5573d6000803e3d6000fd5b505050506040513d601f19601f82011682018060405250810190611af99190612ee9565b60008381526006602052604080822081516080810192839052939450919291906004908285855b825461010083900a900460ff16815260206001928301818104948501949093039092029101808411611b205790505050505050905080600060048110611b7657634e487b7160e01b600052603260045260246000fd5b602002015160ff16611b8e5760009350505050610c81565b6000805b6004811015611c1157838160048110611bbb57634e487b7160e01b600052603260045260246000fd5b602002015160ff16838260048110611be357634e487b7160e01b600052603260045260246000fd5b602002015160ff161415611bff57611bfc82600161379c565b91505b80611c09816138b3565b915050611b92565b5060006001821115611d3757600254604051637bd0606560e11b81526000916001600160a01b03169063f7a0c0ca90611c4e908b906004016136bb565b60206040518083038186803b158015611c6657600080fd5b505afa158015611c7a573d6000803e3d6000fd5b505050506040513d601f19601f82011682018060405250810190611c9e9190612fa1565b9050600060646001611cb186600461384d565b60038110611ccf57634e487b7160e01b600052603260045260246000fd5b602081049091015460ff601f9092166101000a900416611cee89610bfe565b611cf891906137ff565b611d0291906137df565b905080611d0f88866119a3565b611d1e8464e8d4a510006137ff565b611d2891906137df565b611d3291906137ff565b925050505b611d4664e8d4a51000826137df565b979650505050505050565b6003546001600160a01b03163314611d7b5760405162461bcd60e51b8152600401610583906135d4565b611d83612733565b60015460009060ff6201000082048116916101008104821691611da891166064613864565b611db29190613864565b611dbc9190613864565b9050600060648260ff16611dd86001600b546103bb919061384d565b611de291906137ff565b611dec91906137df565b90508015611f3857604080516002808252606082018352600092602083019080368337019050509050738a419ef4941355476cf04933e90bf3bbf2f7381481600081518110611e4b57634e487b7160e01b600052603260045260246000fd5b60200260200101906001600160a01b031690816001600160a01b031681525050736af26474015a6bf540c79b77a6155b67900879d981600181518110611ea157634e487b7160e01b600052603260045260246000fd5b6001600160a01b039092166020928302919091019091015273d6dc3e48bc52fd6ff24f5318b537c46118e17f706338ed17398360008430611ee44261070861379c565b6040518663ffffffff1660e01b8152600401611f049594939291906136d2565b600060405180830381600087803b158015611f1e57600080fd5b505af1158015611f32573d6000803e3d6000fd5b50505050505b6040516370a0823160e01b8152600090736af26474015a6bf540c79b77a6155b67900879d9906370a0823190611f7290309060040161318f565b60206040518083038186803b158015611f8a57600080fd5b505afa158015611f9e573d6000803e3d6000fd5b505050506040513d601f19601f82011682018060405250810190611fc29190612fa1565b9050801561203457604051630852cd8d60e31b8152736af26474015a6bf540c79b77a6155b67900879d9906342966c68906120019084906004016136bb565b600060405180830381600087803b15801561201b57600080fd5b505af115801561202f573d6000803e3d6000fd5b505050505b505050565b600f5460ff16151590565b60045481565b6002546001600160a01b031681565b612061612420565b6001600160a01b0316612072611578565b6001600160a01b0316146120985760405162461bcd60e51b81526004016105839061359f565b6001600160a01b0381166120be5760405162461bcd60e51b8152600401610583906133c2565b600080546040516001600160a01b03808516939216917f8be0079c531659141344cd1fd0a4f28419497f9722a3daafe3b4186f6b6457e091a3600080546001600160a01b0319166001600160a01b0392909216919091179055565b6005546001600160a01b031681565b6003546001600160a01b031681565b6000805b60048110156121a957600354600160a01b900460ff1683826004811061217157634e487b7160e01b600052603260045260246000fd5b602002015160ff1611156121975760405162461bcd60e51b81526004016105839061335e565b806121a1816138b3565b91505061213b565b50600254600b54604051620dce4760ea1b81526000926001600160a01b0316916337391c00916121e191339188918a916004016131c7565b602060405180830381600087803b1580156121fb57600080fd5b505af115801561220f573d6000803e3d6000fd5b505050506040513d601f19601f820116820180604052508101906122339190612fa1565b600b546000908152600760209081526040808320805460018101825590845282842001849055338352600a90915290205490915061227d57600c5461227990600161379c565b600c555b336000908152600a6020908152604082208054600181018255908352912001819055600d546122ad90859061379c565b600d5542600e5560006122bf84610ff8565b905060005b600b8110156123ab5761233c8660096000600b54815260200190815260200160002060008585600b811061230857634e487b7160e01b600052603260045260246000fd5b60200201516001600160401b03166001600160401b031681526020019081526020016000205461240d90919063ffffffff16565b600b805460009081526009602052604081209185908590811061236f57634e487b7160e01b600052603260045260246000fd5b60200201516001600160401b03166001600160401b031681526020019081526020016000208190555080806123a3906138b3565b9150506122c4565b5090949350505050565b610d2e846323b872dd60e01b8585856040516024016123d6939291906131a3565b60408051601f198184030181529190526020810180516001600160e01b03166001600160e01b0319909316929092179091526128c8565b6000612419828461379c565b9392505050565b3390565b6120348363a9059cbb60e01b84846040516024016123d69291906131f6565b60035481516020909201919091206001600160a01b90920460ff1690060190565b61246c612c08565b6040805160808101918290526000916124c29190600f906004908286855b825461010083900a900460ff1681526020600192830181810494850194909303909202910180841161248a5790505050505050610ff8565b600b54600081815260096020818152604080842086516001600160401b03908116865281845282862054878752858552888501518216875282855283872054978752948452878301511685529091529091205492935091612523908261379c565b600b54600090815260096020908152604080832060608801516001600160401b0316845290915290205490915061255a908261379c565b600b54600090815260096020908152604080832060808801516001600160401b03168452909152902054909150612591908261379c565b905060006125aa6125a3846004612957565b8390612963565b600b54600081815260096020818152604080842060a08b01516001600160401b0390811686528184528286205496865293835260c08b01519093168452919052902054919250906125fb908261379c565b600b54600090815260096020908152604080832060e08a01516001600160401b03168452909152902054909150612632908261379c565b600b5460009081526009602090815260408083206101008a01516001600160401b0316845290915290205490915061266a908261379c565b600b5460009081526009602090815260408083206101208a01516001600160401b031684529091529020549091506126a2908261379c565b600b5460009081526009602090815260408083206101408a01516001600160401b031684529091529020549091506126da908261379c565b905060006126e98460036137ff565b6126f48660066137ff565b6126fe908461379c565b612708919061379c565b60408051608081018252600d5481526020810197909752860193909352505060608301525091505090565b61273b612039565b6127575760405162461bcd60e51b815260040161058390613630565b42600e556000600c819055600d55600f805463ffffffff191690556010805460ff19169055600b5461278a90600161379c565b600b556000805b600381101561283c576127b76001600b546127ac919061384d565b61050283600461384d565b61282a576064600182600381106127de57634e487b7160e01b600052603260045260246000fd5b602091828204019190069054906101000a900460ff1660ff166128096001600b546103bb919061384d565b61281391906137ff565b61281d91906137df565b612827908361379c565b91505b80612834816138b3565b915050612791565b5080156128995760408051608081019182905261289991839190601190600490826000855b825461010083900a900460ff16815260206001928301818104948501949093039092029101808411612861579050505050505061296f565b600b546040517f01c3cbb0d62726ab09d163873ebf9aed99dd8dc08e57bc938f458132fd178cf690600090a250565b600061291d826040518060400160405280602081526020017f5361666545524332303a206c6f772d6c6576656c2063616c6c206661696c6564815250856001600160a01b0316612afd9092919063ffffffff16565b805190915015612034578080602001905181019061293b9190612f69565b6120345760405162461bcd60e51b815260040161058390613651565b600061241982846137ff565b6000612419828461384d565b612977612039565b156129945760405162461bcd60e51b815260040161058390613568565b60005b6004811015612a0557600354600160a01b900460ff168282600481106129cd57634e487b7160e01b600052603260045260246000fd5b602002015160ff1611156129f35760405162461bcd60e51b815260040161058390613408565b806129fd816138b3565b915050612997565b50600254600b54604051620dce4760ea1b81526000926001600160a01b0316916337391c0091612a3d913091879189916004016131c7565b602060405180830381600087803b158015612a5757600080fd5b505af1158015612a6b573d6000803e3d6000fd5b505050506040513d601f19601f82011682018060405250810190612a8f9190612fa1565b600b54600090815260076020908152604082208054600181018255908352912001819055600d54909150612ac490849061379c565b600d5542600e5560405130907fe3d4187f6ca4248660cc0ac8b8056515bac4a8132be2eca31d6d0cc170722a7e906117a69084906136bb565b6060612b0c8484600085612b14565b949350505050565b606082471015612b365760405162461bcd60e51b815260040161058390613434565b612b3f85612bc9565b612b5b5760405162461bcd60e51b8152600401610583906135f9565b600080866001600160a01b03168587604051612b779190613173565b60006040518083038185875af1925050503d8060008114612bb4576040519150601f19603f3d011682016040523d82523d6000602084013e612bb9565b606091505b5091509150611d46828286612bcf565b3b151590565b60608315612bde575081612419565b825115612bee5782518084602001fd5b8160405162461bcd60e51b8152600401610583919061330b565b60405180608001604052806004906020820280368337509192915050565b600183019183908215612ca95791602002820160005b83821115612c7a57835183826101000a81548160ff021916908360ff1602179055509260200192600101602081600001049283019260010302612c3c565b8015612ca75782816101000a81549060ff0219169055600101602081600001049283019260010302612c7a565b505b50612cb5929150612d46565b5090565b604051806101600160405280600b906020820280368337509192915050565b600183019183908215612ca95791601f016020900482015b82811115612ca9578254825591600101919060010190612cf0565b828054828255906000526020600020908101928215612ca9579160200282015b82811115612ca9578251825591602001919060010190612d2b565b5b80821115612cb55760008155600101612d47565b600082601f830112612d6b578081fd5b604051608081018181106001600160401b0382111715612d8d57612d8d6138e4565b604052808360808101861015612da1578384fd5b835b6004811015612dcc578135612db781613912565b83526020928301929190910190600101612da3565b509195945050505050565b600060208284031215612de8578081fd5b8135612419816138fa565b600060208284031215612e04578081fd5b8151612419816138fa565b60008060408385031215612e21578081fd5b8235612e2c816138fa565b946020939093013593505050565b60006020808385031215612e4c578182fd5b82356001600160401b03811115612e61578283fd5b8301601f81018513612e71578283fd5b8035612e84612e7f82613779565b613750565b8181528381019083850185840285018601891015612ea0578687fd5b8694505b83851015612ec2578035835260019490940193918501918501612ea4565b50979650505050505050565b600060808284031215612edf578081fd5b6124198383612d5b565b600060808284031215612efa578081fd5b82601f830112612f08578081fd5b604051608081018181106001600160401b0382111715612f2a57612f2a6138e4565b604052808360808101861015612f3e578384fd5b835b6004811015612dcc578151612f5481613912565b83526020928301929190910190600101612f40565b600060208284031215612f7a578081fd5b81518015158114612419578182fd5b600060208284031215612f9a578081fd5b5035919050565b600060208284031215612fb2578081fd5b5051919050565b60008060408385031215612fcb578182fd5b823591506020808401356001600160401b03811115612fe8578283fd5b8401601f81018613612ff8578283fd5b8035613006612e7f82613779565b818152838101908385016080808502860187018b1015613024578788fd5b8795505b848610156130505761303a8b83612d5b565b8452600195909501949286019290810190613028565b5096999098509650505050505050565b60008060a08385031215613072578182fd5b823591506130838460208501612d5b565b90509250929050565b6000806040838503121561309e578182fd5b50508035926020909101359150565b600080604083850312156130bf578182fd5b8235915060208301356001600160401b03811681146130dc578182fd5b809150509250929050565b6000602082840312156130f8578081fd5b813561241981613912565b600080600060608486031215613117578081fd5b833561312281613912565b9250602084013561313281613912565b9150604084013561314281613912565b809150509250925092565b8060005b6004811015610d2e57815160ff16845260209384019390910190600101613151565b60008251613185818460208701613887565b9190910192915050565b6001600160a01b0391909116815260200190565b6001600160a01b039384168152919092166020820152604081019190915260600190565b6001600160a01b038516815260e081016131e4602083018661314d565b60a082019390935260c0015292915050565b6001600160a01b03929092168252602082015260400190565b6020808252825182820181905260009190848201906040850190845b818110156132475783518352928401929184019160010161322b565b50909695505050505050565b6101608101818360005b600b8110156132855781516001600160401b031683526020928301929091019060010161325d565b50505092915050565b608081016119e8828461314d565b905460ff8082168352600882901c81166020840152601082901c8116604084015260189190911c16606082015260800190565b901515815260200190565b9283526020830191909152604082015260600190565b93845260208401929092526040830152606082015260800190565b600060208252825180602084015261332a816040850160208701613887565b601f01601f19169190910160400192915050565b60208082526006908201526572657365743f60d01b604082015260600190565b602080825260139082015272657863656564206e756d6265722073636f706560681b604082015260600190565b60208082526019908201527f5f6973737565496e646578203c3d206973737565496e64657800000000000000604082015260600190565b60208082526026908201527f4f776e61626c653a206e6577206f776e657220697320746865207a65726f206160408201526564647265737360d01b606082015260800190565b60208082526012908201527165786365656420746865206d6178696d756d60701b604082015260600190565b60208082526026908201527f416464726573733a20696e73756666696369656e742062616c616e636520666f6040820152651c8818d85b1b60d21b606082015260800190565b6020808252600e908201526d3737ba10333937b69037bbb732b960911b604082015260600190565b60208082526019908201527f656e7465722064726177696e6720706861736520666972737400000000000000604082015260600190565b60208082526007908201526618db185a5b595960ca1b604082015260600190565b60208082526018908201527f64726177696e672c2063616e206e6f7420627579206e6f770000000000000000604082015260600190565b60208082526019908201527f7072696365206d7573742061626f7665206d696e507269636500000000000000604082015260600190565b60208082526017908201527f6472617765642c2063616e206e6f7420627579206e6f77000000000000000000604082015260600190565b6020808252818101527f4f776e61626c653a2063616c6c6572206973206e6f7420746865206f776e6572604082015260600190565b6020808252600b908201526a61646d696e3a207775743f60a81b604082015260600190565b6020808252601d908201527f416464726573733a2063616c6c20746f206e6f6e2d636f6e7472616374000000604082015260600190565b6020808252600790820152666472617765643f60c81b604082015260600190565b6020808252602a908201527f5361666545524332303a204552433230206f7065726174696f6e20646964206e6040820152691bdd081cdd58d8d9595960b21b606082015260800190565b602080825260069082015265191c985dd95960d21b604082015260600190565b90815260200190565b918252602082015260400190565b600060a082018783526020878185015260a0604085015281875180845260c0860191508289019350845b818110156137215784516001600160a01b0316835293830193918301916001016136fc565b50506001600160a01b03969096166060850152505050608001529392505050565b60ff91909116815260200190565b6040518181016001600160401b0381118282101715613771576137716138e4565b604052919050565b60006001600160401b03821115613792576137926138e4565b5060209081020190565b600082198211156137af576137af6138ce565b500190565b60006001600160401b038083168185168083038211156137d6576137d66138ce565b01949350505050565b6000826137fa57634e487b7160e01b81526012600452602481fd5b500490565b6000816000190483118215151615613819576138196138ce565b500290565b60006001600160401b0380831681851681830481118215151615613844576138446138ce565b02949350505050565b60008282101561385f5761385f6138ce565b500390565b600060ff821660ff84168082101561387e5761387e6138ce565b90039392505050565b60005b838110156138a257818101518382015260200161388a565b83811115610d2e5750506000910152565b60006000198214156138c7576138c76138ce565b5060010190565b634e487b7160e01b600052601160045260246000fd5b634e487b7160e01b600052604160045260246000fd5b6001600160a01b038116811461390f57600080fd5b50565b60ff8116811461390f57600080fdfea264697066735822122074bede03ada8fbc138f6b66d7bf55b2ed41d3da040285f1140724bf72acf10a264736f6c63430008000033",
  "immutableReferences": {},
  "source": "// SPDX-License-Identifier: MIT\r\npragma solidity 0.8.0;\r\nimport \"./Lottery.sol\";\r\n\r\n/**\r\n * @title Lotto lottery contract with 4 numbers\r\n * Deployment sequence:\r\n * 1. Deploy LotteryNFT\r\n * 2. Deploy the current contract LotteryGOC\r\n * 3. Set LotteryNFT.setAdmin()\r\n * 4. Set GOT.addAdmin()\r\n * Operation sequence:\r\n * 1. Purchase buy() || multiBuy()\r\n * 2. Enter the lottery stage enterDrawingPhase()\r\n * 3. Drawing()\r\n * 4. Reset reset()\r\n */\r\ncontract LotteryGOC is Lottery {\r\n    /// @notice GOT address\r\n    address public constant GOT = 0x6AF26474015a6bF540C79b77a6155b67900879D9;\r\n    /// @notice GOC address is used to buy lottery ticket token\r\n    address public constant GOC = 0x8A419Ef4941355476cf04933E90Bf3bbF2F73814;\r\n\r\n    /**\r\n     * @dev constructor\r\n     * @param _lotteryNFT Lottery NFT address\r\n     */\r\n    constructor(ILotteryNFT _lotteryNFT) Lottery(_lotteryNFT, GOC) {\r\n        // Approve unlimited GOC\r\n        IERC20(GOC).approve(GOSWAP_ROUTER, type(uint128).max);\r\n        // minimum selling price\r\n        minPrice =  1000000000000000000 ;\r\n    }\r\n\r\n    /**\r\n     * @dev reset\r\n     */\r\n    function reset() public override onlyAdmin {\r\n        super.reset();\r\n        // Destroyed amount = Last total bonus * (100-first prize + second prize + third prize) allocation ratio / 100\r\n        uint8 burnAllocation = uint8(uint8(100) - allocation[0] - allocation[1] - allocation[2]);\r\n        uint256 burnAmount = getTotalRewards(issueIndex - 1) * (burnAllocation) / (100);\r\n        if (burnAmount > 0) {\r\n            // Transaction path GOC=>GOT\r\n            address[] memory path = new address[](2);\r\n            path[0] = GOC;\r\n            path[1] = GOT;\r\n            // Call the routing contract to exchange GOT with GOC\r\n            Uni(GOSWAP_ROUTER).swapExactTokensForTokens(burnAmount, uint256(0), path, address(this), block.timestamp +  (1800));\r\n        }\r\n        // GOT balance of the current contract\r\n        uint256 GOTBalance = IERC20(GOT).balanceOf(address(this));\r\n        if (GOTBalance > 0) {\r\n            // Destroy GOT\r\n            IGOT (GOT). burn (GOTBalance);\r\n        }\r\n    }\r\n}",
  "sourcePath": "C:/Users/USER/Documents/philip_projects/Meter projects/lottery/contracts/LotteryGOC.sol",
  "compiler": {
    "name": "solc",
    "version": "0.8.0+commit.c7dfd78e.Emscripten.clang"
  },
  "schemaVersion": "3.4.0",
  "updatedAt": "2021-05-04T10:59:11.759Z",
  "devdoc": {
    "kind": "dev",
    "methods": {
      "adminWithdraw(uint256)": {
        "details": "does not care about rewards when exiting. Emergency only",
        "params": {
          "_amount": "amount"
        }
      },
      "buy(uint256,uint8[4])": {
        "details": "purchase",
        "params": {
          "_numbers": "number array",
          "_price": "price"
        }
      },
      "claimReward(uint256)": {
        "details": "receive rewards",
        "params": {
          "_tokenId": "NFT Token ID"
        }
      },
      "constructor": {
        "details": "constructor",
        "params": {
          "_lotteryNFT": "Lottery NFT address"
        }
      },
      "drawed()": {
        "details": "After the draw"
      },
      "drawing(uint256)": {
        "details": "draw",
        "params": {
          "_externalRandomNumber": "external random number"
        }
      },
      "enterDrawingPhase()": {
        "details": "enters the lottery stage, you must enter the lottery stage before the lottery is drawn"
      },
      "generateNumberIndexKey(uint8[4])": {
        "details": "calculates the number index"
      },
      "getHistoryAmount(uint256)": {
        "details": "Get the historical winning amount",
        "params": {
          "_issueIndex": "release index"
        },
        "returns": {
          "_amount": "winning amount"
        }
      },
      "getHistoryNumbers(uint256)": {
        "details": "Get historical winning numbers",
        "params": {
          "_issueIndex": "release index"
        },
        "returns": {
          "_numbers": "array of winning numbers"
        }
      },
      "getLotteryInfo(uint256)": {
        "details": "obtains the NFT Token ID according to the issue id",
        "params": {
          "_issueIndex": "release index"
        },
        "returns": {
          "_tokenIds": "NFT Token ID"
        }
      },
      "getMatchingRewardAmount(uint256,uint256)": {
        "details": "Get the matching bonus amount",
        "params": {
          "_issueIndex": "release index",
          "_matchingNumber": "matches several numbers, range [2,3,4], if the value is 5, the return is the total prize pool amount"
        }
      },
      "getRewardView(uint256)": {
        "details": "returns the winning amount",
        "params": {
          "_tokenId": "NFT Token ID"
        }
      },
      "getTotalRewards(uint256)": {
        "details": "returns the total number of historical prize pools",
        "params": {
          "_issueIndex": "release index"
        }
      },
      "getUserInfo(address)": {
        "details": "Get all NFTs of the user",
        "params": {
          "_user": "user address"
        },
        "returns": {
          "_tokenIds": "NFT Token ID"
        }
      },
      "multiBuy(uint256,uint8[4][])": {
        "details": "bulk purchase",
        "params": {
          "_numbers": "number array",
          "_price": "price"
        }
      },
      "multiClaim(uint256[])": {
        "details": "Collect in batches",
        "params": {
          "_tickets": "NFT Token ID array"
        }
      },
      "owner()": {
        "details": "Returns the address of the current owner."
      },
      "renounceOwnership()": {
        "details": "Leaves the contract without owner. It will not be possible to call `onlyOwner` functions anymore. Can only be called by the current owner. NOTE: Renouncing ownership will leave the contract without an owner, thereby removing any functionality that is only available to the owner."
      },
      "reset()": {
        "details": "reset"
      },
      "setAdmin(address)": {
        "details": "Update the administrator address through the previous developer",
        "params": {
          "_adminAddress": "administrator address"
        }
      },
      "setAllocation(uint8,uint8,uint8)": {
        "details": "set the prize pool distribution ratio",
        "params": {
          "_allcation1": "Allocation ratio 1 50%",
          "_allcation2": "Allocation ratio 2 20%",
          "_allcation3": "Allocation ratio 3 10%"
        }
      },
      "setMaxNumber(uint8)": {
        "details": "sets the maximum number",
        "params": {
          "_maxNumber": "maximum number"
        }
      },
      "setMinPrice(uint256)": {
        "details": "sets the lowest price for a ticket",
        "params": {
          "_price": "price"
        }
      },
      "transferOwnership(address)": {
        "details": "Transfers ownership of the contract to a new account (`newOwner`). Can only be called by the current owner."
      }
    },
    "title": "Lotto lottery contract with 4 numbers Deployment sequence: 1. Deploy LotteryNFT 2. Deploy the current contract LotteryGOC 3. Set LotteryNFT.setAdmin() 4. Set GOT.addAdmin() Operation sequence: 1. Purchase buy() || multiBuy() 2. Enter the lottery stage enterDrawingPhase() 3. Drawing() 4. Reset reset()",
    "version": 1
  },
  "userdoc": {
    "kind": "user",
    "methods": {
      "GOC()": {
        "notice": "GOC address is used to buy lottery ticket token"
      },
      "GOSWAP_ROUTER()": {
        "notice": "GoSwap routing address"
      },
      "GOT()": {
        "notice": "GOT address"
      },
      "drawing(uint256)": {
        "notice": "adds an external random number to prevent the node verification program from using it"
      },
      "generateNumberIndexKey(uint8[4])": {
        "notice": "4 winning numbers have 11 winning combinations"
      },
      "getRewardView(uint256)": {
        "notice": "bonus calculation formula: purchase price / prize pool quantity * prize pool bonus"
      },
      "token()": {
        "notice": "Token for buying lottery tickets"
      }
    },
    "version": 1
  }
}