{
  "contractName": "LotteryNFT",
  "abi": [
    {
      "inputs": [
        {
          "internalType": "string",
          "name": "name",
          "type": "string"
        },
        {
          "internalType": "string",
          "name": "symbol",
          "type": "string"
        }
      ],
      "stateMutability": "nonpayable",
      "type": "constructor"
    },
    {
      "anonymous": false,
      "inputs": [
        {
          "indexed": true,
          "internalType": "address",
          "name": "owner",
          "type": "address"
        },
        {
          "indexed": true,
          "internalType": "address",
          "name": "approved",
          "type": "address"
        },
        {
          "indexed": true,
          "internalType": "uint256",
          "name": "tokenId",
          "type": "uint256"
        }
      ],
      "name": "Approval",
      "type": "event"
    },
    {
      "anonymous": false,
      "inputs": [
        {
          "indexed": true,
          "internalType": "address",
          "name": "owner",
          "type": "address"
        },
        {
          "indexed": true,
          "internalType": "address",
          "name": "operator",
          "type": "address"
        },
        {
          "indexed": false,
          "internalType": "bool",
          "name": "approved",
          "type": "bool"
        }
      ],
      "name": "ApprovalForAll",
      "type": "event"
    },
    {
      "anonymous": false,
      "inputs": [
        {
          "indexed": true,
          "internalType": "address",
          "name": "previousOwner",
          "type": "address"
        },
        {
          "indexed": true,
          "internalType": "address",
          "name": "newOwner",
          "type": "address"
        }
      ],
      "name": "OwnershipTransferred",
      "type": "event"
    },
    {
      "anonymous": false,
      "inputs": [
        {
          "indexed": true,
          "internalType": "address",
          "name": "from",
          "type": "address"
        },
        {
          "indexed": true,
          "internalType": "address",
          "name": "to",
          "type": "address"
        },
        {
          "indexed": true,
          "internalType": "uint256",
          "name": "tokenId",
          "type": "uint256"
        }
      ],
      "name": "Transfer",
      "type": "event"
    },
    {
      "inputs": [],
      "name": "adminAddress",
      "outputs": [
        {
          "internalType": "address",
          "name": "",
          "type": "address"
        }
      ],
      "stateMutability": "view",
      "type": "function"
    },
    {
      "inputs": [
        {
          "internalType": "address",
          "name": "to",
          "type": "address"
        },
        {
          "internalType": "uint256",
          "name": "tokenId",
          "type": "uint256"
        }
      ],
      "name": "approve",
      "outputs": [],
      "stateMutability": "nonpayable",
      "type": "function"
    },
    {
      "inputs": [
        {
          "internalType": "address",
          "name": "owner",
          "type": "address"
        }
      ],
      "name": "balanceOf",
      "outputs": [
        {
          "internalType": "uint256",
          "name": "",
          "type": "uint256"
        }
      ],
      "stateMutability": "view",
      "type": "function"
    },
    {
      "inputs": [
        {
          "internalType": "uint256",
          "name": "",
          "type": "uint256"
        }
      ],
      "name": "claimInfo",
      "outputs": [
        {
          "internalType": "bool",
          "name": "",
          "type": "bool"
        }
      ],
      "stateMutability": "view",
      "type": "function"
    },
    {
      "inputs": [
        {
          "internalType": "uint256",
          "name": "tokenId",
          "type": "uint256"
        }
      ],
      "name": "getApproved",
      "outputs": [
        {
          "internalType": "address",
          "name": "",
          "type": "address"
        }
      ],
      "stateMutability": "view",
      "type": "function"
    },
    {
      "inputs": [
        {
          "internalType": "address",
          "name": "owner",
          "type": "address"
        },
        {
          "internalType": "address",
          "name": "operator",
          "type": "address"
        }
      ],
      "name": "isApprovedForAll",
      "outputs": [
        {
          "internalType": "bool",
          "name": "",
          "type": "bool"
        }
      ],
      "stateMutability": "view",
      "type": "function"
    },
    {
      "inputs": [
        {
          "internalType": "uint256",
          "name": "",
          "type": "uint256"
        }
      ],
      "name": "issueIndex",
      "outputs": [
        {
          "internalType": "uint256",
          "name": "",
          "type": "uint256"
        }
      ],
      "stateMutability": "view",
      "type": "function"
    },
    {
      "inputs": [
        {
          "internalType": "uint256",
          "name": "",
          "type": "uint256"
        }
      ],
      "name": "lotteryAmount",
      "outputs": [
        {
          "internalType": "uint256",
          "name": "",
          "type": "uint256"
        }
      ],
      "stateMutability": "view",
      "type": "function"
    },
    {
      "inputs": [
        {
          "internalType": "uint256",
          "name": "",
          "type": "uint256"
        },
        {
          "internalType": "uint256",
          "name": "",
          "type": "uint256"
        }
      ],
      "name": "lotteryInfo",
      "outputs": [
        {
          "internalType": "uint8",
          "name": "",
          "type": "uint8"
        }
      ],
      "stateMutability": "view",
      "type": "function"
    },
    {
      "inputs": [],
      "name": "name",
      "outputs": [
        {
          "internalType": "string",
          "name": "",
          "type": "string"
        }
      ],
      "stateMutability": "view",
      "type": "function"
    },
    {
      "inputs": [],
      "name": "owner",
      "outputs": [
        {
          "internalType": "address",
          "name": "",
          "type": "address"
        }
      ],
      "stateMutability": "view",
      "type": "function"
    },
    {
      "inputs": [
        {
          "internalType": "uint256",
          "name": "tokenId",
          "type": "uint256"
        }
      ],
      "name": "ownerOf",
      "outputs": [
        {
          "internalType": "address",
          "name": "",
          "type": "address"
        }
      ],
      "stateMutability": "view",
      "type": "function"
    },
    {
      "inputs": [],
      "name": "renounceOwnership",
      "outputs": [],
      "stateMutability": "nonpayable",
      "type": "function"
    },
    {
      "inputs": [
        {
          "internalType": "address",
          "name": "from",
          "type": "address"
        },
        {
          "internalType": "address",
          "name": "to",
          "type": "address"
        },
        {
          "internalType": "uint256",
          "name": "tokenId",
          "type": "uint256"
        }
      ],
      "name": "safeTransferFrom",
      "outputs": [],
      "stateMutability": "nonpayable",
      "type": "function"
    },
    {
      "inputs": [
        {
          "internalType": "address",
          "name": "from",
          "type": "address"
        },
        {
          "internalType": "address",
          "name": "to",
          "type": "address"
        },
        {
          "internalType": "uint256",
          "name": "tokenId",
          "type": "uint256"
        },
        {
          "internalType": "bytes",
          "name": "_data",
          "type": "bytes"
        }
      ],
      "name": "safeTransferFrom",
      "outputs": [],
      "stateMutability": "nonpayable",
      "type": "function"
    },
    {
      "inputs": [
        {
          "internalType": "address",
          "name": "operator",
          "type": "address"
        },
        {
          "internalType": "bool",
          "name": "approved",
          "type": "bool"
        }
      ],
      "name": "setApprovalForAll",
      "outputs": [],
      "stateMutability": "nonpayable",
      "type": "function"
    },
    {
      "inputs": [
        {
          "internalType": "bytes4",
          "name": "interfaceId",
          "type": "bytes4"
        }
      ],
      "name": "supportsInterface",
      "outputs": [
        {
          "internalType": "bool",
          "name": "",
          "type": "bool"
        }
      ],
      "stateMutability": "view",
      "type": "function"
    },
    {
      "inputs": [],
      "name": "symbol",
      "outputs": [
        {
          "internalType": "string",
          "name": "",
          "type": "string"
        }
      ],
      "stateMutability": "view",
      "type": "function"
    },
    {
      "inputs": [
        {
          "internalType": "uint256",
          "name": "tokenId",
          "type": "uint256"
        }
      ],
      "name": "tokenURI",
      "outputs": [
        {
          "internalType": "string",
          "name": "",
          "type": "string"
        }
      ],
      "stateMutability": "view",
      "type": "function"
    },
    {
      "inputs": [
        {
          "internalType": "address",
          "name": "from",
          "type": "address"
        },
        {
          "internalType": "address",
          "name": "to",
          "type": "address"
        },
        {
          "internalType": "uint256",
          "name": "tokenId",
          "type": "uint256"
        }
      ],
      "name": "transferFrom",
      "outputs": [],
      "stateMutability": "nonpayable",
      "type": "function"
    },
    {
      "inputs": [
        {
          "internalType": "address",
          "name": "newOwner",
          "type": "address"
        }
      ],
      "name": "transferOwnership",
      "outputs": [],
      "stateMutability": "nonpayable",
      "type": "function"
    },
    {
      "inputs": [
        {
          "internalType": "address",
          "name": "player",
          "type": "address"
        },
        {
          "internalType": "uint8[4]",
          "name": "_lotteryNumbers",
          "type": "uint8[4]"
        },
        {
          "internalType": "uint256",
          "name": "_amount",
          "type": "uint256"
        },
        {
          "internalType": "uint256",
          "name": "_issueIndex",
          "type": "uint256"
        }
      ],
      "name": "newLotteryItem",
      "outputs": [
        {
          "internalType": "uint256",
          "name": "",
          "type": "uint256"
        }
      ],
      "stateMutability": "nonpayable",
      "type": "function"
    },
    {
      "inputs": [
        {
          "internalType": "uint256",
          "name": "tokenId",
          "type": "uint256"
        }
      ],
      "name": "lotteryURI",
      "outputs": [
        {
          "components": [
            {
              "internalType": "uint8[4]",
              "name": "numbers",
              "type": "uint8[4]"
            },
            {
              "internalType": "uint256",
              "name": "amount",
              "type": "uint256"
            },
            {
              "internalType": "uint256",
              "name": "issueIndex",
              "type": "uint256"
            },
            {
              "internalType": "bool",
              "name": "claimInfo",
              "type": "bool"
            },
            {
              "internalType": "address",
              "name": "owner",
              "type": "address"
            }
          ],
          "internalType": "struct LotteryNFT.LotteryInfo",
          "name": "_lotteryInfo",
          "type": "tuple"
        }
      ],
      "stateMutability": "view",
      "type": "function"
    },
    {
      "inputs": [
        {
          "internalType": "uint256",
          "name": "tokenId",
          "type": "uint256"
        }
      ],
      "name": "getLotteryNumbers",
      "outputs": [
        {
          "internalType": "uint8[4]",
          "name": "",
          "type": "uint8[4]"
        }
      ],
      "stateMutability": "view",
      "type": "function"
    },
    {
      "inputs": [
        {
          "internalType": "uint256",
          "name": "tokenId",
          "type": "uint256"
        }
      ],
      "name": "getLotteryAmount",
      "outputs": [
        {
          "internalType": "uint256",
          "name": "",
          "type": "uint256"
        }
      ],
      "stateMutability": "view",
      "type": "function"
    },
    {
      "inputs": [
        {
          "internalType": "uint256",
          "name": "tokenId",
          "type": "uint256"
        }
      ],
      "name": "getLotteryIssueIndex",
      "outputs": [
        {
          "internalType": "uint256",
          "name": "",
          "type": "uint256"
        }
      ],
      "stateMutability": "view",
      "type": "function"
    },
    {
      "inputs": [
        {
          "internalType": "uint256",
          "name": "tokenId",
          "type": "uint256"
        }
      ],
      "name": "claimReward",
      "outputs": [],
      "stateMutability": "nonpayable",
      "type": "function"
    },
    {
      "inputs": [
        {
          "internalType": "uint256[]",
          "name": "tokenIds",
          "type": "uint256[]"
        }
      ],
      "name": "multiClaimReward",
      "outputs": [],
      "stateMutability": "nonpayable",
      "type": "function"
    },
    {
      "inputs": [
        {
          "internalType": "uint256",
          "name": "tokenId",
          "type": "uint256"
        }
      ],
      "name": "burn",
      "outputs": [],
      "stateMutability": "nonpayable",
      "type": "function"
    },
    {
      "inputs": [
        {
          "internalType": "uint256",
          "name": "tokenId",
          "type": "uint256"
        }
      ],
      "name": "getClaimStatus",
      "outputs": [
        {
          "internalType": "bool",
          "name": "",
          "type": "bool"
        }
      ],
      "stateMutability": "view",
      "type": "function"
    },
    {
      "inputs": [
        {
          "internalType": "address",
          "name": "_adminAddress",
          "type": "address"
        }
      ],
      "name": "setAdmin",
      "outputs": [],
      "stateMutability": "nonpayable",
      "type": "function"
    },
    {
      "inputs": [
        {
          "internalType": "uint256",
          "name": "tokenId",
          "type": "uint256"
        },
        {
          "internalType": "string",
          "name": "_tokenURI",
          "type": "string"
        }
      ],
      "name": "setTokenURI",
      "outputs": [],
      "stateMutability": "nonpayable",
      "type": "function"
    },
    {
      "inputs": [
        {
          "internalType": "string",
          "name": "baseURI_",
          "type": "string"
        }
      ],
      "name": "setBaseURI",
      "outputs": [],
      "stateMutability": "nonpayable",
      "type": "function"
    }
  ],
  "bytecode": "0x60806040523480156200001157600080fd5b50604051620024f5380380620024f583398101604081905262000034916200024e565b8151829082906200004d906000906020850190620000fd565b50805162000063906001906020840190620000fd565b505050600062000078620000f960201b60201c565b600680546001600160a01b0319166001600160a01b038316908117909155604051919250906000907f8be0079c531659141344cd1fd0a4f28419497f9722a3daafe3b4186f6b6457e0908290a350620000d0620000f9565b600880546001600160a01b0319166001600160a01b039290921691909117905550620003089050565b3390565b8280546200010b90620002b5565b90600052602060002090601f0160209004810192826200012f57600085556200017a565b82601f106200014a57805160ff19168380011785556200017a565b828001600101855582156200017a579182015b828111156200017a5782518255916020019190600101906200015d565b50620001889291506200018c565b5090565b5b808211156200018857600081556001016200018d565b600082601f830112620001b4578081fd5b81516001600160401b0380821115620001d157620001d1620002f2565b6040516020601f8401601f1916820181018381118382101715620001f957620001f9620002f2565b604052838252858401810187101562000210578485fd5b8492505b8383101562000233578583018101518284018201529182019162000214565b838311156200024457848185840101525b5095945050505050565b6000806040838503121562000261578182fd5b82516001600160401b038082111562000278578384fd5b6200028686838701620001a3565b935060208501519150808211156200029c578283fd5b50620002ab85828601620001a3565b9150509250929050565b600281046001821680620002ca57607f821691505b60208210811415620002ec57634e487b7160e01b600052602260045260246000fd5b50919050565b634e487b7160e01b600052604160045260246000fd5b6121dd80620003186000396000f3fe608060405234801561001057600080fd5b50600436106101fb5760003560e01c80636575243f1161011a578063ae169a50116100ad578063e985e9c51161007c578063e985e9c514610441578063f2fde38b14610454578063f3c5eb8314610467578063f7a0c0ca14610487578063fc6f94681461049a576101fb565b8063ae169a50146103f5578063b88d4fde14610408578063c13f690b1461041b578063c87b56dd1461042e576101fb565b806374310355116100e957806374310355146103bf5780638da5cb5b146103d257806395d89b41146103da578063a22cb465146103e2576101fb565b80636575243f14610371578063704b6c021461039157806370a08231146103a4578063715018a6146103b7576101fb565b806336dbd2f91161019257806355f804b31161016157806355f804b3146103185780635c3622331461032b5780635f8e26a71461033e5780636352211e1461035e576101fb565b806336dbd2f9146102cc57806337391c00146102df57806342842e0e146102f257806342966c6814610305576101fb565b8063095ea7b3116101ce578063095ea7b31461027e578063162094c4146102935780631bf1e00f146102a657806323b872dd146102b9576101fb565b806301ffc9a71461020057806306fdde0314610229578063081812fc1461023e57806308c766251461025e575b600080fd5b61021361020e36600461193e565b6104a2565b6040516102209190611b07565b60405180910390f35b6102316104ea565b6040516102209190611b12565b61025161024c3660046119a9565b61057c565b6040516102209190611aa8565b61027161026c3660046119a9565b6105c8565b6040516102209190612035565b61029161028c36600461186e565b6105da565b005b6102916102a13660046119c1565b610672565b6102716102b43660046119a9565b6106a0565b6102916102c73660046116ee565b6106b2565b6102136102da3660046119a9565b6106ea565b6102716102ed3660046117a2565b6106ff565b6102916103003660046116ee565b61079c565b6102916103133660046119a9565b6107b7565b610291610326366004611976565b6107f8565b6102136103393660046119a9565b610822565b61035161034c3660046119a9565b610837565b6040516102209190611af9565b61025161036c3660046119a9565b61089b565b61038461037f366004611a06565b6108d0565b604051610220919061203e565b61029161039f3660046116a2565b610909565b6102716103b23660046116a2565b61096a565b6102916109ae565b6102916103cd366004611897565b610a37565b610251610ade565b610231610aed565b6102916103f0366004611834565b610afc565b6102916104033660046119a9565b610bca565b610291610416366004611729565b610c1a565b6102716104293660046119a9565b610c59565b61023161043c3660046119a9565b610c6b565b61021361044f3660046116bc565b610cee565b6102916104623660046116a2565b610d1e565b61047a6104753660046119a9565b610ddf565b6040516102209190611fe7565b6102716104953660046119a9565b610e95565b610251610ea7565b60006001600160e01b031982166380ac58cd60e01b14806104d357506001600160e01b03198216635b5e139f60e01b145b806104e257506104e282610eb6565b90505b919050565b6060600080546104f9906120e5565b80601f0160208091040260200160405190810160405280929190818152602001828054610525906120e5565b80156105725780601f1061054757610100808354040283529160200191610572565b820191906000526020600020905b81548152906001019060200180831161055557829003601f168201915b5050505050905090565b600061058782610ecf565b6105ac5760405162461bcd60e51b81526004016105a390611de0565b60405180910390fd5b506000908152600460205260409020546001600160a01b031690565b600b6020526000908152604090205481565b60006105e58261089b565b9050806001600160a01b0316836001600160a01b031614156106195760405162461bcd60e51b81526004016105a390611f55565b806001600160a01b031661062b610eec565b6001600160a01b0316148061064757506106478161044f610eec565b6106635760405162461bcd60e51b81526004016105a390611cbb565b61066d8383610ef0565b505050565b6008546001600160a01b0316331461069c5760405162461bcd60e51b81526004016105a390611f30565b5050565b6000908152600b602052604090205490565b6106c36106bd610eec565b82610f5e565b6106df5760405162461bcd60e51b81526004016105a390611f96565b61066d838383610fdb565b6000908152600c602052604090205460ff1690565b6000610709610eec565b6008546001600160a01b039081169116146107365760405162461bcd60e51b81526004016105a390611ef9565b6107406007611108565b600061074c6007611111565b90506107588682611115565b600081815260096020526040902061077290866004611519565b506000818152600a60209081526040808320879055600b909152902083905590505b949350505050565b61066d83838360405180602001604052806000815250610c1a565b6107bf610eec565b6008546001600160a01b039081169116146107ec5760405162461bcd60e51b81526004016105a390611ef9565b6107f5816111f4565b50565b6008546001600160a01b031633146107f55760405162461bcd60e51b81526004016105a390611f30565b600c6020526000908152604090205460ff1681565b61083f6115ac565b600082815260096020526040808220815160808101928390529290916004918390855b825461010083900a900460ff16815260206001928301818104948501949093039092029101808411610862575094979650505050505050565b6000818152600260205260408120546001600160a01b0316806104e25760405162461bcd60e51b81526004016105a390611d62565b600960205281600052604060002081600481106108ec57600080fd5b602081049091015460ff601f9092166101000a9004169150829050565b610911610eec565b6001600160a01b0316610922610ade565b6001600160a01b0316146109485760405162461bcd60e51b81526004016105a390611e2c565b600880546001600160a01b0319166001600160a01b0392909216919091179055565b60006001600160a01b0382166109925760405162461bcd60e51b81526004016105a390611d18565b506001600160a01b031660009081526003602052604090205490565b6109b6610eec565b6001600160a01b03166109c7610ade565b6001600160a01b0316146109ed5760405162461bcd60e51b81526004016105a390611e2c565b6006546040516000916001600160a01b0316907f8be0079c531659141344cd1fd0a4f28419497f9722a3daafe3b4186f6b6457e0908390a3600680546001600160a01b0319169055565b610a3f610eec565b6008546001600160a01b03908116911614610a6c5760405162461bcd60e51b81526004016105a390611ef9565b60005b815181101561069c576001600c6000848481518110610a9e57634e487b7160e01b600052603260045260246000fd5b6020026020010151815260200190815260200160002060006101000a81548160ff0219169083151502179055508080610ad690612120565b915050610a6f565b6006546001600160a01b031690565b6060600180546104f9906120e5565b610b04610eec565b6001600160a01b0316826001600160a01b03161415610b355760405162461bcd60e51b81526004016105a390611c38565b8060056000610b42610eec565b6001600160a01b03908116825260208083019390935260409182016000908120918716808252919093529120805460ff191692151592909217909155610b86610eec565b6001600160a01b03167f17307eab39ab6107e8899845ad3d59bd9653f200f220920489ca2b5937696c3183604051610bbe9190611b07565b60405180910390a35050565b610bd2610eec565b6008546001600160a01b03908116911614610bff5760405162461bcd60e51b81526004016105a390611ef9565b6000908152600c60205260409020805460ff19166001179055565b610c2b610c25610eec565b83610f5e565b610c475760405162461bcd60e51b81526004016105a390611f96565b610c538484848461129b565b50505050565b600a6020526000908152604090205481565b6060610c7682610ecf565b610c925760405162461bcd60e51b81526004016105a390611eaa565b6000610c9c6112ce565b90506000815111610cbc5760405180602001604052806000815250610ce7565b80610cc6846112e0565b604051602001610cd7929190611a79565b6040516020818303038152906040525b9392505050565b6001600160a01b0380831660009081526005602090815260408083209385168352929052205460ff165b92915050565b610d26610eec565b6001600160a01b0316610d37610ade565b6001600160a01b031614610d5d5760405162461bcd60e51b81526004016105a390611e2c565b6001600160a01b038116610d835760405162461bcd60e51b81526004016105a390611b77565b6006546040516001600160a01b038084169216907f8be0079c531659141344cd1fd0a4f28419497f9722a3daafe3b4186f6b6457e090600090a3600680546001600160a01b0319166001600160a01b0392909216919091179055565b610de76115ca565b600082815260096020526040808220815160808101928390529290916004918390855b825461010083900a900460ff16815260206001928301818104948501949093039092029101808411610e0a575050509284525050506000828152600a602090815260408083205482850152848352600b82528083205481850152848352600c90915290205460ff1615156060820152610e828261089b565b6001600160a01b03166080820152919050565b6000908152600a602052604090205490565b6008546001600160a01b031681565b6001600160e01b031981166301ffc9a760e01b14919050565b6000908152600260205260409020546001600160a01b0316151590565b3390565b600081815260046020526040902080546001600160a01b0319166001600160a01b0384169081179091558190610f258261089b565b6001600160a01b03167f8c5be1e5ebec7d5bd14f71427d1e84f3dd0314c0f7b2291e5b200ac8c7c3b92560405160405180910390a45050565b6000610f6982610ecf565b610f855760405162461bcd60e51b81526004016105a390611c6f565b6000610f908361089b565b9050806001600160a01b0316846001600160a01b03161480610fcb5750836001600160a01b0316610fc08461057c565b6001600160a01b0316145b8061079457506107948185610cee565b826001600160a01b0316610fee8261089b565b6001600160a01b0316146110145760405162461bcd60e51b81526004016105a390611e61565b6001600160a01b03821661103a5760405162461bcd60e51b81526004016105a390611bf4565b61104583838361066d565b611050600082610ef0565b6001600160a01b03831660009081526003602052604081208054600192906110799084906120a2565b90915550506001600160a01b03821660009081526003602052604081208054600192906110a7908490612076565b909155505060008181526002602052604080822080546001600160a01b0319166001600160a01b0386811691821790925591518493918716917fddf252ad1be2c89b69c2b068fc378daa952ba7f163c4a11628f55a4df523b3ef91a4505050565b80546001019055565b5490565b6001600160a01b03821661113b5760405162461bcd60e51b81526004016105a390611dab565b61114481610ecf565b156111615760405162461bcd60e51b81526004016105a390611bbd565b61116d6000838361066d565b6001600160a01b0382166000908152600360205260408120805460019290611196908490612076565b909155505060008181526002602052604080822080546001600160a01b0319166001600160a01b03861690811790915590518392907fddf252ad1be2c89b69c2b068fc378daa952ba7f163c4a11628f55a4df523b3ef908290a45050565b60006111ff8261089b565b905061120d8160008461066d565b611218600083610ef0565b6001600160a01b03811660009081526003602052604081208054600192906112419084906120a2565b909155505060008281526002602052604080822080546001600160a01b0319169055518391906001600160a01b038416907fddf252ad1be2c89b69c2b068fc378daa952ba7f163c4a11628f55a4df523b3ef908390a45050565b6112a6848484610fdb565b6112b2848484846113fb565b610c535760405162461bcd60e51b81526004016105a390611b25565b60408051602081019091526000815290565b60608161130557506040805180820190915260018152600360fc1b60208201526104e5565b8160005b811561132f578061131981612120565b91506113289050600a8361208e565b9150611309565b60008167ffffffffffffffff81111561135857634e487b7160e01b600052604160045260246000fd5b6040519080825280601f01601f191660200182016040528015611382576020820181803683370190505b5090505b8415610794576113976001836120a2565b91506113a4600a8661213b565b6113af906030612076565b60f81b8183815181106113d257634e487b7160e01b600052603260045260246000fd5b60200101906001600160f81b031916908160001a9053506113f4600a8661208e565b9450611386565b600061140f846001600160a01b0316611513565b1561150b57836001600160a01b031663150b7a0261142b610eec565b8786866040518563ffffffff1660e01b815260040161144d9493929190611abc565b602060405180830381600087803b15801561146757600080fd5b505af1925050508015611497575060408051601f3d908101601f191682019092526114949181019061195a565b60015b6114f1573d8080156114c5576040519150601f19603f3d011682016040523d82523d6000602084013e6114ca565b606091505b5080516114e95760405162461bcd60e51b81526004016105a390611b25565b805181602001fd5b6001600160e01b031916630a85bd0160e11b149050610794565b506001610794565b3b151590565b60018301918390821561159c5791602002820160005b8382111561156d57835183826101000a81548160ff021916908360ff160217905550926020019260010160208160000104928301926001030261152f565b801561159a5782816101000a81549060ff021916905560010160208160000104928301926001030261156d565b505b506115a89291506115ff565b5090565b60405180608001604052806004906020820280368337509192915050565b6040518060a001604052806115dd6115ac565b8152600060208201819052604082018190526060820181905260809091015290565b5b808211156115a85760008155600101611600565b600067ffffffffffffffff83111561162e5761162e61217b565b611641601f8401601f191660200161204c565b905082815283838301111561165557600080fd5b828260208301376000602084830101529392505050565b80356001600160a01b03811681146104e557600080fd5b600082601f830112611693578081fd5b610ce783833560208501611614565b6000602082840312156116b3578081fd5b610ce78261166c565b600080604083850312156116ce578081fd5b6116d78361166c565b91506116e56020840161166c565b90509250929050565b600080600060608486031215611702578081fd5b61170b8461166c565b92506117196020850161166c565b9150604084013590509250925092565b6000806000806080858703121561173e578081fd5b6117478561166c565b93506117556020860161166c565b925060408501359150606085013567ffffffffffffffff811115611777578182fd5b8501601f81018713611787578182fd5b61179687823560208401611614565b91505092959194509250565b60008060008060e085870312156117b7578384fd5b6117c08561166c565b9350602086603f8701126117d2578384fd5b6117dc608061204c565b8082880160a089018a8111156117f0578788fd5b875b600481101561181d57823560ff8116811461180b57898afd5b855293850193918501916001016117f2565b50979a9199505095359660c0013595945050505050565b60008060408385031215611846578182fd5b61184f8361166c565b915060208301358015158114611863578182fd5b809150509250929050565b60008060408385031215611880578182fd5b6118898361166c565b946020939093013593505050565b600060208083850312156118a9578182fd5b823567ffffffffffffffff808211156118c0578384fd5b818501915085601f8301126118d3578384fd5b8135818111156118e5576118e561217b565b83810291506118f584830161204c565b8181528481019084860184860187018a101561190f578788fd5b8795505b83861015611931578035835260019590950194918601918601611913565b5098975050505050505050565b60006020828403121561194f578081fd5b8135610ce781612191565b60006020828403121561196b578081fd5b8151610ce781612191565b600060208284031215611987578081fd5b813567ffffffffffffffff81111561199d578182fd5b61079484828501611683565b6000602082840312156119ba578081fd5b5035919050565b600080604083850312156119d3578182fd5b82359150602083013567ffffffffffffffff8111156119f0578182fd5b6119fc85828601611683565b9150509250929050565b60008060408385031215611a18578182fd5b50508035926020909101359150565b8060005b6004811015610c5357815160ff16845260209384019390910190600101611a2b565b60008151808452611a658160208601602086016120b9565b601f01601f19169290920160200192915050565b60008351611a8b8184602088016120b9565b835190830190611a9f8183602088016120b9565b01949350505050565b6001600160a01b0391909116815260200190565b6001600160a01b0385811682528416602082015260408101839052608060608201819052600090611aef90830184611a4d565b9695505050505050565b60808101610d188284611a27565b901515815260200190565b600060208252610ce76020830184611a4d565b60208082526032908201527f4552433732313a207472616e7366657220746f206e6f6e20455243373231526560408201527131b2b4bb32b91034b6b83632b6b2b73a32b960711b606082015260800190565b60208082526026908201527f4f776e61626c653a206e6577206f776e657220697320746865207a65726f206160408201526564647265737360d01b606082015260800190565b6020808252601c908201527f4552433732313a20746f6b656e20616c7265616479206d696e74656400000000604082015260600190565b60208082526024908201527f4552433732313a207472616e7366657220746f20746865207a65726f206164646040820152637265737360e01b606082015260800190565b60208082526019908201527f4552433732313a20617070726f766520746f2063616c6c657200000000000000604082015260600190565b6020808252602c908201527f4552433732313a206f70657261746f7220717565727920666f72206e6f6e657860408201526b34b9ba32b73a103a37b5b2b760a11b606082015260800190565b60208082526038908201527f4552433732313a20617070726f76652063616c6c6572206973206e6f74206f7760408201527f6e6572206e6f7220617070726f76656420666f7220616c6c0000000000000000606082015260800190565b6020808252602a908201527f4552433732313a2062616c616e636520717565727920666f7220746865207a65604082015269726f206164647265737360b01b606082015260800190565b60208082526029908201527f4552433732313a206f776e657220717565727920666f72206e6f6e657869737460408201526832b73a103a37b5b2b760b91b606082015260800190565b6020808252818101527f4552433732313a206d696e7420746f20746865207a65726f2061646472657373604082015260600190565b6020808252602c908201527f4552433732313a20617070726f76656420717565727920666f72206e6f6e657860408201526b34b9ba32b73a103a37b5b2b760a11b606082015260800190565b6020808252818101527f4f776e61626c653a2063616c6c6572206973206e6f7420746865206f776e6572604082015260600190565b60208082526029908201527f4552433732313a207472616e73666572206f6620746f6b656e2074686174206960408201526839903737ba1037bbb760b91b606082015260800190565b6020808252602f908201527f4552433732314d657461646174613a2055524920717565727920666f72206e6f60408201526e3732bc34b9ba32b73a103a37b5b2b760891b606082015260800190565b6020808252601e908201527f41646d696e3a2063616c6c6572206973206e6f74207468652061646d696e0000604082015260600190565b6020808252600b908201526a61646d696e3a207775743f60a81b604082015260600190565b60208082526021908201527f4552433732313a20617070726f76616c20746f2063757272656e74206f776e656040820152603960f91b606082015260800190565b60208082526031908201527f4552433732313a207472616e736665722063616c6c6572206973206e6f74206f6040820152701ddb995c881b9bdc88185c1c1c9bdd9959607a1b606082015260800190565b600061010082019050611ffb828451611a27565b6020830151608083810191909152604084015160a08401526060840151151560c0840152909201516001600160a01b031660e09091015290565b90815260200190565b60ff91909116815260200190565b60405181810167ffffffffffffffff8111828210171561206e5761206e61217b565b604052919050565b600082198211156120895761208961214f565b500190565b60008261209d5761209d612165565b500490565b6000828210156120b4576120b461214f565b500390565b60005b838110156120d45781810151838201526020016120bc565b83811115610c535750506000910152565b6002810460018216806120f957607f821691505b6020821081141561211a57634e487b7160e01b600052602260045260246000fd5b50919050565b60006000198214156121345761213461214f565b5060010190565b60008261214a5761214a612165565b500690565b634e487b7160e01b600052601160045260246000fd5b634e487b7160e01b600052601260045260246000fd5b634e487b7160e01b600052604160045260246000fd5b6001600160e01b0319811681146107f557600080fdfea264697066735822122043633b369f88d68b205e594f7b7e72caca5a352faa902fcab7f54f256714529664736f6c63430008000033",
  "immutableReferences": {},
  "source": "// SPDX-License-Identifier: MIT\r\npragma solidity 0.8.0;\r\npragma experimental ABIEncoderV2;\r\n\r\nimport \"@openzeppelin/contracts/token/ERC721/ERC721.sol\";\r\nimport \"@openzeppelin/contracts/utils/Counters.sol\";\r\nimport \"@openzeppelin/contracts/access/Ownable.sol\";\r\n\r\n/**\r\n * @title Lotto NFT contract\r\n */\r\ncontract LotteryNFT is ERC721, Ownable {\r\n    using Counters for Counters.Counter;\r\n    Counters.Counter private _tokenIds;\r\n\r\n    struct LotteryInfo {\r\n        uint8[4] numbers;\r\n        uint256 amount;\r\n        uint256 issueIndex;\r\n        bool claimInfo;\r\n        address owner;\r\n    }\r\n\r\n    /// @dev administrator address\r\n    address public adminAddress;\r\n    /// @dev TokenID => lottery information\r\n    mapping(uint256 => uint8[4]) public lotteryInfo;\r\n    /// @dev TokenID => lottery ticket price\r\n    mapping(uint256 => uint256) public lotteryAmount;\r\n    /// @dev TokenID => release index\r\n    mapping(uint256 => uint256) public issueIndex;\r\n    /// @dev TokenID => Whether to accept the award\r\n    mapping(uint256 => bool) public claimInfo;\r\n\r\n    /**\r\n     * @dev constructor\r\n     * @param name  \"Go Lottery GOC Ticket\"\r\n     * @param symbol symbol \"cGLT\"\r\n     */\r\n    constructor(string memory name, string memory symbol) public ERC721(name, symbol) {\r\n        adminAddress =  _msgSender ();\r\n    }\r\n\r\n    /**\r\n     * @dev Throws if called by any account other than the admin.\r\n     */\r\n    modifier onlyAdmin () {\r\n        require(adminAddress == _msgSender(), \"Admin: caller is not the admin\");\r\n        _;\r\n    }\r\n\r\n    /**\r\n     * @dev Create a new Item\r\n     * @param player user address\r\n     * @param _lotteryNumbers lottery numbers\r\n     * @param _amount purchase amount\r\n     * @param _issueIndex release index\r\n     */\r\n    function newLotteryItem(\r\n        address player,\r\n        uint8[4] memory _lotteryNumbers,\r\n        uint256 _amount,\r\n        uint256 _issueIndex\r\n    ) public onlyAdmin returns (uint256) {\r\n        _tokenIds.increment();\r\n\r\n        uint256 newItemId = _tokenIds.current();\r\n        _mint(player, newItemId);\r\n        lotteryInfo[newItemId] = _lotteryNumbers;\r\n        lotteryAmount[newItemId] = _amount;\r\n        issueIndex[newItemId] = _issueIndex;\r\n        // _setTokenURI (newItemId, tokenURI);\r\n\r\n        return newItemId;\r\n    }\r\n\r\n    /**\r\n     * @dev Get all Token data\r\n     * @param tokenId tokenId\r\n     */\r\n    function lotteryURI(uint256 tokenId) external view returns (LotteryInfo memory _lotteryInfo) {\r\n        _lotteryInfo.numbers = lotteryInfo[tokenId];\r\n        _lotteryInfo.amount = lotteryAmount[tokenId];\r\n        _lotteryInfo.issueIndex = issueIndex[tokenId];\r\n        _lotteryInfo.claimInfo = claimInfo[tokenId];\r\n        _lotteryInfo.owner = ownerOf(tokenId);\r\n    }\r\n\r\n    /**\r\n     * @dev Get lotto number\r\n     * @param tokenId tokenId\r\n     */\r\n    function getLotteryNumbers(uint256 tokenId) external view returns (uint8[4] memory) {\r\n        return lotteryInfo[tokenId];\r\n    }\r\n\r\n    /**\r\n     * @dev Get the purchase amount\r\n     * @param tokenId tokenId\r\n     */\r\n    function getLotteryAmount(uint256 tokenId) external view returns (uint256) {\r\n        return lotteryAmount[tokenId];\r\n    }\r\n\r\n    /**\r\n     * @dev Get release index\r\n     * @param tokenId tokenId\r\n     */\r\n    function getLotteryIssueIndex(uint256 tokenId) external view returns (uint256) {\r\n        return issueIndex[tokenId];\r\n    }\r\n\r\n    /**\r\n     * @dev accept the award\r\n     * @param tokenId tokenId\r\n     */\r\n    function claimReward(uint256 tokenId) external onlyAdmin {\r\n        claimInfo[tokenId] = true;\r\n    }\r\n\r\n    /**\r\n     * @dev Collect in batches\r\n     * @param tokenIds tokenId number set\r\n     */\r\n    function multiClaimReward(uint256[] memory tokenIds) external onlyAdmin {\r\n        for (uint256 i = 0; i < tokenIds.length; i++) {\r\n            claimInfo[tokenIds[i]] = true;\r\n        }\r\n    }\r\n\r\n    /**\r\n     * @dev destroy token\r\n     * @param tokenId tokenId\r\n     */\r\n    function burn(uint256 tokenId) external onlyAdmin {\r\n        _burn(tokenId);\r\n    }\r\n\r\n    /**\r\n     * @dev Get award status\r\n     * @param tokenId tokenId\r\n     */\r\n    function getClaimStatus(uint256 tokenId) external view returns (bool) {\r\n        return claimInfo[tokenId];\r\n    }\r\n\r\n    /**\r\n     * @dev Update the administrator address through the previous developer\r\n     * @param _adminAddress administrator address\r\n     */\r\n    function setAdmin(address _adminAddress) external onlyOwner {\r\n        adminAddress = _adminAddress;\r\n    }\r\n\r\n    /**\r\n     * @dev set TokenURI\r\n     * @param tokenId tokenId\r\n     * @param _tokenURI TokenURI Land Site\r\n     */\r\n    function setTokenURI(uint256 tokenId, string memory _tokenURI) external {\r\n        require(msg.sender == adminAddress, \"admin: wut?\");\r\n       // _setTokenURI (tokenId, _tokenURI);\r\n    }\r\n\r\n    /**\r\n     * @dev set BaseURI\r\n     * @param baseURI_ BaseURI \r\n     */\r\n    function setBaseURI(string memory baseURI_) external {\r\n        require(msg.sender == adminAddress, \"admin: wut?\");\r\n       // _setBaseURI (baseURI_);\r\n    }\r\n}",
  "sourcePath": "C:/Users/USER/Documents/philip_projects/Meter projects/lottery/contracts/LotteryNFT.sol",
  "compiler": {
    "name": "solc",
    "version": "0.8.0+commit.c7dfd78e.Emscripten.clang"
  },
  "schemaVersion": "3.4.0",
  "updatedAt": "2021-05-04T10:59:11.891Z",
  "devdoc": {
    "kind": "dev",
    "methods": {
      "approve(address,uint256)": {
        "details": "See {IERC721-approve}."
      },
      "balanceOf(address)": {
        "details": "See {IERC721-balanceOf}."
      },
      "burn(uint256)": {
        "details": "destroy token",
        "params": {
          "tokenId": "tokenId"
        }
      },
      "claimReward(uint256)": {
        "details": "accept the award",
        "params": {
          "tokenId": "tokenId"
        }
      },
      "constructor": {
        "details": "constructor",
        "params": {
          "name": " \"Go Lottery GOC Ticket\"",
          "symbol": "symbol \"cGLT\""
        }
      },
      "getApproved(uint256)": {
        "details": "See {IERC721-getApproved}."
      },
      "getClaimStatus(uint256)": {
        "details": "Get award status",
        "params": {
          "tokenId": "tokenId"
        }
      },
      "getLotteryAmount(uint256)": {
        "details": "Get the purchase amount",
        "params": {
          "tokenId": "tokenId"
        }
      },
      "getLotteryIssueIndex(uint256)": {
        "details": "Get release index",
        "params": {
          "tokenId": "tokenId"
        }
      },
      "getLotteryNumbers(uint256)": {
        "details": "Get lotto number",
        "params": {
          "tokenId": "tokenId"
        }
      },
      "isApprovedForAll(address,address)": {
        "details": "See {IERC721-isApprovedForAll}."
      },
      "lotteryURI(uint256)": {
        "details": "Get all Token data",
        "params": {
          "tokenId": "tokenId"
        }
      },
      "multiClaimReward(uint256[])": {
        "details": "Collect in batches",
        "params": {
          "tokenIds": "tokenId number set"
        }
      },
      "name()": {
        "details": "See {IERC721Metadata-name}."
      },
      "newLotteryItem(address,uint8[4],uint256,uint256)": {
        "details": "Create a new Item",
        "params": {
          "_amount": "purchase amount",
          "_issueIndex": "release index",
          "_lotteryNumbers": "lottery numbers",
          "player": "user address"
        }
      },
      "owner()": {
        "details": "Returns the address of the current owner."
      },
      "ownerOf(uint256)": {
        "details": "See {IERC721-ownerOf}."
      },
      "renounceOwnership()": {
        "details": "Leaves the contract without owner. It will not be possible to call `onlyOwner` functions anymore. Can only be called by the current owner. NOTE: Renouncing ownership will leave the contract without an owner, thereby removing any functionality that is only available to the owner."
      },
      "safeTransferFrom(address,address,uint256)": {
        "details": "See {IERC721-safeTransferFrom}."
      },
      "safeTransferFrom(address,address,uint256,bytes)": {
        "details": "See {IERC721-safeTransferFrom}."
      },
      "setAdmin(address)": {
        "details": "Update the administrator address through the previous developer",
        "params": {
          "_adminAddress": "administrator address"
        }
      },
      "setApprovalForAll(address,bool)": {
        "details": "See {IERC721-setApprovalForAll}."
      },
      "setBaseURI(string)": {
        "details": "set BaseURI",
        "params": {
          "baseURI_": "BaseURI "
        }
      },
      "setTokenURI(uint256,string)": {
        "details": "set TokenURI",
        "params": {
          "_tokenURI": "TokenURI Land Site",
          "tokenId": "tokenId"
        }
      },
      "supportsInterface(bytes4)": {
        "details": "See {IERC165-supportsInterface}."
      },
      "symbol()": {
        "details": "See {IERC721Metadata-symbol}."
      },
      "tokenURI(uint256)": {
        "details": "See {IERC721Metadata-tokenURI}."
      },
      "transferFrom(address,address,uint256)": {
        "details": "See {IERC721-transferFrom}."
      },
      "transferOwnership(address)": {
        "details": "Transfers ownership of the contract to a new account (`newOwner`). Can only be called by the current owner."
      }
    },
    "stateVariables": {
      "adminAddress": {
        "details": "administrator address"
      },
      "claimInfo": {
        "details": "TokenID => Whether to accept the award"
      },
      "issueIndex": {
        "details": "TokenID => release index"
      },
      "lotteryAmount": {
        "details": "TokenID => lottery ticket price"
      },
      "lotteryInfo": {
        "details": "TokenID => lottery information"
      }
    },
    "title": "Lotto NFT contract",
    "version": 1
  },
  "userdoc": {
    "kind": "user",
    "methods": {},
    "version": 1
  }
}